{
  "_format": "hh-sol-artifact-1",
  "contractName": "ProductManager",
  "sourceName": "contracts/Product.sol",
  "abi": [
    {
      "inputs": [],
      "stateMutability": "nonpayable",
      "type": "constructor"
    },
    {
      "inputs": [
        {
          "internalType": "address",
          "name": "sender",
          "type": "address"
        },
        {
          "internalType": "uint256",
          "name": "balance",
          "type": "uint256"
        },
        {
          "internalType": "uint256",
          "name": "needed",
          "type": "uint256"
        },
        {
          "internalType": "uint256",
          "name": "tokenId",
          "type": "uint256"
        }
      ],
      "name": "ERC1155InsufficientBalance",
      "type": "error"
    },
    {
      "inputs": [
        {
          "internalType": "address",
          "name": "approver",
          "type": "address"
        }
      ],
      "name": "ERC1155InvalidApprover",
      "type": "error"
    },
    {
      "inputs": [
        {
          "internalType": "uint256",
          "name": "idsLength",
          "type": "uint256"
        },
        {
          "internalType": "uint256",
          "name": "valuesLength",
          "type": "uint256"
        }
      ],
      "name": "ERC1155InvalidArrayLength",
      "type": "error"
    },
    {
      "inputs": [
        {
          "internalType": "address",
          "name": "operator",
          "type": "address"
        }
      ],
      "name": "ERC1155InvalidOperator",
      "type": "error"
    },
    {
      "inputs": [
        {
          "internalType": "address",
          "name": "receiver",
          "type": "address"
        }
      ],
      "name": "ERC1155InvalidReceiver",
      "type": "error"
    },
    {
      "inputs": [
        {
          "internalType": "address",
          "name": "sender",
          "type": "address"
        }
      ],
      "name": "ERC1155InvalidSender",
      "type": "error"
    },
    {
      "inputs": [
        {
          "internalType": "address",
          "name": "operator",
          "type": "address"
        },
        {
          "internalType": "address",
          "name": "owner",
          "type": "address"
        }
      ],
      "name": "ERC1155MissingApprovalForAll",
      "type": "error"
    },
    {
      "inputs": [],
      "name": "FailedCall",
      "type": "error"
    },
    {
      "inputs": [
        {
          "internalType": "uint256",
          "name": "balance",
          "type": "uint256"
        },
        {
          "internalType": "uint256",
          "name": "needed",
          "type": "uint256"
        }
      ],
      "name": "InsufficientBalance",
      "type": "error"
    },
    {
      "inputs": [
        {
          "internalType": "address",
          "name": "owner",
          "type": "address"
        }
      ],
      "name": "OwnableInvalidOwner",
      "type": "error"
    },
    {
      "inputs": [
        {
          "internalType": "address",
          "name": "account",
          "type": "address"
        }
      ],
      "name": "OwnableUnauthorizedAccount",
      "type": "error"
    },
    {
      "anonymous": false,
      "inputs": [
        {
          "indexed": true,
          "internalType": "address",
          "name": "account",
          "type": "address"
        },
        {
          "indexed": true,
          "internalType": "address",
          "name": "operator",
          "type": "address"
        },
        {
          "indexed": false,
          "internalType": "bool",
          "name": "approved",
          "type": "bool"
        }
      ],
      "name": "ApprovalForAll",
      "type": "event"
    },
    {
      "anonymous": false,
      "inputs": [
        {
          "indexed": true,
          "internalType": "address",
          "name": "previousOwner",
          "type": "address"
        },
        {
          "indexed": true,
          "internalType": "address",
          "name": "newOwner",
          "type": "address"
        }
      ],
      "name": "OwnershipTransferred",
      "type": "event"
    },
    {
      "anonymous": false,
      "inputs": [
        {
          "indexed": true,
          "internalType": "uint256",
          "name": "tokenId",
          "type": "uint256"
        },
        {
          "indexed": false,
          "internalType": "string",
          "name": "action",
          "type": "string"
        },
        {
          "indexed": true,
          "internalType": "address",
          "name": "creator",
          "type": "address"
        },
        {
          "indexed": false,
          "internalType": "uint256",
          "name": "timestamp",
          "type": "uint256"
        }
      ],
      "name": "TokenStateChanged",
      "type": "event"
    },
    {
      "anonymous": false,
      "inputs": [
        {
          "indexed": true,
          "internalType": "address",
          "name": "operator",
          "type": "address"
        },
        {
          "indexed": true,
          "internalType": "address",
          "name": "from",
          "type": "address"
        },
        {
          "indexed": true,
          "internalType": "address",
          "name": "to",
          "type": "address"
        },
        {
          "indexed": false,
          "internalType": "uint256[]",
          "name": "ids",
          "type": "uint256[]"
        },
        {
          "indexed": false,
          "internalType": "uint256[]",
          "name": "values",
          "type": "uint256[]"
        }
      ],
      "name": "TransferBatch",
      "type": "event"
    },
    {
      "anonymous": false,
      "inputs": [
        {
          "indexed": true,
          "internalType": "address",
          "name": "operator",
          "type": "address"
        },
        {
          "indexed": true,
          "internalType": "address",
          "name": "from",
          "type": "address"
        },
        {
          "indexed": true,
          "internalType": "address",
          "name": "to",
          "type": "address"
        },
        {
          "indexed": false,
          "internalType": "uint256",
          "name": "id",
          "type": "uint256"
        },
        {
          "indexed": false,
          "internalType": "uint256",
          "name": "value",
          "type": "uint256"
        }
      ],
      "name": "TransferSingle",
      "type": "event"
    },
    {
      "anonymous": false,
      "inputs": [
        {
          "indexed": false,
          "internalType": "string",
          "name": "value",
          "type": "string"
        },
        {
          "indexed": true,
          "internalType": "uint256",
          "name": "id",
          "type": "uint256"
        }
      ],
      "name": "URI",
      "type": "event"
    },
    {
      "inputs": [
        {
          "internalType": "address",
          "name": "account",
          "type": "address"
        },
        {
          "internalType": "uint256",
          "name": "id",
          "type": "uint256"
        }
      ],
      "name": "balanceOf",
      "outputs": [
        {
          "internalType": "uint256",
          "name": "",
          "type": "uint256"
        }
      ],
      "stateMutability": "view",
      "type": "function"
    },
    {
      "inputs": [
        {
          "internalType": "address[]",
          "name": "accounts",
          "type": "address[]"
        },
        {
          "internalType": "uint256[]",
          "name": "ids",
          "type": "uint256[]"
        }
      ],
      "name": "balanceOfBatch",
      "outputs": [
        {
          "internalType": "uint256[]",
          "name": "",
          "type": "uint256[]"
        }
      ],
      "stateMutability": "view",
      "type": "function"
    },
    {
      "inputs": [
        {
          "internalType": "uint256",
          "name": "tokenId",
          "type": "uint256"
        },
        {
          "internalType": "uint256",
          "name": "amount",
          "type": "uint256"
        }
      ],
      "name": "burnProduct",
      "outputs": [],
      "stateMutability": "nonpayable",
      "type": "function"
    },
    {
      "inputs": [
        {
          "internalType": "uint256[]",
          "name": "tokenIdsToBuy",
          "type": "uint256[]"
        },
        {
          "internalType": "uint256[]",
          "name": "amountsToBuy",
          "type": "uint256[]"
        },
        {
          "internalType": "uint256",
          "name": "totalPrice",
          "type": "uint256"
        }
      ],
      "name": "buyTokens",
      "outputs": [],
      "stateMutability": "payable",
      "type": "function"
    },
    {
      "inputs": [
        {
          "internalType": "uint256",
          "name": "",
          "type": "uint256"
        }
      ],
      "name": "currentOwner",
      "outputs": [
        {
          "internalType": "address",
          "name": "",
          "type": "address"
        }
      ],
      "stateMutability": "view",
      "type": "function"
    },
    {
      "inputs": [],
      "name": "getAllTokenIds",
      "outputs": [
        {
          "components": [
            {
              "internalType": "uint256",
              "name": "count",
              "type": "uint256"
            },
            {
              "internalType": "uint256[]",
              "name": "product_ids",
              "type": "uint256[]"
            }
          ],
          "internalType": "struct ProductManager.TokenIdsResponse",
          "name": "",
          "type": "tuple"
        }
      ],
      "stateMutability": "view",
      "type": "function"
    },
    {
      "inputs": [
        {
          "internalType": "uint256",
          "name": "tokenId",
          "type": "uint256"
        }
      ],
      "name": "getMetadataCID",
      "outputs": [
        {
          "internalType": "string",
          "name": "",
          "type": "string"
        }
      ],
      "stateMutability": "view",
      "type": "function"
    },
    {
      "inputs": [
        {
          "internalType": "uint256",
          "name": "tokenId",
          "type": "uint256"
        }
      ],
      "name": "getProductInfo",
      "outputs": [
        {
          "internalType": "string",
          "name": "",
          "type": "string"
        },
        {
          "internalType": "string",
          "name": "",
          "type": "string"
        },
        {
          "internalType": "uint256",
          "name": "",
          "type": "uint256"
        },
        {
          "internalType": "string",
          "name": "",
          "type": "string"
        },
        {
          "internalType": "address",
          "name": "",
          "type": "address"
        }
      ],
      "stateMutability": "view",
      "type": "function"
    },
    {
      "inputs": [
        {
          "internalType": "uint256",
          "name": "tokenId",
          "type": "uint256"
        }
      ],
      "name": "getTokenOwners",
      "outputs": [
        {
          "internalType": "address[]",
          "name": "",
          "type": "address[]"
        }
      ],
      "stateMutability": "view",
      "type": "function"
    },
    {
      "inputs": [
        {
          "internalType": "uint256",
          "name": "tokenId",
          "type": "uint256"
        }
      ],
      "name": "getTransactionCIDs",
      "outputs": [
        {
          "internalType": "string[]",
          "name": "",
          "type": "string[]"
        }
      ],
      "stateMutability": "view",
      "type": "function"
    },
    {
      "inputs": [
        {
          "internalType": "address",
          "name": "account",
          "type": "address"
        },
        {
          "internalType": "address",
          "name": "operator",
          "type": "address"
        }
      ],
      "name": "isApprovedForAll",
      "outputs": [
        {
          "internalType": "bool",
          "name": "",
          "type": "bool"
        }
      ],
      "stateMutability": "view",
      "type": "function"
    },
    {
      "inputs": [
        {
          "internalType": "uint256",
          "name": "tokenId",
          "type": "uint256"
        },
        {
          "internalType": "uint256",
          "name": "amount",
          "type": "uint256"
        },
        {
          "internalType": "string",
          "name": "metadataCID",
          "type": "string"
        },
        {
          "internalType": "string",
          "name": "price",
          "type": "string"
        },
        {
          "internalType": "uint256",
          "name": "quantity",
          "type": "uint256"
        },
        {
          "internalType": "string",
          "name": "status",
          "type": "string"
        }
      ],
      "name": "mintProduct",
      "outputs": [],
      "stateMutability": "nonpayable",
      "type": "function"
    },
    {
      "inputs": [],
      "name": "owner",
      "outputs": [
        {
          "internalType": "address",
          "name": "",
          "type": "address"
        }
      ],
      "stateMutability": "view",
      "type": "function"
    },
    {
      "inputs": [
        {
          "internalType": "uint256",
          "name": "",
          "type": "uint256"
        }
      ],
      "name": "productMetadata",
      "outputs": [
        {
          "internalType": "string",
          "name": "",
          "type": "string"
        }
      ],
      "stateMutability": "view",
      "type": "function"
    },
    {
      "inputs": [
        {
          "internalType": "uint256",
          "name": "",
          "type": "uint256"
        }
      ],
      "name": "productPrice",
      "outputs": [
        {
          "internalType": "string",
          "name": "",
          "type": "string"
        }
      ],
      "stateMutability": "view",
      "type": "function"
    },
    {
      "inputs": [
        {
          "internalType": "uint256",
          "name": "",
          "type": "uint256"
        }
      ],
      "name": "productQuantity",
      "outputs": [
        {
          "internalType": "uint256",
          "name": "",
          "type": "uint256"
        }
      ],
      "stateMutability": "view",
      "type": "function"
    },
    {
      "inputs": [
        {
          "internalType": "uint256",
          "name": "",
          "type": "uint256"
        }
      ],
      "name": "productStatus",
      "outputs": [
        {
          "internalType": "string",
          "name": "",
          "type": "string"
        }
      ],
      "stateMutability": "view",
      "type": "function"
    },
    {
      "inputs": [],
      "name": "renounceOwnership",
      "outputs": [],
      "stateMutability": "nonpayable",
      "type": "function"
    },
    {
      "inputs": [
        {
          "internalType": "address",
          "name": "from",
          "type": "address"
        },
        {
          "internalType": "address",
          "name": "to",
          "type": "address"
        },
        {
          "internalType": "uint256[]",
          "name": "ids",
          "type": "uint256[]"
        },
        {
          "internalType": "uint256[]",
          "name": "values",
          "type": "uint256[]"
        },
        {
          "internalType": "bytes",
          "name": "data",
          "type": "bytes"
        }
      ],
      "name": "safeBatchTransferFrom",
      "outputs": [],
      "stateMutability": "nonpayable",
      "type": "function"
    },
    {
      "inputs": [
        {
          "internalType": "address",
          "name": "from",
          "type": "address"
        },
        {
          "internalType": "address",
          "name": "to",
          "type": "address"
        },
        {
          "internalType": "uint256",
          "name": "id",
          "type": "uint256"
        },
        {
          "internalType": "uint256",
          "name": "value",
          "type": "uint256"
        },
        {
          "internalType": "bytes",
          "name": "data",
          "type": "bytes"
        }
      ],
      "name": "safeTransferFrom",
      "outputs": [],
      "stateMutability": "nonpayable",
      "type": "function"
    },
    {
      "inputs": [
        {
          "internalType": "address",
          "name": "operator",
          "type": "address"
        },
        {
          "internalType": "bool",
          "name": "approved",
          "type": "bool"
        }
      ],
      "name": "setApprovalForAll",
      "outputs": [],
      "stateMutability": "nonpayable",
      "type": "function"
    },
    {
      "inputs": [
        {
          "internalType": "uint256",
          "name": "tokenId",
          "type": "uint256"
        },
        {
          "internalType": "string",
          "name": "cid",
          "type": "string"
        }
      ],
      "name": "storeEventCID",
      "outputs": [],
      "stateMutability": "nonpayable",
      "type": "function"
    },
    {
      "inputs": [
        {
          "internalType": "bytes4",
          "name": "interfaceId",
          "type": "bytes4"
        }
      ],
      "name": "supportsInterface",
      "outputs": [
        {
          "internalType": "bool",
          "name": "",
          "type": "bool"
        }
      ],
      "stateMutability": "view",
      "type": "function"
    },
    {
      "inputs": [
        {
          "internalType": "uint256",
          "name": "",
          "type": "uint256"
        },
        {
          "internalType": "uint256",
          "name": "",
          "type": "uint256"
        }
      ],
      "name": "transactionCIDs",
      "outputs": [
        {
          "internalType": "string",
          "name": "",
          "type": "string"
        }
      ],
      "stateMutability": "view",
      "type": "function"
    },
    {
      "inputs": [
        {
          "internalType": "address",
          "name": "newOwner",
          "type": "address"
        }
      ],
      "name": "transferOwnership",
      "outputs": [],
      "stateMutability": "nonpayable",
      "type": "function"
    },
    {
      "inputs": [
        {
          "internalType": "uint256",
          "name": "tokenId",
          "type": "uint256"
        },
        {
          "internalType": "string",
          "name": "newMetadataCID",
          "type": "string"
        }
      ],
      "name": "updateMetadata",
      "outputs": [],
      "stateMutability": "nonpayable",
      "type": "function"
    },
    {
      "inputs": [
        {
          "internalType": "uint256",
          "name": "tokenId",
          "type": "uint256"
        },
        {
          "internalType": "string",
          "name": "newPrice",
          "type": "string"
        }
      ],
      "name": "updatePrice",
      "outputs": [],
      "stateMutability": "nonpayable",
      "type": "function"
    },
    {
      "inputs": [
        {
          "internalType": "uint256",
          "name": "tokenId",
          "type": "uint256"
        },
        {
          "internalType": "uint256",
          "name": "newQuantity",
          "type": "uint256"
        }
      ],
      "name": "updateQuantity",
      "outputs": [],
      "stateMutability": "nonpayable",
      "type": "function"
    },
    {
      "inputs": [
        {
          "internalType": "uint256",
          "name": "tokenId",
          "type": "uint256"
        },
        {
          "internalType": "string",
          "name": "newStatus",
          "type": "string"
        }
      ],
      "name": "updateStatus",
      "outputs": [],
      "stateMutability": "nonpayable",
      "type": "function"
    },
    {
      "inputs": [
        {
          "internalType": "uint256",
          "name": "",
          "type": "uint256"
        }
      ],
      "name": "uri",
      "outputs": [
        {
          "internalType": "string",
          "name": "",
          "type": "string"
        }
      ],
      "stateMutability": "view",
      "type": "function"
    }
  ],
  "bytecode": "0x608060405234801561001057600080fd5b50336040518060400160405280601081526020017f697066733a2f2f7b69647d2e6a736f6e00000000000000000000000000000000815250610057816100df60201b60201c565b50600073ffffffffffffffffffffffffffffffffffffffff168173ffffffffffffffffffffffffffffffffffffffff16036100ca5760006040517f1e4fbdf70000000000000000000000000000000000000000000000000000000081526004016100c191906101f9565b60405180910390fd5b6100d9816100f260201b60201c565b50610536565b80600290816100ee9190610464565b5050565b6000600360009054906101000a900473ffffffffffffffffffffffffffffffffffffffff16905081600360006101000a81548173ffffffffffffffffffffffffffffffffffffffff021916908373ffffffffffffffffffffffffffffffffffffffff1602179055508173ffffffffffffffffffffffffffffffffffffffff168173ffffffffffffffffffffffffffffffffffffffff167f8be0079c531659141344cd1fd0a4f28419497f9722a3daafe3b4186f6b6457e060405160405180910390a35050565b600073ffffffffffffffffffffffffffffffffffffffff82169050919050565b60006101e3826101b8565b9050919050565b6101f3816101d8565b82525050565b600060208201905061020e60008301846101ea565b92915050565b600081519050919050565b7f4e487b7100000000000000000000000000000000000000000000000000000000600052604160045260246000fd5b7f4e487b7100000000000000000000000000000000000000000000000000000000600052602260045260246000fd5b6000600282049050600182168061029557607f821691505b6020821081036102a8576102a761024e565b5b50919050565b60008190508160005260206000209050919050565b60006020601f8301049050919050565b600082821b905092915050565b6000600883026103107fffffffffffffffffffffffffffffffffffffffffffffffffffffffffffffffff826102d3565b61031a86836102d3565b95508019841693508086168417925050509392505050565b6000819050919050565b6000819050919050565b600061036161035c61035784610332565b61033c565b610332565b9050919050565b6000819050919050565b61037b83610346565b61038f61038782610368565b8484546102e0565b825550505050565b600090565b6103a4610397565b6103af818484610372565b505050565b5b818110156103d3576103c860008261039c565b6001810190506103b5565b5050565b601f821115610418576103e9816102ae565b6103f2846102c3565b81016020851015610401578190505b61041561040d856102c3565b8301826103b4565b50505b505050565b600082821c905092915050565b600061043b6000198460080261041d565b1980831691505092915050565b6000610454838361042a565b9150826002028217905092915050565b61046d82610214565b67ffffffffffffffff8111156104865761048561021f565b5b610490825461027d565b61049b8282856103d7565b600060209050601f8311600181146104ce57600084156104bc578287015190505b6104c68582610448565b86555061052e565b601f1984166104dc866102ae565b60005b82811015610504578489015182556001820191506020850194506020810190506104df565b86831015610521578489015161051d601f89168261042a565b8355505b6001600288020188555050505b505050505050565b614a4c806105456000396000f3fe6080604052600436106101cc5760003560e01c8063715018a6116100f7578063a57e953711610095578063e985e9c511610064578063e985e9c5146106e8578063f242432a14610725578063f2fde38b1461074e578063fd68b3ff14610777576101cc565b8063a57e95371461061a578063bdbed72214610657578063d1b34dd814610682578063e5451103146106ab576101cc565b806379cd4921116100d157806379cd4921146105605780638da5cb5b146105895780639c13bea9146105b4578063a22cb465146105f1576101cc565b8063715018a6146104df578063738c4b2c146104f657806379a85e6c1461051f576101cc565b8063342867581161016f57806353c8388e1161013e57806353c8388e1461041357806355cdc6311461043c578063681ece9d146104795780637103b15b146104b6576101cc565b8063342867581461034757806340284213146103705780634e1273f41461039957806353845509146103d6576101cc565b80630ea3d3ee116101ab5780630ea3d3ee146102885780632020dc89146102c557806328ffe6f4146103025780632eb2c2d61461031e576101cc565b8062fdd58e146101d157806301ffc9a71461020e5780630e89341c1461024b575b600080fd5b3480156101dd57600080fd5b506101f860048036038101906101f39190612fcc565b6107b4565b604051610205919061301b565b60405180910390f35b34801561021a57600080fd5b506102356004803603810190610230919061308e565b61080e565b60405161024291906130d6565b60405180910390f35b34801561025757600080fd5b50610272600480360381019061026d91906130f1565b6108f0565b60405161027f91906131ae565b60405180910390f35b34801561029457600080fd5b506102af60048036038101906102aa91906130f1565b610984565b6040516102bc91906131ae565b60405180910390f35b3480156102d157600080fd5b506102ec60048036038101906102e791906130f1565b610a24565b6040516102f9919061301b565b60405180910390f35b61031c60048036038101906103179190613318565b610a3c565b005b34801561032a57600080fd5b5061034560048036038101906103409190613458565b610d31565b005b34801561035357600080fd5b5061036e60048036038101906103699190613527565b610dd9565b005b34801561037c57600080fd5b5061039760048036038101906103929190613608565b610f7d565b005b3480156103a557600080fd5b506103c060048036038101906103bb91906137ac565b6111b3565b6040516103cd91906138e2565b60405180910390f35b3480156103e257600080fd5b506103fd60048036038101906103f891906130f1565b6112bc565b60405161040a91906131ae565b60405180910390f35b34801561041f57600080fd5b5061043a60048036038101906104359190613904565b61135c565b005b34801561044857600080fd5b50610463600480360381019061045e9190613527565b6113d8565b60405161047091906131ae565b60405180910390f35b34801561048557600080fd5b506104a0600480360381019061049b91906130f1565b611491565b6040516104ad9190613a1e565b60405180910390f35b3480156104c257600080fd5b506104dd60048036038101906104d89190613904565b611532565b005b3480156104eb57600080fd5b506104f46115ae565b005b34801561050257600080fd5b5061051d60048036038101906105189190613904565b6115c2565b005b34801561052b57600080fd5b50610546600480360381019061054191906130f1565b61160c565b604051610557959493929190613a4f565b60405180910390f35b34801561056c57600080fd5b5061058760048036038101906105829190613527565b61184d565b005b34801561059557600080fd5b5061059e611970565b6040516105ab9190613ab7565b60405180910390f35b3480156105c057600080fd5b506105db60048036038101906105d691906130f1565b61199a565b6040516105e89190613bde565b60405180910390f35b3480156105fd57600080fd5b5061061860048036038101906106139190613c2c565b611a86565b005b34801561062657600080fd5b50610641600480360381019061063c91906130f1565b611a9c565b60405161064e91906131ae565b60405180910390f35b34801561066357600080fd5b5061066c611b41565b6040516106799190613d18565b60405180910390f35b34801561068e57600080fd5b506106a960048036038101906106a49190613904565b611bb8565b005b3480156106b757600080fd5b506106d260048036038101906106cd91906130f1565b611c34565b6040516106df9190613ab7565b60405180910390f35b3480156106f457600080fd5b5061070f600480360381019061070a9190613d3a565b611c67565b60405161071c91906130d6565b60405180910390f35b34801561073157600080fd5b5061074c60048036038101906107479190613d7a565b611cfb565b005b34801561075a57600080fd5b5061077560048036038101906107709190613e11565b611da3565b005b34801561078357600080fd5b5061079e600480360381019061079991906130f1565b611e29565b6040516107ab91906131ae565b60405180910390f35b600080600083815260200190815260200160002060008473ffffffffffffffffffffffffffffffffffffffff1673ffffffffffffffffffffffffffffffffffffffff16815260200190815260200160002054905092915050565b60007fd9b67a26000000000000000000000000000000000000000000000000000000007bffffffffffffffffffffffffffffffffffffffffffffffffffffffff1916827bffffffffffffffffffffffffffffffffffffffffffffffffffffffff191614806108d957507f0e89341c000000000000000000000000000000000000000000000000000000007bffffffffffffffffffffffffffffffffffffffffffffffffffffffff1916827bffffffffffffffffffffffffffffffffffffffffffffffffffffffff1916145b806108e957506108e882611ec9565b5b9050919050565b6060600280546108ff90613e6d565b80601f016020809104026020016040519081016040528092919081815260200182805461092b90613e6d565b80156109785780601f1061094d57610100808354040283529160200191610978565b820191906000526020600020905b81548152906001019060200180831161095b57829003601f168201915b50505050509050919050565b600760205280600052604060002060009150905080546109a390613e6d565b80601f01602080910402602001604051908101604052809291908181526020018280546109cf90613e6d565b8015610a1c5780601f106109f157610100808354040283529160200191610a1c565b820191906000526020600020905b8154815290600101906020018083116109ff57829003601f168201915b505050505081565b60066020528060005260406000206000915090505481565b8151835114610a80576040517f08c379a0000000000000000000000000000000000000000000000000000000008152600401610a7790613eea565b60405180910390fd5b803414610ac2576040517f08c379a0000000000000000000000000000000000000000000000000000000008152600401610ab990613f56565b60405180910390fd5b60006008600085600081518110610adc57610adb613f76565b5b6020026020010151815260200190815260200160002060009054906101000a900473ffffffffffffffffffffffffffffffffffffffff169050610b3e828273ffffffffffffffffffffffffffffffffffffffff16611f3390919063ffffffff16565b60005b8451811015610cc0576000858281518110610b5f57610b5e613f76565b5b602002602001015190506000858381518110610b7e57610b7d613f76565b5b602002602001015190508060066000848152602001908152602001600020541015610bde576040517f08c379a0000000000000000000000000000000000000000000000000000000008152600401610bd590613ff1565b60405180910390fd5b80600660008481526020019081526020016000206000828254610c019190614040565b92505081905550610c248433848460405180602001604052806000815250612022565b60005b81811015610cb05760096000848152602001908152602001600020339080600181540180825580915050600190039060005260206000200160009091909190916101000a81548173ffffffffffffffffffffffffffffffffffffffff021916908373ffffffffffffffffffffffffffffffffffffffff1602179055508080600101915050610c27565b5050508080600101915050610b41565b503373ffffffffffffffffffffffffffffffffffffffff1684600081518110610cec57610ceb613f76565b5b60200260200101517fd316f4b54d9f96c49972ad1c68b3cf7c53a99eb366515905fc2156e97a17004642604051610d2391906140c0565b60405180910390a350505050565b6000610d3b61212d565b90508073ffffffffffffffffffffffffffffffffffffffff168673ffffffffffffffffffffffffffffffffffffffff1614158015610d805750610d7e8682611c67565b155b15610dc45780866040517fe237d922000000000000000000000000000000000000000000000000000000008152600401610dbb9291906140ee565b60405180910390fd5b610dd18686868686612135565b505050505050565b6008600083815260200190815260200160002060009054906101000a900473ffffffffffffffffffffffffffffffffffffffff1673ffffffffffffffffffffffffffffffffffffffff163373ffffffffffffffffffffffffffffffffffffffff1614610e7a576040517f08c379a0000000000000000000000000000000000000000000000000000000008152600401610e7190614189565b60405180910390fd5b610e8533838361222d565b80600660008481526020019081526020016000206000828254610ea89190614040565b925050819055506000600660008481526020019081526020016000205403610f2a576040518060400160405280600d81526020017f6e6f7420617661696c61626c6500000000000000000000000000000000000000815250600760008481526020019081526020016000209081610f1f9190614355565b50610f29826122d4565b5b3373ffffffffffffffffffffffffffffffffffffffff16827fd316f4b54d9f96c49972ad1c68b3cf7c53a99eb366515905fc2156e97a17004642604051610f719190614473565b60405180910390a35050565b610f8561239a565b610fa033878760405180602001604052806000815250612421565b83600460008881526020019081526020016000209081610fc09190614355565b5082600560008881526020019081526020016000209081610fe19190614355565b508160066000888152602001908152602001600020819055508060076000888152602001908152602001600020908161101a9190614355565b50336008600088815260200190815260200160002060006101000a81548173ffffffffffffffffffffffffffffffffffffffff021916908373ffffffffffffffffffffffffffffffffffffffff160217905550600c600087815260200190815260200160002060009054906101000a900460ff166110e857600b8690806001815401808255809150506001900390600052602060002001600090919091909150556001600c600088815260200190815260200160002060006101000a81548160ff0219169083151502179055505b60096000878152602001908152602001600020339080600181540180825580915050600190039060005260206000200160009091909190916101000a81548173ffffffffffffffffffffffffffffffffffffffff021916908373ffffffffffffffffffffffffffffffffffffffff1602179055503373ffffffffffffffffffffffffffffffffffffffff16867fd316f4b54d9f96c49972ad1c68b3cf7c53a99eb366515905fc2156e97a170046426040516111a391906144ed565b60405180910390a3505050505050565b606081518351146111ff57815183516040517f5b0599910000000000000000000000000000000000000000000000000000000081526004016111f692919061451b565b60405180910390fd5b6000835167ffffffffffffffff81111561121c5761121b6131d5565b5b60405190808252806020026020018201604052801561124a5781602001602082028036833780820191505090505b50905060005b84518110156112b15761128761126f82876124ba90919063ffffffff16565b61128283876124ce90919063ffffffff16565b6107b4565b82828151811061129a57611299613f76565b5b602002602001018181525050806001019050611250565b508091505092915050565b600460205280600052604060002060009150905080546112db90613e6d565b80601f016020809104026020016040519081016040528092919081815260200182805461130790613e6d565b80156113545780601f1061132957610100808354040283529160200191611354565b820191906000526020600020905b81548152906001019060200180831161133757829003601f168201915b505050505081565b61136461239a565b806004600084815260200190815260200160002090816113849190614355565b503373ffffffffffffffffffffffffffffffffffffffff16827fd316f4b54d9f96c49972ad1c68b3cf7c53a99eb366515905fc2156e97a170046426040516113cc9190614590565b60405180910390a35050565b600d60205281600052604060002081815481106113f457600080fd5b9060005260206000200160009150915050805461141090613e6d565b80601f016020809104026020016040519081016040528092919081815260200182805461143c90613e6d565b80156114895780601f1061145e57610100808354040283529160200191611489565b820191906000526020600020905b81548152906001019060200180831161146c57829003601f168201915b505050505081565b60606009600083815260200190815260200160002080548060200260200160405190810160405280929190818152602001828054801561152657602002820191906000526020600020905b8160009054906101000a900473ffffffffffffffffffffffffffffffffffffffff1673ffffffffffffffffffffffffffffffffffffffff16815260200190600101908083116114dc575b50505050509050919050565b61153a61239a565b8060056000848152602001908152602001600020908161155a9190614355565b503373ffffffffffffffffffffffffffffffffffffffff16827fd316f4b54d9f96c49972ad1c68b3cf7c53a99eb366515905fc2156e97a170046426040516115a2919061460a565b60405180910390a35050565b6115b661239a565b6115c060006124e2565b565b600d6000838152602001908152602001600020819080600181540180825580915050600190039060005260206000200160009091909190915090816116079190614355565b505050565b60608060006060600060046000878152602001908152602001600020600560008881526020019081526020016000206006600089815260200190815260200160002054600760008a8152602001908152602001600020600860008b815260200190815260200160002060009054906101000a900473ffffffffffffffffffffffffffffffffffffffff168480546116a290613e6d565b80601f01602080910402602001604051908101604052809291908181526020018280546116ce90613e6d565b801561171b5780601f106116f05761010080835404028352916020019161171b565b820191906000526020600020905b8154815290600101906020018083116116fe57829003601f168201915b5050505050945083805461172e90613e6d565b80601f016020809104026020016040519081016040528092919081815260200182805461175a90613e6d565b80156117a75780601f1061177c576101008083540402835291602001916117a7565b820191906000526020600020905b81548152906001019060200180831161178a57829003601f168201915b505050505093508180546117ba90613e6d565b80601f01602080910402602001604051908101604052809291908181526020018280546117e690613e6d565b80156118335780601f1061180857610100808354040283529160200191611833565b820191906000526020600020905b81548152906001019060200180831161181657829003601f168201915b505050505091509450945094509450945091939590929450565b61185561239a565b60006006600084815260200190815260200160002054905060008210156118b1576040517f08c379a00000000000000000000000000000000000000000000000000000000081526004016118a890614684565b60405180910390fd5b808210156118d4576118cf338484846118ca9190614040565b61222d565b611904565b8082111561190357611902338483856118ed9190614040565b60405180602001604052806000815250612421565b5b5b8160066000858152602001908152602001600020819055503373ffffffffffffffffffffffffffffffffffffffff16837fd316f4b54d9f96c49972ad1c68b3cf7c53a99eb366515905fc2156e97a1700464260405161196391906146f0565b60405180910390a3505050565b6000600360009054906101000a900473ffffffffffffffffffffffffffffffffffffffff16905090565b6060600d6000838152602001908152602001600020805480602002602001604051908101604052809291908181526020016000905b82821015611a7b5783829060005260206000200180546119ee90613e6d565b80601f0160208091040260200160405190810160405280929190818152602001828054611a1a90613e6d565b8015611a675780601f10611a3c57610100808354040283529160200191611a67565b820191906000526020600020905b815481529060010190602001808311611a4a57829003601f168201915b5050505050815260200190600101906119cf565b505050509050919050565b611a98611a9161212d565b83836125a8565b5050565b6060600460008381526020019081526020016000208054611abc90613e6d565b80601f0160208091040260200160405190810160405280929190818152602001828054611ae890613e6d565b8015611b355780601f10611b0a57610100808354040283529160200191611b35565b820191906000526020600020905b815481529060010190602001808311611b1857829003601f168201915b50505050509050919050565b611b49612f0a565b6040518060400160405280600b805490508152602001600b805480602002602001604051908101604052809291908181526020018280548015611bab57602002820191906000526020600020905b815481526020019060010190808311611b97575b5050505050815250905090565b611bc061239a565b80600760008481526020019081526020016000209081611be09190614355565b503373ffffffffffffffffffffffffffffffffffffffff16827fd316f4b54d9f96c49972ad1c68b3cf7c53a99eb366515905fc2156e97a17004642604051611c28919061476a565b60405180910390a35050565b60086020528060005260406000206000915054906101000a900473ffffffffffffffffffffffffffffffffffffffff1681565b6000600160008473ffffffffffffffffffffffffffffffffffffffff1673ffffffffffffffffffffffffffffffffffffffff16815260200190815260200160002060008373ffffffffffffffffffffffffffffffffffffffff1673ffffffffffffffffffffffffffffffffffffffff16815260200190815260200160002060009054906101000a900460ff16905092915050565b6000611d0561212d565b90508073ffffffffffffffffffffffffffffffffffffffff168673ffffffffffffffffffffffffffffffffffffffff1614158015611d4a5750611d488682611c67565b155b15611d8e5780866040517fe237d922000000000000000000000000000000000000000000000000000000008152600401611d859291906140ee565b60405180910390fd5b611d9b8686868686612022565b505050505050565b611dab61239a565b600073ffffffffffffffffffffffffffffffffffffffff168173ffffffffffffffffffffffffffffffffffffffff1603611e1d5760006040517f1e4fbdf7000000000000000000000000000000000000000000000000000000008152600401611e149190613ab7565b60405180910390fd5b611e26816124e2565b50565b60056020528060005260406000206000915090508054611e4890613e6d565b80601f0160208091040260200160405190810160405280929190818152602001828054611e7490613e6d565b8015611ec15780601f10611e9657610100808354040283529160200191611ec1565b820191906000526020600020905b815481529060010190602001808311611ea457829003601f168201915b505050505081565b60007f01ffc9a7000000000000000000000000000000000000000000000000000000007bffffffffffffffffffffffffffffffffffffffffffffffffffffffff1916827bffffffffffffffffffffffffffffffffffffffffffffffffffffffff1916149050919050565b80471015611f7a5747816040517fcf479181000000000000000000000000000000000000000000000000000000008152600401611f7192919061451b565b60405180910390fd5b60008273ffffffffffffffffffffffffffffffffffffffff1682604051611fa0906147c9565b60006040518083038185875af1925050503d8060008114611fdd576040519150601f19603f3d011682016040523d82523d6000602084013e611fe2565b606091505b505090508061201d576040517fd6bda27500000000000000000000000000000000000000000000000000000000815260040160405180910390fd5b505050565b600073ffffffffffffffffffffffffffffffffffffffff168473ffffffffffffffffffffffffffffffffffffffff16036120945760006040517f57f447ce00000000000000000000000000000000000000000000000000000000815260040161208b9190613ab7565b60405180910390fd5b600073ffffffffffffffffffffffffffffffffffffffff168573ffffffffffffffffffffffffffffffffffffffff16036121065760006040517f01a835140000000000000000000000000000000000000000000000000000000081526004016120fd9190613ab7565b60405180910390fd5b6000806121138585612718565b915091506121248787848487612748565b50505050505050565b600033905090565b600073ffffffffffffffffffffffffffffffffffffffff168473ffffffffffffffffffffffffffffffffffffffff16036121a75760006040517f57f447ce00000000000000000000000000000000000000000000000000000000815260040161219e9190613ab7565b60405180910390fd5b600073ffffffffffffffffffffffffffffffffffffffff168573ffffffffffffffffffffffffffffffffffffffff16036122195760006040517f01a835140000000000000000000000000000000000000000000000000000000081526004016122109190613ab7565b60405180910390fd5b6122268585858585612748565b5050505050565b600073ffffffffffffffffffffffffffffffffffffffff168373ffffffffffffffffffffffffffffffffffffffff160361229f5760006040517f01a835140000000000000000000000000000000000000000000000000000000081526004016122969190613ab7565b60405180910390fd5b6000806122ac8484612718565b915091506122cd856000848460405180602001604052806000815250612748565b5050505050565b6000600b80549050905060005b818110156123955782600b82815481106122fe576122fd613f76565b5b90600052602060002001540361238857600b60018361231d9190614040565b8154811061232e5761232d613f76565b5b9060005260206000200154600b828154811061234d5761234c613f76565b5b9060005260206000200181905550600b80548061236d5761236c6147de565b5b60019003818190600052602060002001600090559055612395565b80806001019150506122e1565b505050565b6123a261212d565b73ffffffffffffffffffffffffffffffffffffffff166123c0611970565b73ffffffffffffffffffffffffffffffffffffffff161461241f576123e361212d565b6040517f118cdaa70000000000000000000000000000000000000000000000000000000081526004016124169190613ab7565b60405180910390fd5b565b600073ffffffffffffffffffffffffffffffffffffffff168473ffffffffffffffffffffffffffffffffffffffff16036124935760006040517f57f447ce00000000000000000000000000000000000000000000000000000000815260040161248a9190613ab7565b60405180910390fd5b6000806124a08585612718565b915091506124b2600087848487612748565b505050505050565b600060208202602084010151905092915050565b600060208202602084010151905092915050565b6000600360009054906101000a900473ffffffffffffffffffffffffffffffffffffffff16905081600360006101000a81548173ffffffffffffffffffffffffffffffffffffffff021916908373ffffffffffffffffffffffffffffffffffffffff1602179055508173ffffffffffffffffffffffffffffffffffffffff168173ffffffffffffffffffffffffffffffffffffffff167f8be0079c531659141344cd1fd0a4f28419497f9722a3daafe3b4186f6b6457e060405160405180910390a35050565b600073ffffffffffffffffffffffffffffffffffffffff168273ffffffffffffffffffffffffffffffffffffffff160361261a5760006040517fced3e1000000000000000000000000000000000000000000000000000000000081526004016126119190613ab7565b60405180910390fd5b80600160008573ffffffffffffffffffffffffffffffffffffffff1673ffffffffffffffffffffffffffffffffffffffff16815260200190815260200160002060008473ffffffffffffffffffffffffffffffffffffffff1673ffffffffffffffffffffffffffffffffffffffff16815260200190815260200160002060006101000a81548160ff0219169083151502179055508173ffffffffffffffffffffffffffffffffffffffff168373ffffffffffffffffffffffffffffffffffffffff167f17307eab39ab6107e8899845ad3d59bd9653f200f220920489ca2b5937696c318360405161270b91906130d6565b60405180910390a3505050565b60608060405191506001825283602083015260408201905060018152826020820152604081016040529250929050565b612754858585856127fa565b600073ffffffffffffffffffffffffffffffffffffffff168473ffffffffffffffffffffffffffffffffffffffff16146127f357600061279261212d565b905060018451036127e25760006127b36000866124ce90919063ffffffff16565b905060006127cb6000866124ce90919063ffffffff16565b90506127db838989858589612ba2565b50506127f1565b6127f0818787878787612d56565b5b505b5050505050565b805182511461284457815181516040517f5b05999100000000000000000000000000000000000000000000000000000000815260040161283b92919061451b565b60405180910390fd5b600061284e61212d565b905060005b8351811015612a5d57600061287182866124ce90919063ffffffff16565b9050600061288883866124ce90919063ffffffff16565b9050600073ffffffffffffffffffffffffffffffffffffffff168873ffffffffffffffffffffffffffffffffffffffff16146129b557600080600084815260200190815260200160002060008a73ffffffffffffffffffffffffffffffffffffffff1673ffffffffffffffffffffffffffffffffffffffff1681526020019081526020016000205490508181101561295d57888183856040517f03dee4c5000000000000000000000000000000000000000000000000000000008152600401612954949392919061480d565b60405180910390fd5b81810360008085815260200190815260200160002060008b73ffffffffffffffffffffffffffffffffffffffff1673ffffffffffffffffffffffffffffffffffffffff16815260200190815260200160002081905550505b600073ffffffffffffffffffffffffffffffffffffffff168773ffffffffffffffffffffffffffffffffffffffff1614612a50578060008084815260200190815260200160002060008973ffffffffffffffffffffffffffffffffffffffff1673ffffffffffffffffffffffffffffffffffffffff1681526020019081526020016000206000828254612a489190614852565b925050819055505b5050806001019050612853565b506001835103612b1c576000612a7d6000856124ce90919063ffffffff16565b90506000612a956000856124ce90919063ffffffff16565b90508573ffffffffffffffffffffffffffffffffffffffff168773ffffffffffffffffffffffffffffffffffffffff168473ffffffffffffffffffffffffffffffffffffffff167fc3d58168c5ae7397731d063d5bbf3d657854427343f4c083240f7aacaa2d0f628585604051612b0d92919061451b565b60405180910390a45050612b9b565b8373ffffffffffffffffffffffffffffffffffffffff168573ffffffffffffffffffffffffffffffffffffffff168273ffffffffffffffffffffffffffffffffffffffff167f4a39dc06d4c0dbc64b70af90fd698a233a518aa5d07e595d983b8c0526c8f7fb8686604051612b92929190614886565b60405180910390a45b5050505050565b60008473ffffffffffffffffffffffffffffffffffffffff163b1115612d4e578373ffffffffffffffffffffffffffffffffffffffff1663f23a6e6187878686866040518663ffffffff1660e01b8152600401612c03959493929190614912565b6020604051808303816000875af1925050508015612c3f57506040513d601f19601f82011682018060405250810190612c3c9190614981565b60015b612cc3573d8060008114612c6f576040519150601f19603f3d011682016040523d82523d6000602084013e612c74565b606091505b506000815103612cbb57846040517f57f447ce000000000000000000000000000000000000000000000000000000008152600401612cb29190613ab7565b60405180910390fd5b805181602001fd5b63f23a6e6160e01b7bffffffffffffffffffffffffffffffffffffffffffffffffffffffff1916817bffffffffffffffffffffffffffffffffffffffffffffffffffffffff191614612d4c57846040517f57f447ce000000000000000000000000000000000000000000000000000000008152600401612d439190613ab7565b60405180910390fd5b505b505050505050565b60008473ffffffffffffffffffffffffffffffffffffffff163b1115612f02578373ffffffffffffffffffffffffffffffffffffffff1663bc197c8187878686866040518663ffffffff1660e01b8152600401612db79594939291906149ae565b6020604051808303816000875af1925050508015612df357506040513d601f19601f82011682018060405250810190612df09190614981565b60015b612e77573d8060008114612e23576040519150601f19603f3d011682016040523d82523d6000602084013e612e28565b606091505b506000815103612e6f57846040517f57f447ce000000000000000000000000000000000000000000000000000000008152600401612e669190613ab7565b60405180910390fd5b805181602001fd5b63bc197c8160e01b7bffffffffffffffffffffffffffffffffffffffffffffffffffffffff1916817bffffffffffffffffffffffffffffffffffffffffffffffffffffffff191614612f0057846040517f57f447ce000000000000000000000000000000000000000000000000000000008152600401612ef79190613ab7565b60405180910390fd5b505b505050505050565b604051806040016040528060008152602001606081525090565b6000604051905090565b600080fd5b600080fd5b600073ffffffffffffffffffffffffffffffffffffffff82169050919050565b6000612f6382612f38565b9050919050565b612f7381612f58565b8114612f7e57600080fd5b50565b600081359050612f9081612f6a565b92915050565b6000819050919050565b612fa981612f96565b8114612fb457600080fd5b50565b600081359050612fc681612fa0565b92915050565b60008060408385031215612fe357612fe2612f2e565b5b6000612ff185828601612f81565b925050602061300285828601612fb7565b9150509250929050565b61301581612f96565b82525050565b6000602082019050613030600083018461300c565b92915050565b60007fffffffff0000000000000000000000000000000000000000000000000000000082169050919050565b61306b81613036565b811461307657600080fd5b50565b60008135905061308881613062565b92915050565b6000602082840312156130a4576130a3612f2e565b5b60006130b284828501613079565b91505092915050565b60008115159050919050565b6130d0816130bb565b82525050565b60006020820190506130eb60008301846130c7565b92915050565b60006020828403121561310757613106612f2e565b5b600061311584828501612fb7565b91505092915050565b600081519050919050565b600082825260208201905092915050565b60005b8381101561315857808201518184015260208101905061313d565b60008484015250505050565b6000601f19601f8301169050919050565b60006131808261311e565b61318a8185613129565b935061319a81856020860161313a565b6131a381613164565b840191505092915050565b600060208201905081810360008301526131c88184613175565b905092915050565b600080fd5b7f4e487b7100000000000000000000000000000000000000000000000000000000600052604160045260246000fd5b61320d82613164565b810181811067ffffffffffffffff8211171561322c5761322b6131d5565b5b80604052505050565b600061323f612f24565b905061324b8282613204565b919050565b600067ffffffffffffffff82111561326b5761326a6131d5565b5b602082029050602081019050919050565b600080fd5b600061329461328f84613250565b613235565b905080838252602082019050602084028301858111156132b7576132b661327c565b5b835b818110156132e057806132cc8882612fb7565b8452602084019350506020810190506132b9565b5050509392505050565b600082601f8301126132ff576132fe6131d0565b5b813561330f848260208601613281565b91505092915050565b60008060006060848603121561333157613330612f2e565b5b600084013567ffffffffffffffff81111561334f5761334e612f33565b5b61335b868287016132ea565b935050602084013567ffffffffffffffff81111561337c5761337b612f33565b5b613388868287016132ea565b925050604061339986828701612fb7565b9150509250925092565b600080fd5b600067ffffffffffffffff8211156133c3576133c26131d5565b5b6133cc82613164565b9050602081019050919050565b82818337600083830152505050565b60006133fb6133f6846133a8565b613235565b905082815260208101848484011115613417576134166133a3565b5b6134228482856133d9565b509392505050565b600082601f83011261343f5761343e6131d0565b5b813561344f8482602086016133e8565b91505092915050565b600080600080600060a0868803121561347457613473612f2e565b5b600061348288828901612f81565b955050602061349388828901612f81565b945050604086013567ffffffffffffffff8111156134b4576134b3612f33565b5b6134c0888289016132ea565b935050606086013567ffffffffffffffff8111156134e1576134e0612f33565b5b6134ed888289016132ea565b925050608086013567ffffffffffffffff81111561350e5761350d612f33565b5b61351a8882890161342a565b9150509295509295909350565b6000806040838503121561353e5761353d612f2e565b5b600061354c85828601612fb7565b925050602061355d85828601612fb7565b9150509250929050565b600067ffffffffffffffff821115613582576135816131d5565b5b61358b82613164565b9050602081019050919050565b60006135ab6135a684613567565b613235565b9050828152602081018484840111156135c7576135c66133a3565b5b6135d28482856133d9565b509392505050565b600082601f8301126135ef576135ee6131d0565b5b81356135ff848260208601613598565b91505092915050565b60008060008060008060c0878903121561362557613624612f2e565b5b600061363389828a01612fb7565b965050602061364489828a01612fb7565b955050604087013567ffffffffffffffff81111561366557613664612f33565b5b61367189828a016135da565b945050606087013567ffffffffffffffff81111561369257613691612f33565b5b61369e89828a016135da565b93505060806136af89828a01612fb7565b92505060a087013567ffffffffffffffff8111156136d0576136cf612f33565b5b6136dc89828a016135da565b9150509295509295509295565b600067ffffffffffffffff821115613704576137036131d5565b5b602082029050602081019050919050565b6000613728613723846136e9565b613235565b9050808382526020820190506020840283018581111561374b5761374a61327c565b5b835b8181101561377457806137608882612f81565b84526020840193505060208101905061374d565b5050509392505050565b600082601f830112613793576137926131d0565b5b81356137a3848260208601613715565b91505092915050565b600080604083850312156137c3576137c2612f2e565b5b600083013567ffffffffffffffff8111156137e1576137e0612f33565b5b6137ed8582860161377e565b925050602083013567ffffffffffffffff81111561380e5761380d612f33565b5b61381a858286016132ea565b9150509250929050565b600081519050919050565b600082825260208201905092915050565b6000819050602082019050919050565b61385981612f96565b82525050565b600061386b8383613850565b60208301905092915050565b6000602082019050919050565b600061388f82613824565b613899818561382f565b93506138a483613840565b8060005b838110156138d55781516138bc888261385f565b97506138c783613877565b9250506001810190506138a8565b5085935050505092915050565b600060208201905081810360008301526138fc8184613884565b905092915050565b6000806040838503121561391b5761391a612f2e565b5b600061392985828601612fb7565b925050602083013567ffffffffffffffff81111561394a57613949612f33565b5b613956858286016135da565b9150509250929050565b600081519050919050565b600082825260208201905092915050565b6000819050602082019050919050565b61399581612f58565b82525050565b60006139a7838361398c565b60208301905092915050565b6000602082019050919050565b60006139cb82613960565b6139d5818561396b565b93506139e08361397c565b8060005b83811015613a115781516139f8888261399b565b9750613a03836139b3565b9250506001810190506139e4565b5085935050505092915050565b60006020820190508181036000830152613a3881846139c0565b905092915050565b613a4981612f58565b82525050565b600060a0820190508181036000830152613a698188613175565b90508181036020830152613a7d8187613175565b9050613a8c604083018661300c565b8181036060830152613a9e8185613175565b9050613aad6080830184613a40565b9695505050505050565b6000602082019050613acc6000830184613a40565b92915050565b600081519050919050565b600082825260208201905092915050565b6000819050602082019050919050565b600082825260208201905092915050565b6000613b1a8261311e565b613b248185613afe565b9350613b3481856020860161313a565b613b3d81613164565b840191505092915050565b6000613b548383613b0f565b905092915050565b6000602082019050919050565b6000613b7482613ad2565b613b7e8185613add565b935083602082028501613b9085613aee565b8060005b85811015613bcc5784840389528151613bad8582613b48565b9450613bb883613b5c565b925060208a01995050600181019050613b94565b50829750879550505050505092915050565b60006020820190508181036000830152613bf88184613b69565b905092915050565b613c09816130bb565b8114613c1457600080fd5b50565b600081359050613c2681613c00565b92915050565b60008060408385031215613c4357613c42612f2e565b5b6000613c5185828601612f81565b9250506020613c6285828601613c17565b9150509250929050565b600082825260208201905092915050565b6000613c8882613824565b613c928185613c6c565b9350613c9d83613840565b8060005b83811015613cce578151613cb5888261385f565b9750613cc083613877565b925050600181019050613ca1565b5085935050505092915050565b6000604083016000830151613cf36000860182613850565b5060208301518482036020860152613d0b8282613c7d565b9150508091505092915050565b60006020820190508181036000830152613d328184613cdb565b905092915050565b60008060408385031215613d5157613d50612f2e565b5b6000613d5f85828601612f81565b9250506020613d7085828601612f81565b9150509250929050565b600080600080600060a08688031215613d9657613d95612f2e565b5b6000613da488828901612f81565b9550506020613db588828901612f81565b9450506040613dc688828901612fb7565b9350506060613dd788828901612fb7565b925050608086013567ffffffffffffffff811115613df857613df7612f33565b5b613e048882890161342a565b9150509295509295909350565b600060208284031215613e2757613e26612f2e565b5b6000613e3584828501612f81565b91505092915050565b7f4e487b7100000000000000000000000000000000000000000000000000000000600052602260045260246000fd5b60006002820490506001821680613e8557607f821691505b602082108103613e9857613e97613e3e565b5b50919050565b7f4d69736d61746368656420696e70757473000000000000000000000000000000600082015250565b6000613ed4601183613129565b9150613edf82613e9e565b602082019050919050565b60006020820190508181036000830152613f0381613ec7565b9050919050565b7f496e636f72726563742045544820616d6f756e74000000000000000000000000600082015250565b6000613f40601483613129565b9150613f4b82613f0a565b602082019050919050565b60006020820190508181036000830152613f6f81613f33565b9050919050565b7f4e487b7100000000000000000000000000000000000000000000000000000000600052603260045260246000fd5b7f496e73756666696369656e7420746f6b656e207175616e746974790000000000600082015250565b6000613fdb601b83613129565b9150613fe682613fa5565b602082019050919050565b6000602082019050818103600083015261400a81613fce565b9050919050565b7f4e487b7100000000000000000000000000000000000000000000000000000000600052601160045260246000fd5b600061404b82612f96565b915061405683612f96565b925082820390508181111561406e5761406d614011565b5b92915050565b7f53414c4500000000000000000000000000000000000000000000000000000000600082015250565b60006140aa600483613129565b91506140b582614074565b602082019050919050565b600060408201905081810360008301526140d98161409d565b90506140e8602083018461300c565b92915050565b60006040820190506141036000830185613a40565b6141106020830184613a40565b9392505050565b7f4f6e6c79207468652063757272656e74206f776e65722063616e206275726e2060008201527f7468697320746f6b656e00000000000000000000000000000000000000000000602082015250565b6000614173602a83613129565b915061417e82614117565b604082019050919050565b600060208201905081810360008301526141a281614166565b9050919050565b60008190508160005260206000209050919050565b60006020601f8301049050919050565b600082821b905092915050565b60006008830261420b7fffffffffffffffffffffffffffffffffffffffffffffffffffffffffffffffff826141ce565b61421586836141ce565b95508019841693508086168417925050509392505050565b6000819050919050565b600061425261424d61424884612f96565b61422d565b612f96565b9050919050565b6000819050919050565b61426c83614237565b61428061427882614259565b8484546141db565b825550505050565b600090565b614295614288565b6142a0818484614263565b505050565b5b818110156142c4576142b960008261428d565b6001810190506142a6565b5050565b601f821115614309576142da816141a9565b6142e3846141be565b810160208510156142f2578190505b6143066142fe856141be565b8301826142a5565b50505b505050565b600082821c905092915050565b600061432c6000198460080261430e565b1980831691505092915050565b6000614345838361431b565b9150826002028217905092915050565b61435e8261311e565b67ffffffffffffffff811115614377576143766131d5565b5b6143818254613e6d565b61438c8282856142c8565b600060209050601f8311600181146143bf57600084156143ad578287015190505b6143b78582614339565b86555061441f565b601f1984166143cd866141a9565b60005b828110156143f5578489015182556001820191506020850194506020810190506143d0565b86831015614412578489015161440e601f89168261431b565b8355505b6001600288020188555050505b505050505050565b7f4255524e00000000000000000000000000000000000000000000000000000000600082015250565b600061445d600483613129565b915061446882614427565b602082019050919050565b6000604082019050818103600083015261448c81614450565b905061449b602083018461300c565b92915050565b7f4d494e5400000000000000000000000000000000000000000000000000000000600082015250565b60006144d7600483613129565b91506144e2826144a1565b602082019050919050565b60006040820190508181036000830152614506816144ca565b9050614515602083018461300c565b92915050565b6000604082019050614530600083018561300c565b61453d602083018461300c565b9392505050565b7f5550444154455f4d455441444154410000000000000000000000000000000000600082015250565b600061457a600f83613129565b915061458582614544565b602082019050919050565b600060408201905081810360008301526145a98161456d565b90506145b8602083018461300c565b92915050565b7f5550444154455f50524943450000000000000000000000000000000000000000600082015250565b60006145f4600c83613129565b91506145ff826145be565b602082019050919050565b60006040820190508181036000830152614623816145e7565b9050614632602083018461300c565b92915050565b7f5175616e74697479206d757374206265206e6f6e2d6e65676174697665000000600082015250565b600061466e601d83613129565b915061467982614638565b602082019050919050565b6000602082019050818103600083015261469d81614661565b9050919050565b7f5550444154455f5155414e544954590000000000000000000000000000000000600082015250565b60006146da600f83613129565b91506146e5826146a4565b602082019050919050565b60006040820190508181036000830152614709816146cd565b9050614718602083018461300c565b92915050565b7f5550444154455f53544154555300000000000000000000000000000000000000600082015250565b6000614754600d83613129565b915061475f8261471e565b602082019050919050565b6000604082019050818103600083015261478381614747565b9050614792602083018461300c565b92915050565b600081905092915050565b50565b60006147b3600083614798565b91506147be826147a3565b600082019050919050565b60006147d4826147a6565b9150819050919050565b7f4e487b7100000000000000000000000000000000000000000000000000000000600052603160045260246000fd5b60006080820190506148226000830187613a40565b61482f602083018661300c565b61483c604083018561300c565b614849606083018461300c565b95945050505050565b600061485d82612f96565b915061486883612f96565b92508282019050808211156148805761487f614011565b5b92915050565b600060408201905081810360008301526148a08185613884565b905081810360208301526148b48184613884565b90509392505050565b600081519050919050565b600082825260208201905092915050565b60006148e4826148bd565b6148ee81856148c8565b93506148fe81856020860161313a565b61490781613164565b840191505092915050565b600060a0820190506149276000830188613a40565b6149346020830187613a40565b614941604083018661300c565b61494e606083018561300c565b818103608083015261496081846148d9565b90509695505050505050565b60008151905061497b81613062565b92915050565b60006020828403121561499757614996612f2e565b5b60006149a58482850161496c565b91505092915050565b600060a0820190506149c36000830188613a40565b6149d06020830187613a40565b81810360408301526149e28186613884565b905081810360608301526149f68185613884565b90508181036080830152614a0a81846148d9565b9050969550505050505056fea2646970667358221220cdaf9c800aa3ce05d0234ada17a18cf011c466839da64338bfb412c9599b7ae964736f6c634300081b0033",
  "linkReferences": {},
  "deployedLinkReferences": {}
}