{
  "_format": "hh-sol-artifact-1",
  "contractName": "ProductRegistry",
  "sourceName": "contracts/Product.sol",
  "abi": [
    {
      "anonymous": false,
      "inputs": [
        {
          "indexed": true,
          "internalType": "string",
          "name": "id",
          "type": "string"
        },
        {
          "indexed": false,
          "internalType": "string",
          "name": "name",
          "type": "string"
        },
        {
          "indexed": false,
          "internalType": "string",
          "name": "price",
          "type": "string"
        },
        {
          "indexed": false,
          "internalType": "bytes32",
          "name": "blockHash",
          "type": "bytes32"
        }
      ],
      "name": "ProductAdded",
      "type": "event"
    },
    {
      "anonymous": false,
      "inputs": [
        {
          "indexed": true,
          "internalType": "string",
          "name": "id",
          "type": "string"
        },
        {
          "indexed": false,
          "internalType": "string",
          "name": "name",
          "type": "string"
        },
        {
          "indexed": false,
          "internalType": "string",
          "name": "price",
          "type": "string"
        }
      ],
      "name": "ProductUpdated",
      "type": "event"
    },
    {
      "inputs": [
        {
          "internalType": "string",
          "name": "_id",
          "type": "string"
        },
        {
          "internalType": "string",
          "name": "_name",
          "type": "string"
        },
        {
          "internalType": "string",
          "name": "_description",
          "type": "string"
        },
        {
          "internalType": "string",
          "name": "_price",
          "type": "string"
        },
        {
          "internalType": "uint256",
          "name": "_quantity",
          "type": "uint256"
        },
        {
          "internalType": "string",
          "name": "_brand",
          "type": "string"
        },
        {
          "internalType": "string",
          "name": "_category",
          "type": "string"
        },
        {
          "internalType": "string",
          "name": "_size",
          "type": "string"
        },
        {
          "internalType": "string",
          "name": "_status",
          "type": "string"
        },
        {
          "internalType": "string",
          "name": "_store",
          "type": "string"
        },
        {
          "internalType": "string[]",
          "name": "_cids",
          "type": "string[]"
        }
      ],
      "name": "addProduct",
      "outputs": [],
      "stateMutability": "nonpayable",
      "type": "function"
    },
    {
      "inputs": [],
      "name": "getAllProducts",
      "outputs": [
        {
          "components": [
            {
              "internalType": "string",
              "name": "id",
              "type": "string"
            },
            {
              "internalType": "string",
              "name": "name",
              "type": "string"
            },
            {
              "internalType": "string",
              "name": "description",
              "type": "string"
            },
            {
              "internalType": "string",
              "name": "price",
              "type": "string"
            },
            {
              "internalType": "uint256",
              "name": "quantity",
              "type": "uint256"
            },
            {
              "internalType": "string",
              "name": "brand",
              "type": "string"
            },
            {
              "internalType": "string",
              "name": "category",
              "type": "string"
            },
            {
              "internalType": "string",
              "name": "size",
              "type": "string"
            },
            {
              "internalType": "string",
              "name": "status",
              "type": "string"
            },
            {
              "internalType": "string",
              "name": "store",
              "type": "string"
            },
            {
              "internalType": "string[]",
              "name": "cids",
              "type": "string[]"
            },
            {
              "internalType": "address",
              "name": "creator",
              "type": "address"
            }
          ],
          "internalType": "struct ProductRegistry.Product[]",
          "name": "",
          "type": "tuple[]"
        }
      ],
      "stateMutability": "view",
      "type": "function"
    },
    {
      "inputs": [
        {
          "internalType": "string",
          "name": "_id",
          "type": "string"
        }
      ],
      "name": "getProduct",
      "outputs": [
        {
          "internalType": "string",
          "name": "name",
          "type": "string"
        },
        {
          "internalType": "string",
          "name": "description",
          "type": "string"
        },
        {
          "internalType": "string",
          "name": "price",
          "type": "string"
        },
        {
          "internalType": "uint256",
          "name": "quantity",
          "type": "uint256"
        },
        {
          "internalType": "string",
          "name": "brand",
          "type": "string"
        },
        {
          "internalType": "string",
          "name": "category",
          "type": "string"
        },
        {
          "internalType": "string",
          "name": "size",
          "type": "string"
        },
        {
          "internalType": "string",
          "name": "status",
          "type": "string"
        },
        {
          "internalType": "string",
          "name": "store",
          "type": "string"
        },
        {
          "internalType": "string[]",
          "name": "cids",
          "type": "string[]"
        },
        {
          "internalType": "address",
          "name": "creator",
          "type": "address"
        }
      ],
      "stateMutability": "view",
      "type": "function"
    },
    {
      "inputs": [
        {
          "internalType": "string",
          "name": "_id",
          "type": "string"
        },
        {
          "internalType": "string",
          "name": "_name",
          "type": "string"
        },
        {
          "internalType": "string",
          "name": "_description",
          "type": "string"
        },
        {
          "internalType": "string",
          "name": "_price",
          "type": "string"
        },
        {
          "internalType": "uint256",
          "name": "_quantity",
          "type": "uint256"
        },
        {
          "internalType": "string",
          "name": "_brand",
          "type": "string"
        },
        {
          "internalType": "string",
          "name": "_category",
          "type": "string"
        },
        {
          "internalType": "string",
          "name": "_size",
          "type": "string"
        },
        {
          "internalType": "string",
          "name": "_status",
          "type": "string"
        },
        {
          "internalType": "string",
          "name": "_store",
          "type": "string"
        },
        {
          "internalType": "string[]",
          "name": "_cids",
          "type": "string[]"
        }
      ],
      "name": "updateProduct",
      "outputs": [],
      "stateMutability": "nonpayable",
      "type": "function"
    }
  ],
  "bytecode": "0x6080604052348015600f57600080fd5b506125078061001f6000396000f3fe608060405234801561001057600080fd5b506004361061004c5760003560e01c806302ee3a5214610051578063430a162e1461006f57806368111cce1461008b57806373927cd8146100c5575b600080fd5b6100596100e1565b60405161006691906118c0565b60405180910390f35b61008960048036038101906100849190611b3d565b610825565b005b6100a560048036038101906100a09190611d49565b610ab1565b6040516100bc9b9a99989796959493929190611e80565b60405180910390f35b6100df60048036038101906100da9190611b3d565b6110fa565b005b6060600060018054905067ffffffffffffffff81111561010457610103611900565b5b60405190808252806020026020018201604052801561013d57816020015b61012a6113be565b8152602001906001900390816101225790505b50905060005b60018054905081101561081d5760006001828154811061016657610165611f6a565b5b9060005260206000200160405161017d919061209c565b9081526020016040518091039020604051806101800160405290816000820180546101a790611fc8565b80601f01602080910402602001604051908101604052809291908181526020018280546101d390611fc8565b80156102205780601f106101f557610100808354040283529160200191610220565b820191906000526020600020905b81548152906001019060200180831161020357829003601f168201915b5050505050815260200160018201805461023990611fc8565b80601f016020809104026020016040519081016040528092919081815260200182805461026590611fc8565b80156102b25780601f10610287576101008083540402835291602001916102b2565b820191906000526020600020905b81548152906001019060200180831161029557829003601f168201915b505050505081526020016002820180546102cb90611fc8565b80601f01602080910402602001604051908101604052809291908181526020018280546102f790611fc8565b80156103445780601f1061031957610100808354040283529160200191610344565b820191906000526020600020905b81548152906001019060200180831161032757829003601f168201915b5050505050815260200160038201805461035d90611fc8565b80601f016020809104026020016040519081016040528092919081815260200182805461038990611fc8565b80156103d65780601f106103ab576101008083540402835291602001916103d6565b820191906000526020600020905b8154815290600101906020018083116103b957829003601f168201915b50505050508152602001600482015481526020016005820180546103f990611fc8565b80601f016020809104026020016040519081016040528092919081815260200182805461042590611fc8565b80156104725780601f1061044757610100808354040283529160200191610472565b820191906000526020600020905b81548152906001019060200180831161045557829003601f168201915b5050505050815260200160068201805461048b90611fc8565b80601f01602080910402602001604051908101604052809291908181526020018280546104b790611fc8565b80156105045780601f106104d957610100808354040283529160200191610504565b820191906000526020600020905b8154815290600101906020018083116104e757829003601f168201915b5050505050815260200160078201805461051d90611fc8565b80601f016020809104026020016040519081016040528092919081815260200182805461054990611fc8565b80156105965780601f1061056b57610100808354040283529160200191610596565b820191906000526020600020905b81548152906001019060200180831161057957829003601f168201915b505050505081526020016008820180546105af90611fc8565b80601f01602080910402602001604051908101604052809291908181526020018280546105db90611fc8565b80156106285780601f106105fd57610100808354040283529160200191610628565b820191906000526020600020905b81548152906001019060200180831161060b57829003601f168201915b5050505050815260200160098201805461064190611fc8565b80601f016020809104026020016040519081016040528092919081815260200182805461066d90611fc8565b80156106ba5780601f1061068f576101008083540402835291602001916106ba565b820191906000526020600020905b81548152906001019060200180831161069d57829003601f168201915b50505050508152602001600a8201805480602002602001604051908101604052809291908181526020016000905b8282101561079457838290600052602060002001805461070790611fc8565b80601f016020809104026020016040519081016040528092919081815260200182805461073390611fc8565b80156107805780601f1061075557610100808354040283529160200191610780565b820191906000526020600020905b81548152906001019060200180831161076357829003601f168201915b5050505050815260200190600101906106e8565b505050508152602001600b820160009054906101000a900473ffffffffffffffffffffffffffffffffffffffff1673ffffffffffffffffffffffffffffffffffffffff1673ffffffffffffffffffffffffffffffffffffffff168152505082828151811061080557610804611f6a565b5b60200260200101819052508080600101915050610143565b508091505090565b6000808c60405161083691906120e4565b9081526020016040518091039020600001805461085290611fc8565b905003610894576040517f08c379a000000000000000000000000000000000000000000000000000000000815260040161088b90612147565b60405180910390fd5b6040518061018001604052808c81526020018b81526020018a81526020018981526020018881526020018781526020018681526020018581526020018481526020018381526020018281526020013373ffffffffffffffffffffffffffffffffffffffff1681525060008c60405161090c91906120e4565b9081526020016040518091039020600082015181600001908161092f91906122fe565b50602082015181600101908161094591906122fe565b50604082015181600201908161095b91906122fe565b50606082015181600301908161097191906122fe565b506080820151816004015560a082015181600501908161099191906122fe565b5060c08201518160060190816109a791906122fe565b5060e08201518160070190816109bd91906122fe565b506101008201518160080190816109d491906122fe565b506101208201518160090190816109eb91906122fe565b5061014082015181600a019080519060200190610a09929190611435565b5061016082015181600b0160006101000a81548173ffffffffffffffffffffffffffffffffffffffff021916908373ffffffffffffffffffffffffffffffffffffffff1602179055509050508a604051610a6391906120e4565b60405180910390207f1670a9b4e3ac0933e134251494c9dce2d2bed6f1978cad1e306e10e9229997758b8a604051610a9c9291906123d0565b60405180910390a25050505050505050505050565b6060806060600060608060608060608060008060008d604051610ad491906120e4565b90815260200160405180910390206000018054610af090611fc8565b905003610b32576040517f08c379a0000000000000000000000000000000000000000000000000000000008152600401610b2990612147565b60405180910390fd5b6000808d604051610b4391906120e4565b908152602001604051809103902090508060010181600201826003018360040154846005018560060186600701876008018860090189600a018a600b0160009054906101000a900473ffffffffffffffffffffffffffffffffffffffff168a8054610bad90611fc8565b80601f0160208091040260200160405190810160405280929190818152602001828054610bd990611fc8565b8015610c265780601f10610bfb57610100808354040283529160200191610c26565b820191906000526020600020905b815481529060010190602001808311610c0957829003601f168201915b50505050509a50898054610c3990611fc8565b80601f0160208091040260200160405190810160405280929190818152602001828054610c6590611fc8565b8015610cb25780601f10610c8757610100808354040283529160200191610cb2565b820191906000526020600020905b815481529060010190602001808311610c9557829003601f168201915b50505050509950888054610cc590611fc8565b80601f0160208091040260200160405190810160405280929190818152602001828054610cf190611fc8565b8015610d3e5780601f10610d1357610100808354040283529160200191610d3e565b820191906000526020600020905b815481529060010190602001808311610d2157829003601f168201915b50505050509850868054610d5190611fc8565b80601f0160208091040260200160405190810160405280929190818152602001828054610d7d90611fc8565b8015610dca5780601f10610d9f57610100808354040283529160200191610dca565b820191906000526020600020905b815481529060010190602001808311610dad57829003601f168201915b50505050509650858054610ddd90611fc8565b80601f0160208091040260200160405190810160405280929190818152602001828054610e0990611fc8565b8015610e565780601f10610e2b57610100808354040283529160200191610e56565b820191906000526020600020905b815481529060010190602001808311610e3957829003601f168201915b50505050509550848054610e6990611fc8565b80601f0160208091040260200160405190810160405280929190818152602001828054610e9590611fc8565b8015610ee25780601f10610eb757610100808354040283529160200191610ee2565b820191906000526020600020905b815481529060010190602001808311610ec557829003601f168201915b50505050509450838054610ef590611fc8565b80601f0160208091040260200160405190810160405280929190818152602001828054610f2190611fc8565b8015610f6e5780601f10610f4357610100808354040283529160200191610f6e565b820191906000526020600020905b815481529060010190602001808311610f5157829003601f168201915b50505050509350828054610f8190611fc8565b80601f0160208091040260200160405190810160405280929190818152602001828054610fad90611fc8565b8015610ffa5780601f10610fcf57610100808354040283529160200191610ffa565b820191906000526020600020905b815481529060010190602001808311610fdd57829003601f168201915b5050505050925081805480602002602001604051908101604052809291908181526020016000905b828210156110ce57838290600052602060002001805461104190611fc8565b80601f016020809104026020016040519081016040528092919081815260200182805461106d90611fc8565b80156110ba5780601f1061108f576101008083540402835291602001916110ba565b820191906000526020600020905b81548152906001019060200180831161109d57829003601f168201915b505050505081526020019060010190611022565b5050505091509b509b509b509b509b509b509b509b509b509b509b505091939597999b90929496989a50565b6000808c60405161110b91906120e4565b9081526020016040518091039020600001805461112790611fc8565b905014611169576040517f08c379a000000000000000000000000000000000000000000000000000000000815260040161116090612453565b60405180910390fd5b6040518061018001604052808c81526020018b81526020018a81526020018981526020018881526020018781526020018681526020018581526020018481526020018381526020018281526020013373ffffffffffffffffffffffffffffffffffffffff1681525060008c6040516111e191906120e4565b9081526020016040518091039020600082015181600001908161120491906122fe565b50602082015181600101908161121a91906122fe565b50604082015181600201908161123091906122fe565b50606082015181600301908161124691906122fe565b506080820151816004015560a082015181600501908161126691906122fe565b5060c082015181600601908161127c91906122fe565b5060e082015181600701908161129291906122fe565b506101008201518160080190816112a991906122fe565b506101208201518160090190816112c091906122fe565b5061014082015181600a0190805190602001906112de929190611435565b5061016082015181600b0160006101000a81548173ffffffffffffffffffffffffffffffffffffffff021916908373ffffffffffffffffffffffffffffffffffffffff16021790555090505060018b90806001815401808255809150506001900390600052602060002001600090919091909150908161135e91906122fe565b508a60405161136d91906120e4565b60405180910390207f1bf01a8b4d11ca2f143fcede160ca96e5fe22868258f14b4a68ea0c9b0c922468b8a43406040516113a99392919061248c565b60405180910390a25050505050505050505050565b6040518061018001604052806060815260200160608152602001606081526020016060815260200160008152602001606081526020016060815260200160608152602001606081526020016060815260200160608152602001600073ffffffffffffffffffffffffffffffffffffffff1681525090565b82805482825590600052602060002090810192821561147d579160200282015b8281111561147c57825182908161146c91906122fe565b5091602001919060010190611455565b5b50905061148a919061148e565b5090565b5b808211156114ae57600081816114a591906114b2565b5060010161148f565b5090565b5080546114be90611fc8565b6000825580601f106114d057506114ef565b601f0160209004906000526020600020908101906114ee91906114f2565b5b50565b5b8082111561150b5760008160009055506001016114f3565b5090565b600081519050919050565b600082825260208201905092915050565b6000819050602082019050919050565b600081519050919050565b600082825260208201905092915050565b60005b8381101561157557808201518184015260208101905061155a565b60008484015250505050565b6000601f19601f8301169050919050565b600061159d8261153b565b6115a78185611546565b93506115b7818560208601611557565b6115c081611581565b840191505092915050565b6000819050919050565b6115de816115cb565b82525050565b600081519050919050565b600082825260208201905092915050565b6000819050602082019050919050565b600061161c8383611592565b905092915050565b6000602082019050919050565b600061163c826115e4565b61164681856115ef565b93508360208202850161165885611600565b8060005b8581101561169457848403895281516116758582611610565b945061168083611624565b925060208a0199505060018101905061165c565b50829750879550505050505092915050565b600073ffffffffffffffffffffffffffffffffffffffff82169050919050565b60006116d1826116a6565b9050919050565b6116e1816116c6565b82525050565b60006101808301600083015184820360008601526117058282611592565b9150506020830151848203602086015261171f8282611592565b915050604083015184820360408601526117398282611592565b915050606083015184820360608601526117538282611592565b915050608083015161176860808601826115d5565b5060a083015184820360a08601526117808282611592565b91505060c083015184820360c086015261179a8282611592565b91505060e083015184820360e08601526117b48282611592565b9150506101008301518482036101008601526117d08282611592565b9150506101208301518482036101208601526117ec8282611592565b9150506101408301518482036101408601526118088282611631565b91505061016083015161181f6101608601826116d8565b508091505092915050565b600061183683836116e7565b905092915050565b6000602082019050919050565b60006118568261150f565b611860818561151a565b9350836020820285016118728561152b565b8060005b858110156118ae578484038952815161188f858261182a565b945061189a8361183e565b925060208a01995050600181019050611876565b50829750879550505050505092915050565b600060208201905081810360008301526118da818461184b565b905092915050565b6000604051905090565b600080fd5b600080fd5b600080fd5b600080fd5b7f4e487b7100000000000000000000000000000000000000000000000000000000600052604160045260246000fd5b61193882611581565b810181811067ffffffffffffffff8211171561195757611956611900565b5b80604052505050565b600061196a6118e2565b9050611976828261192f565b919050565b600067ffffffffffffffff82111561199657611995611900565b5b61199f82611581565b9050602081019050919050565b82818337600083830152505050565b60006119ce6119c98461197b565b611960565b9050828152602081018484840111156119ea576119e96118fb565b5b6119f58482856119ac565b509392505050565b600082601f830112611a1257611a116118f6565b5b8135611a228482602086016119bb565b91505092915050565b611a34816115cb565b8114611a3f57600080fd5b50565b600081359050611a5181611a2b565b92915050565b600067ffffffffffffffff821115611a7257611a71611900565b5b602082029050602081019050919050565b600080fd5b6000611a9b611a9684611a57565b611960565b90508083825260208201905060208402830185811115611abe57611abd611a83565b5b835b81811015611b0557803567ffffffffffffffff811115611ae357611ae26118f6565b5b808601611af089826119fd565b85526020850194505050602081019050611ac0565b5050509392505050565b600082601f830112611b2457611b236118f6565b5b8135611b34848260208601611a88565b91505092915050565b60008060008060008060008060008060006101608c8e031215611b6357611b626118ec565b5b60008c013567ffffffffffffffff811115611b8157611b806118f1565b5b611b8d8e828f016119fd565b9b505060208c013567ffffffffffffffff811115611bae57611bad6118f1565b5b611bba8e828f016119fd565b9a505060408c013567ffffffffffffffff811115611bdb57611bda6118f1565b5b611be78e828f016119fd565b99505060608c013567ffffffffffffffff811115611c0857611c076118f1565b5b611c148e828f016119fd565b9850506080611c258e828f01611a42565b97505060a08c013567ffffffffffffffff811115611c4657611c456118f1565b5b611c528e828f016119fd565b96505060c08c013567ffffffffffffffff811115611c7357611c726118f1565b5b611c7f8e828f016119fd565b95505060e08c013567ffffffffffffffff811115611ca057611c9f6118f1565b5b611cac8e828f016119fd565b9450506101008c013567ffffffffffffffff811115611cce57611ccd6118f1565b5b611cda8e828f016119fd565b9350506101208c013567ffffffffffffffff811115611cfc57611cfb6118f1565b5b611d088e828f016119fd565b9250506101408c013567ffffffffffffffff811115611d2a57611d296118f1565b5b611d368e828f01611b0f565b9150509295989b509295989b9093969950565b600060208284031215611d5f57611d5e6118ec565b5b600082013567ffffffffffffffff811115611d7d57611d7c6118f1565b5b611d89848285016119fd565b91505092915050565b600082825260208201905092915050565b6000611dae8261153b565b611db88185611d92565b9350611dc8818560208601611557565b611dd181611581565b840191505092915050565b611de5816115cb565b82525050565b600082825260208201905092915050565b6000611e07826115e4565b611e118185611deb565b935083602082028501611e2385611600565b8060005b85811015611e5f5784840389528151611e408582611610565b9450611e4b83611624565b925060208a01995050600181019050611e27565b50829750879550505050505092915050565b611e7a816116c6565b82525050565b6000610160820190508181036000830152611e9b818e611da3565b90508181036020830152611eaf818d611da3565b90508181036040830152611ec3818c611da3565b9050611ed2606083018b611ddc565b8181036080830152611ee4818a611da3565b905081810360a0830152611ef88189611da3565b905081810360c0830152611f0c8188611da3565b905081810360e0830152611f208187611da3565b9050818103610100830152611f358186611da3565b9050818103610120830152611f4a8185611dfc565b9050611f5a610140830184611e71565b9c9b505050505050505050505050565b7f4e487b7100000000000000000000000000000000000000000000000000000000600052603260045260246000fd5b7f4e487b7100000000000000000000000000000000000000000000000000000000600052602260045260246000fd5b60006002820490506001821680611fe057607f821691505b602082108103611ff357611ff2611f99565b5b50919050565b600081905092915050565b60008190508160005260206000209050919050565b6000815461202681611fc8565b6120308186611ff9565b9450600182166000811461204b576001811461206057612093565b60ff1983168652811515820286019350612093565b61206985612004565b60005b8381101561208b5781548189015260018201915060208101905061206c565b838801955050505b50505092915050565b60006120a88284612019565b915081905092915050565b60006120be8261153b565b6120c88185611ff9565b93506120d8818560208601611557565b80840191505092915050565b60006120f082846120b3565b915081905092915050565b7f50726f64756374206e6f7420666f756e64000000000000000000000000000000600082015250565b6000612131601183611d92565b915061213c826120fb565b602082019050919050565b6000602082019050818103600083015261216081612124565b9050919050565b60006020601f8301049050919050565b600082821b905092915050565b6000600883026121b47fffffffffffffffffffffffffffffffffffffffffffffffffffffffffffffffff82612177565b6121be8683612177565b95508019841693508086168417925050509392505050565b6000819050919050565b60006121fb6121f66121f1846115cb565b6121d6565b6115cb565b9050919050565b6000819050919050565b612215836121e0565b61222961222182612202565b848454612184565b825550505050565b600090565b61223e612231565b61224981848461220c565b505050565b5b8181101561226d57612262600082612236565b60018101905061224f565b5050565b601f8211156122b25761228381612004565b61228c84612167565b8101602085101561229b578190505b6122af6122a785612167565b83018261224e565b50505b505050565b600082821c905092915050565b60006122d5600019846008026122b7565b1980831691505092915050565b60006122ee83836122c4565b9150826002028217905092915050565b6123078261153b565b67ffffffffffffffff8111156123205761231f611900565b5b61232a8254611fc8565b612335828285612271565b600060209050601f8311600181146123685760008415612356578287015190505b61236085826122e2565b8655506123c8565b601f19841661237686612004565b60005b8281101561239e57848901518255600182019150602085019450602081019050612379565b868310156123bb57848901516123b7601f8916826122c4565b8355505b6001600288020188555050505b505050505050565b600060408201905081810360008301526123ea8185611da3565b905081810360208301526123fe8184611da3565b90509392505050565b7f50726f6475637420494420616c72656164792065786973747300000000000000600082015250565b600061243d601983611d92565b915061244882612407565b602082019050919050565b6000602082019050818103600083015261246c81612430565b9050919050565b6000819050919050565b61248681612473565b82525050565b600060608201905081810360008301526124a68186611da3565b905081810360208301526124ba8185611da3565b90506124c9604083018461247d565b94935050505056fea264697066735822122040bb9d29f352eadd232f2c1ea8e0e10686b70b284c8caedd7f2b09eb737d648264736f6c634300081b0033",
  "linkReferences": {},
  "deployedLinkReferences": {}
}