{
  "_format": "hh-sol-artifact-1",
  "contractName": "ProductRegistry",
  "sourceName": "contracts/Product.sol",
  "abi": [
    {
      "anonymous": false,
      "inputs": [
        {
          "indexed": true,
          "internalType": "string",
          "name": "id",
          "type": "string"
        },
        {
          "indexed": false,
          "internalType": "string",
          "name": "name",
          "type": "string"
        },
        {
          "indexed": false,
          "internalType": "string",
          "name": "price",
          "type": "string"
        },
        {
          "indexed": false,
          "internalType": "bytes32",
          "name": "blockHash",
          "type": "bytes32"
        }
      ],
      "name": "ProductAdded",
      "type": "event"
    },
    {
      "anonymous": false,
      "inputs": [
        {
          "indexed": true,
          "internalType": "string",
          "name": "id",
          "type": "string"
        },
        {
          "indexed": false,
          "internalType": "string",
          "name": "name",
          "type": "string"
        },
        {
          "indexed": false,
          "internalType": "string",
          "name": "price",
          "type": "string"
        }
      ],
      "name": "ProductUpdated",
      "type": "event"
    },
    {
      "inputs": [
        {
          "internalType": "string",
          "name": "_id",
          "type": "string"
        },
        {
          "internalType": "string",
          "name": "_name",
          "type": "string"
        },
        {
          "internalType": "string",
          "name": "_description",
          "type": "string"
        },
        {
          "internalType": "string",
          "name": "_price",
          "type": "string"
        },
        {
          "internalType": "uint256",
          "name": "_quantity",
          "type": "uint256"
        },
        {
          "internalType": "string",
          "name": "_brand",
          "type": "string"
        },
        {
          "internalType": "string",
          "name": "_category",
          "type": "string"
        },
        {
          "internalType": "string",
          "name": "_size",
          "type": "string"
        },
        {
          "internalType": "string",
          "name": "_status",
          "type": "string"
        },
        {
          "internalType": "string[]",
          "name": "_cids",
          "type": "string[]"
        }
      ],
      "name": "addProduct",
      "outputs": [],
      "stateMutability": "nonpayable",
      "type": "function"
    },
    {
      "inputs": [],
      "name": "getAllProducts",
      "outputs": [
        {
          "components": [
            {
              "internalType": "string",
              "name": "id",
              "type": "string"
            },
            {
              "internalType": "string",
              "name": "name",
              "type": "string"
            },
            {
              "internalType": "string",
              "name": "description",
              "type": "string"
            },
            {
              "internalType": "string",
              "name": "price",
              "type": "string"
            },
            {
              "internalType": "uint256",
              "name": "quantity",
              "type": "uint256"
            },
            {
              "internalType": "string",
              "name": "brand",
              "type": "string"
            },
            {
              "internalType": "string",
              "name": "category",
              "type": "string"
            },
            {
              "internalType": "string",
              "name": "size",
              "type": "string"
            },
            {
              "internalType": "string",
              "name": "status",
              "type": "string"
            },
            {
              "internalType": "string[]",
              "name": "cids",
              "type": "string[]"
            },
            {
              "internalType": "address",
              "name": "creator",
              "type": "address"
            }
          ],
          "internalType": "struct ProductRegistry.Product[]",
          "name": "",
          "type": "tuple[]"
        }
      ],
      "stateMutability": "view",
      "type": "function"
    },
    {
      "inputs": [
        {
          "internalType": "string",
          "name": "_id",
          "type": "string"
        }
      ],
      "name": "getProduct",
      "outputs": [
        {
          "internalType": "string",
          "name": "name",
          "type": "string"
        },
        {
          "internalType": "string",
          "name": "description",
          "type": "string"
        },
        {
          "internalType": "string",
          "name": "price",
          "type": "string"
        },
        {
          "internalType": "uint256",
          "name": "quantity",
          "type": "uint256"
        },
        {
          "internalType": "string",
          "name": "brand",
          "type": "string"
        },
        {
          "internalType": "string",
          "name": "category",
          "type": "string"
        },
        {
          "internalType": "string",
          "name": "size",
          "type": "string"
        },
        {
          "internalType": "string",
          "name": "status",
          "type": "string"
        },
        {
          "internalType": "string[]",
          "name": "cids",
          "type": "string[]"
        },
        {
          "internalType": "address",
          "name": "creator",
          "type": "address"
        }
      ],
      "stateMutability": "view",
      "type": "function"
    },
    {
      "inputs": [
        {
          "internalType": "string",
          "name": "_id",
          "type": "string"
        },
        {
          "internalType": "string",
          "name": "_name",
          "type": "string"
        },
        {
          "internalType": "string",
          "name": "_description",
          "type": "string"
        },
        {
          "internalType": "string",
          "name": "_price",
          "type": "string"
        },
        {
          "internalType": "uint256",
          "name": "_quantity",
          "type": "uint256"
        },
        {
          "internalType": "string",
          "name": "_brand",
          "type": "string"
        },
        {
          "internalType": "string",
          "name": "_category",
          "type": "string"
        },
        {
          "internalType": "string",
          "name": "_size",
          "type": "string"
        },
        {
          "internalType": "string",
          "name": "_status",
          "type": "string"
        },
        {
          "internalType": "string[]",
          "name": "_cids",
          "type": "string[]"
        }
      ],
      "name": "updateProduct",
      "outputs": [],
      "stateMutability": "nonpayable",
      "type": "function"
    }
  ],
  "bytecode": "0x6080604052348015600f57600080fd5b506123398061001f6000396000f3fe608060405234801561001057600080fd5b506004361061004c5760003560e01c806302ee3a52146100515780635568d5731461006f57806368111cce1461008b5780639f5ae34a146100c4575b600080fd5b6100596100e0565b6040516100669190611739565b60405180910390f35b610089600480360381019061008491906119b6565b610792565b005b6100a560048036038101906100a09190611b91565b610a00565b6040516100bb9a99989796959493929190611cc8565b60405180910390f35b6100de60048036038101906100d991906119b6565b610fb4565b005b6060600060018054905067ffffffffffffffff81111561010357610102611779565b5b60405190808252806020026020018201604052801561013c57816020015b61012961125a565b8152602001906001900390816101215790505b50905060005b60018054905081101561078a5760006001828154811061016557610164611d9c565b5b9060005260206000200160405161017c9190611ece565b9081526020016040518091039020604051806101600160405290816000820180546101a690611dfa565b80601f01602080910402602001604051908101604052809291908181526020018280546101d290611dfa565b801561021f5780601f106101f45761010080835404028352916020019161021f565b820191906000526020600020905b81548152906001019060200180831161020257829003601f168201915b5050505050815260200160018201805461023890611dfa565b80601f016020809104026020016040519081016040528092919081815260200182805461026490611dfa565b80156102b15780601f10610286576101008083540402835291602001916102b1565b820191906000526020600020905b81548152906001019060200180831161029457829003601f168201915b505050505081526020016002820180546102ca90611dfa565b80601f01602080910402602001604051908101604052809291908181526020018280546102f690611dfa565b80156103435780601f1061031857610100808354040283529160200191610343565b820191906000526020600020905b81548152906001019060200180831161032657829003601f168201915b5050505050815260200160038201805461035c90611dfa565b80601f016020809104026020016040519081016040528092919081815260200182805461038890611dfa565b80156103d55780601f106103aa576101008083540402835291602001916103d5565b820191906000526020600020905b8154815290600101906020018083116103b857829003601f168201915b50505050508152602001600482015481526020016005820180546103f890611dfa565b80601f016020809104026020016040519081016040528092919081815260200182805461042490611dfa565b80156104715780601f1061044657610100808354040283529160200191610471565b820191906000526020600020905b81548152906001019060200180831161045457829003601f168201915b5050505050815260200160068201805461048a90611dfa565b80601f01602080910402602001604051908101604052809291908181526020018280546104b690611dfa565b80156105035780601f106104d857610100808354040283529160200191610503565b820191906000526020600020905b8154815290600101906020018083116104e657829003601f168201915b5050505050815260200160078201805461051c90611dfa565b80601f016020809104026020016040519081016040528092919081815260200182805461054890611dfa565b80156105955780601f1061056a57610100808354040283529160200191610595565b820191906000526020600020905b81548152906001019060200180831161057857829003601f168201915b505050505081526020016008820180546105ae90611dfa565b80601f01602080910402602001604051908101604052809291908181526020018280546105da90611dfa565b80156106275780601f106105fc57610100808354040283529160200191610627565b820191906000526020600020905b81548152906001019060200180831161060a57829003601f168201915b5050505050815260200160098201805480602002602001604051908101604052809291908181526020016000905b8282101561070157838290600052602060002001805461067490611dfa565b80601f01602080910402602001604051908101604052809291908181526020018280546106a090611dfa565b80156106ed5780601f106106c2576101008083540402835291602001916106ed565b820191906000526020600020905b8154815290600101906020018083116106d057829003601f168201915b505050505081526020019060010190610655565b505050508152602001600a820160009054906101000a900473ffffffffffffffffffffffffffffffffffffffff1673ffffffffffffffffffffffffffffffffffffffff1673ffffffffffffffffffffffffffffffffffffffff168152505082828151811061077257610771611d9c565b5b60200260200101819052508080600101915050610142565b508091505090565b6000808b6040516107a39190611f16565b908152602001604051809103902060000180546107bf90611dfa565b905003610801576040517f08c379a00000000000000000000000000000000000000000000000000000000081526004016107f890611f79565b60405180910390fd5b6040518061016001604052808b81526020018a81526020018981526020018881526020018781526020018681526020018581526020018481526020018381526020018281526020013373ffffffffffffffffffffffffffffffffffffffff1681525060008b6040516108739190611f16565b908152602001604051809103902060008201518160000190816108969190612130565b5060208201518160010190816108ac9190612130565b5060408201518160020190816108c29190612130565b5060608201518160030190816108d89190612130565b506080820151816004015560a08201518160050190816108f89190612130565b5060c082015181600601908161090e9190612130565b5060e08201518160070190816109249190612130565b5061010082015181600801908161093b9190612130565b506101208201518160090190805190602001906109599291906112ca565b5061014082015181600a0160006101000a81548173ffffffffffffffffffffffffffffffffffffffff021916908373ffffffffffffffffffffffffffffffffffffffff160217905550905050896040516109b39190611f16565b60405180910390207f1670a9b4e3ac0933e134251494c9dce2d2bed6f1978cad1e306e10e9229997758a896040516109ec929190612202565b60405180910390a250505050505050505050565b60608060606000606080606080606060008060008c604051610a229190611f16565b90815260200160405180910390206000018054610a3e90611dfa565b905003610a80576040517f08c379a0000000000000000000000000000000000000000000000000000000008152600401610a7790611f79565b60405180910390fd5b6000808c604051610a919190611f16565b908152602001604051809103902090508060010181600201826003018360040154846005018560060186600701876008018860090189600a0160009054906101000a900473ffffffffffffffffffffffffffffffffffffffff16898054610af790611dfa565b80601f0160208091040260200160405190810160405280929190818152602001828054610b2390611dfa565b8015610b705780601f10610b4557610100808354040283529160200191610b70565b820191906000526020600020905b815481529060010190602001808311610b5357829003601f168201915b50505050509950888054610b8390611dfa565b80601f0160208091040260200160405190810160405280929190818152602001828054610baf90611dfa565b8015610bfc5780601f10610bd157610100808354040283529160200191610bfc565b820191906000526020600020905b815481529060010190602001808311610bdf57829003601f168201915b50505050509850878054610c0f90611dfa565b80601f0160208091040260200160405190810160405280929190818152602001828054610c3b90611dfa565b8015610c885780601f10610c5d57610100808354040283529160200191610c88565b820191906000526020600020905b815481529060010190602001808311610c6b57829003601f168201915b50505050509750858054610c9b90611dfa565b80601f0160208091040260200160405190810160405280929190818152602001828054610cc790611dfa565b8015610d145780601f10610ce957610100808354040283529160200191610d14565b820191906000526020600020905b815481529060010190602001808311610cf757829003601f168201915b50505050509550848054610d2790611dfa565b80601f0160208091040260200160405190810160405280929190818152602001828054610d5390611dfa565b8015610da05780601f10610d7557610100808354040283529160200191610da0565b820191906000526020600020905b815481529060010190602001808311610d8357829003601f168201915b50505050509450838054610db390611dfa565b80601f0160208091040260200160405190810160405280929190818152602001828054610ddf90611dfa565b8015610e2c5780601f10610e0157610100808354040283529160200191610e2c565b820191906000526020600020905b815481529060010190602001808311610e0f57829003601f168201915b50505050509350828054610e3f90611dfa565b80601f0160208091040260200160405190810160405280929190818152602001828054610e6b90611dfa565b8015610eb85780601f10610e8d57610100808354040283529160200191610eb8565b820191906000526020600020905b815481529060010190602001808311610e9b57829003601f168201915b5050505050925081805480602002602001604051908101604052809291908181526020016000905b82821015610f8c578382906000526020600020018054610eff90611dfa565b80601f0160208091040260200160405190810160405280929190818152602001828054610f2b90611dfa565b8015610f785780601f10610f4d57610100808354040283529160200191610f78565b820191906000526020600020905b815481529060010190602001808311610f5b57829003601f168201915b505050505081526020019060010190610ee0565b5050505091509a509a509a509a509a509a509a509a509a509a50509193959799509193959799565b6000808b604051610fc59190611f16565b90815260200160405180910390206000018054610fe190611dfa565b905014611023576040517f08c379a000000000000000000000000000000000000000000000000000000000815260040161101a90612285565b60405180910390fd5b6040518061016001604052808b81526020018a81526020018981526020018881526020018781526020018681526020018581526020018481526020018381526020018281526020013373ffffffffffffffffffffffffffffffffffffffff1681525060008b6040516110959190611f16565b908152602001604051809103902060008201518160000190816110b89190612130565b5060208201518160010190816110ce9190612130565b5060408201518160020190816110e49190612130565b5060608201518160030190816110fa9190612130565b506080820151816004015560a082015181600501908161111a9190612130565b5060c08201518160060190816111309190612130565b5060e08201518160070190816111469190612130565b5061010082015181600801908161115d9190612130565b5061012082015181600901908051906020019061117b9291906112ca565b5061014082015181600a0160006101000a81548173ffffffffffffffffffffffffffffffffffffffff021916908373ffffffffffffffffffffffffffffffffffffffff16021790555090505060018a9080600181540180825580915050600190039060005260206000200160009091909190915090816111fb9190612130565b508960405161120a9190611f16565b60405180910390207f1bf01a8b4d11ca2f143fcede160ca96e5fe22868258f14b4a68ea0c9b0c922468a894340604051611246939291906122be565b60405180910390a250505050505050505050565b60405180610160016040528060608152602001606081526020016060815260200160608152602001600081526020016060815260200160608152602001606081526020016060815260200160608152602001600073ffffffffffffffffffffffffffffffffffffffff1681525090565b828054828255906000526020600020908101928215611312579160200282015b828111156113115782518290816113019190612130565b50916020019190600101906112ea565b5b50905061131f9190611323565b5090565b5b80821115611343576000818161133a9190611347565b50600101611324565b5090565b50805461135390611dfa565b6000825580601f106113655750611384565b601f0160209004906000526020600020908101906113839190611387565b5b50565b5b808211156113a0576000816000905550600101611388565b5090565b600081519050919050565b600082825260208201905092915050565b6000819050602082019050919050565b600081519050919050565b600082825260208201905092915050565b60005b8381101561140a5780820151818401526020810190506113ef565b60008484015250505050565b6000601f19601f8301169050919050565b6000611432826113d0565b61143c81856113db565b935061144c8185602086016113ec565b61145581611416565b840191505092915050565b6000819050919050565b61147381611460565b82525050565b600081519050919050565b600082825260208201905092915050565b6000819050602082019050919050565b60006114b18383611427565b905092915050565b6000602082019050919050565b60006114d182611479565b6114db8185611484565b9350836020820285016114ed85611495565b8060005b85811015611529578484038952815161150a85826114a5565b9450611515836114b9565b925060208a019950506001810190506114f1565b50829750879550505050505092915050565b600073ffffffffffffffffffffffffffffffffffffffff82169050919050565b60006115668261153b565b9050919050565b6115768161155b565b82525050565b600061016083016000830151848203600086015261159a8282611427565b915050602083015184820360208601526115b48282611427565b915050604083015184820360408601526115ce8282611427565b915050606083015184820360608601526115e88282611427565b91505060808301516115fd608086018261146a565b5060a083015184820360a08601526116158282611427565b91505060c083015184820360c086015261162f8282611427565b91505060e083015184820360e08601526116498282611427565b9150506101008301518482036101008601526116658282611427565b91505061012083015184820361012086015261168182826114c6565b91505061014083015161169861014086018261156d565b508091505092915050565b60006116af838361157c565b905092915050565b6000602082019050919050565b60006116cf826113a4565b6116d981856113af565b9350836020820285016116eb856113c0565b8060005b85811015611727578484038952815161170885826116a3565b9450611713836116b7565b925060208a019950506001810190506116ef565b50829750879550505050505092915050565b6000602082019050818103600083015261175381846116c4565b905092915050565b6000604051905090565b600080fd5b600080fd5b600080fd5b600080fd5b7f4e487b7100000000000000000000000000000000000000000000000000000000600052604160045260246000fd5b6117b182611416565b810181811067ffffffffffffffff821117156117d0576117cf611779565b5b80604052505050565b60006117e361175b565b90506117ef82826117a8565b919050565b600067ffffffffffffffff82111561180f5761180e611779565b5b61181882611416565b9050602081019050919050565b82818337600083830152505050565b6000611847611842846117f4565b6117d9565b90508281526020810184848401111561186357611862611774565b5b61186e848285611825565b509392505050565b600082601f83011261188b5761188a61176f565b5b813561189b848260208601611834565b91505092915050565b6118ad81611460565b81146118b857600080fd5b50565b6000813590506118ca816118a4565b92915050565b600067ffffffffffffffff8211156118eb576118ea611779565b5b602082029050602081019050919050565b600080fd5b600061191461190f846118d0565b6117d9565b90508083825260208201905060208402830185811115611937576119366118fc565b5b835b8181101561197e57803567ffffffffffffffff81111561195c5761195b61176f565b5b8086016119698982611876565b85526020850194505050602081019050611939565b5050509392505050565b600082601f83011261199d5761199c61176f565b5b81356119ad848260208601611901565b91505092915050565b6000806000806000806000806000806101408b8d0312156119da576119d9611765565b5b60008b013567ffffffffffffffff8111156119f8576119f761176a565b5b611a048d828e01611876565b9a505060208b013567ffffffffffffffff811115611a2557611a2461176a565b5b611a318d828e01611876565b99505060408b013567ffffffffffffffff811115611a5257611a5161176a565b5b611a5e8d828e01611876565b98505060608b013567ffffffffffffffff811115611a7f57611a7e61176a565b5b611a8b8d828e01611876565b9750506080611a9c8d828e016118bb565b96505060a08b013567ffffffffffffffff811115611abd57611abc61176a565b5b611ac98d828e01611876565b95505060c08b013567ffffffffffffffff811115611aea57611ae961176a565b5b611af68d828e01611876565b94505060e08b013567ffffffffffffffff811115611b1757611b1661176a565b5b611b238d828e01611876565b9350506101008b013567ffffffffffffffff811115611b4557611b4461176a565b5b611b518d828e01611876565b9250506101208b013567ffffffffffffffff811115611b7357611b7261176a565b5b611b7f8d828e01611988565b9150509295989b9194979a5092959850565b600060208284031215611ba757611ba6611765565b5b600082013567ffffffffffffffff811115611bc557611bc461176a565b5b611bd184828501611876565b91505092915050565b600082825260208201905092915050565b6000611bf6826113d0565b611c008185611bda565b9350611c108185602086016113ec565b611c1981611416565b840191505092915050565b611c2d81611460565b82525050565b600082825260208201905092915050565b6000611c4f82611479565b611c598185611c33565b935083602082028501611c6b85611495565b8060005b85811015611ca75784840389528151611c8885826114a5565b9450611c93836114b9565b925060208a01995050600181019050611c6f565b50829750879550505050505092915050565b611cc28161155b565b82525050565b6000610140820190508181036000830152611ce3818d611beb565b90508181036020830152611cf7818c611beb565b90508181036040830152611d0b818b611beb565b9050611d1a606083018a611c24565b8181036080830152611d2c8189611beb565b905081810360a0830152611d408188611beb565b905081810360c0830152611d548187611beb565b905081810360e0830152611d688186611beb565b9050818103610100830152611d7d8185611c44565b9050611d8d610120830184611cb9565b9b9a5050505050505050505050565b7f4e487b7100000000000000000000000000000000000000000000000000000000600052603260045260246000fd5b7f4e487b7100000000000000000000000000000000000000000000000000000000600052602260045260246000fd5b60006002820490506001821680611e1257607f821691505b602082108103611e2557611e24611dcb565b5b50919050565b600081905092915050565b60008190508160005260206000209050919050565b60008154611e5881611dfa565b611e628186611e2b565b94506001821660008114611e7d5760018114611e9257611ec5565b60ff1983168652811515820286019350611ec5565b611e9b85611e36565b60005b83811015611ebd57815481890152600182019150602081019050611e9e565b838801955050505b50505092915050565b6000611eda8284611e4b565b915081905092915050565b6000611ef0826113d0565b611efa8185611e2b565b9350611f0a8185602086016113ec565b80840191505092915050565b6000611f228284611ee5565b915081905092915050565b7f50726f64756374206e6f7420666f756e64000000000000000000000000000000600082015250565b6000611f63601183611bda565b9150611f6e82611f2d565b602082019050919050565b60006020820190508181036000830152611f9281611f56565b9050919050565b60006020601f8301049050919050565b600082821b905092915050565b600060088302611fe67fffffffffffffffffffffffffffffffffffffffffffffffffffffffffffffffff82611fa9565b611ff08683611fa9565b95508019841693508086168417925050509392505050565b6000819050919050565b600061202d61202861202384611460565b612008565b611460565b9050919050565b6000819050919050565b61204783612012565b61205b61205382612034565b848454611fb6565b825550505050565b600090565b612070612063565b61207b81848461203e565b505050565b5b8181101561209f57612094600082612068565b600181019050612081565b5050565b601f8211156120e4576120b581611e36565b6120be84611f99565b810160208510156120cd578190505b6120e16120d985611f99565b830182612080565b50505b505050565b600082821c905092915050565b6000612107600019846008026120e9565b1980831691505092915050565b600061212083836120f6565b9150826002028217905092915050565b612139826113d0565b67ffffffffffffffff81111561215257612151611779565b5b61215c8254611dfa565b6121678282856120a3565b600060209050601f83116001811461219a5760008415612188578287015190505b6121928582612114565b8655506121fa565b601f1984166121a886611e36565b60005b828110156121d0578489015182556001820191506020850194506020810190506121ab565b868310156121ed57848901516121e9601f8916826120f6565b8355505b6001600288020188555050505b505050505050565b6000604082019050818103600083015261221c8185611beb565b905081810360208301526122308184611beb565b90509392505050565b7f50726f6475637420494420616c72656164792065786973747300000000000000600082015250565b600061226f601983611bda565b915061227a82612239565b602082019050919050565b6000602082019050818103600083015261229e81612262565b9050919050565b6000819050919050565b6122b8816122a5565b82525050565b600060608201905081810360008301526122d88186611beb565b905081810360208301526122ec8185611beb565b90506122fb60408301846122af565b94935050505056fea26469706673582212207bba2610ef0d74ea9e2f42e10345a7d06f444e3cdbaaa26911ed761f0f48da6864736f6c634300081b0033",
  "linkReferences": {},
  "deployedLinkReferences": {}
}