{
  "_format": "hh-sol-artifact-1",
  "contractName": "ProductManager",
  "sourceName": "contracts/Product.sol",
  "abi": [
    {
      "inputs": [],
      "stateMutability": "nonpayable",
      "type": "constructor"
    },
    {
      "inputs": [
        {
          "internalType": "address",
          "name": "sender",
          "type": "address"
        },
        {
          "internalType": "uint256",
          "name": "balance",
          "type": "uint256"
        },
        {
          "internalType": "uint256",
          "name": "needed",
          "type": "uint256"
        },
        {
          "internalType": "uint256",
          "name": "tokenId",
          "type": "uint256"
        }
      ],
      "name": "ERC1155InsufficientBalance",
      "type": "error"
    },
    {
      "inputs": [
        {
          "internalType": "address",
          "name": "approver",
          "type": "address"
        }
      ],
      "name": "ERC1155InvalidApprover",
      "type": "error"
    },
    {
      "inputs": [
        {
          "internalType": "uint256",
          "name": "idsLength",
          "type": "uint256"
        },
        {
          "internalType": "uint256",
          "name": "valuesLength",
          "type": "uint256"
        }
      ],
      "name": "ERC1155InvalidArrayLength",
      "type": "error"
    },
    {
      "inputs": [
        {
          "internalType": "address",
          "name": "operator",
          "type": "address"
        }
      ],
      "name": "ERC1155InvalidOperator",
      "type": "error"
    },
    {
      "inputs": [
        {
          "internalType": "address",
          "name": "receiver",
          "type": "address"
        }
      ],
      "name": "ERC1155InvalidReceiver",
      "type": "error"
    },
    {
      "inputs": [
        {
          "internalType": "address",
          "name": "sender",
          "type": "address"
        }
      ],
      "name": "ERC1155InvalidSender",
      "type": "error"
    },
    {
      "inputs": [
        {
          "internalType": "address",
          "name": "operator",
          "type": "address"
        },
        {
          "internalType": "address",
          "name": "owner",
          "type": "address"
        }
      ],
      "name": "ERC1155MissingApprovalForAll",
      "type": "error"
    },
    {
      "inputs": [
        {
          "internalType": "address",
          "name": "owner",
          "type": "address"
        }
      ],
      "name": "OwnableInvalidOwner",
      "type": "error"
    },
    {
      "inputs": [
        {
          "internalType": "address",
          "name": "account",
          "type": "address"
        }
      ],
      "name": "OwnableUnauthorizedAccount",
      "type": "error"
    },
    {
      "anonymous": false,
      "inputs": [
        {
          "indexed": true,
          "internalType": "address",
          "name": "account",
          "type": "address"
        },
        {
          "indexed": true,
          "internalType": "address",
          "name": "operator",
          "type": "address"
        },
        {
          "indexed": false,
          "internalType": "bool",
          "name": "approved",
          "type": "bool"
        }
      ],
      "name": "ApprovalForAll",
      "type": "event"
    },
    {
      "anonymous": false,
      "inputs": [
        {
          "indexed": true,
          "internalType": "address",
          "name": "previousOwner",
          "type": "address"
        },
        {
          "indexed": true,
          "internalType": "address",
          "name": "newOwner",
          "type": "address"
        }
      ],
      "name": "OwnershipTransferred",
      "type": "event"
    },
    {
      "anonymous": false,
      "inputs": [
        {
          "indexed": true,
          "internalType": "address",
          "name": "operator",
          "type": "address"
        },
        {
          "indexed": true,
          "internalType": "address",
          "name": "from",
          "type": "address"
        },
        {
          "indexed": true,
          "internalType": "address",
          "name": "to",
          "type": "address"
        },
        {
          "indexed": false,
          "internalType": "uint256[]",
          "name": "ids",
          "type": "uint256[]"
        },
        {
          "indexed": false,
          "internalType": "uint256[]",
          "name": "values",
          "type": "uint256[]"
        }
      ],
      "name": "TransferBatch",
      "type": "event"
    },
    {
      "anonymous": false,
      "inputs": [
        {
          "indexed": true,
          "internalType": "address",
          "name": "operator",
          "type": "address"
        },
        {
          "indexed": true,
          "internalType": "address",
          "name": "from",
          "type": "address"
        },
        {
          "indexed": true,
          "internalType": "address",
          "name": "to",
          "type": "address"
        },
        {
          "indexed": false,
          "internalType": "uint256",
          "name": "id",
          "type": "uint256"
        },
        {
          "indexed": false,
          "internalType": "uint256",
          "name": "value",
          "type": "uint256"
        }
      ],
      "name": "TransferSingle",
      "type": "event"
    },
    {
      "anonymous": false,
      "inputs": [
        {
          "indexed": false,
          "internalType": "string",
          "name": "value",
          "type": "string"
        },
        {
          "indexed": true,
          "internalType": "uint256",
          "name": "id",
          "type": "uint256"
        }
      ],
      "name": "URI",
      "type": "event"
    },
    {
      "inputs": [
        {
          "internalType": "address",
          "name": "account",
          "type": "address"
        },
        {
          "internalType": "uint256",
          "name": "id",
          "type": "uint256"
        }
      ],
      "name": "balanceOf",
      "outputs": [
        {
          "internalType": "uint256",
          "name": "",
          "type": "uint256"
        }
      ],
      "stateMutability": "view",
      "type": "function"
    },
    {
      "inputs": [
        {
          "internalType": "address[]",
          "name": "accounts",
          "type": "address[]"
        },
        {
          "internalType": "uint256[]",
          "name": "ids",
          "type": "uint256[]"
        }
      ],
      "name": "balanceOfBatch",
      "outputs": [
        {
          "internalType": "uint256[]",
          "name": "",
          "type": "uint256[]"
        }
      ],
      "stateMutability": "view",
      "type": "function"
    },
    {
      "inputs": [
        {
          "internalType": "uint256",
          "name": "tokenId",
          "type": "uint256"
        },
        {
          "internalType": "uint256",
          "name": "amount",
          "type": "uint256"
        }
      ],
      "name": "burnProduct",
      "outputs": [],
      "stateMutability": "nonpayable",
      "type": "function"
    },
    {
      "inputs": [
        {
          "internalType": "uint256",
          "name": "",
          "type": "uint256"
        }
      ],
      "name": "currentOwner",
      "outputs": [
        {
          "internalType": "address",
          "name": "",
          "type": "address"
        }
      ],
      "stateMutability": "view",
      "type": "function"
    },
    {
      "inputs": [],
      "name": "getAllTokenIds",
      "outputs": [
        {
          "internalType": "uint256[]",
          "name": "",
          "type": "uint256[]"
        }
      ],
      "stateMutability": "view",
      "type": "function"
    },
    {
      "inputs": [
        {
          "internalType": "uint256",
          "name": "tokenId",
          "type": "uint256"
        }
      ],
      "name": "getMetadataCID",
      "outputs": [
        {
          "internalType": "string",
          "name": "",
          "type": "string"
        }
      ],
      "stateMutability": "view",
      "type": "function"
    },
    {
      "inputs": [
        {
          "internalType": "uint256",
          "name": "tokenId",
          "type": "uint256"
        }
      ],
      "name": "getProductInfo",
      "outputs": [
        {
          "internalType": "string",
          "name": "",
          "type": "string"
        },
        {
          "internalType": "string",
          "name": "",
          "type": "string"
        },
        {
          "internalType": "uint256",
          "name": "",
          "type": "uint256"
        },
        {
          "internalType": "string",
          "name": "",
          "type": "string"
        },
        {
          "internalType": "address",
          "name": "",
          "type": "address"
        }
      ],
      "stateMutability": "view",
      "type": "function"
    },
    {
      "inputs": [
        {
          "internalType": "address",
          "name": "account",
          "type": "address"
        },
        {
          "internalType": "address",
          "name": "operator",
          "type": "address"
        }
      ],
      "name": "isApprovedForAll",
      "outputs": [
        {
          "internalType": "bool",
          "name": "",
          "type": "bool"
        }
      ],
      "stateMutability": "view",
      "type": "function"
    },
    {
      "inputs": [
        {
          "internalType": "uint256",
          "name": "tokenId",
          "type": "uint256"
        },
        {
          "internalType": "uint256",
          "name": "amount",
          "type": "uint256"
        },
        {
          "internalType": "string",
          "name": "metadataCID",
          "type": "string"
        },
        {
          "internalType": "string",
          "name": "price",
          "type": "string"
        },
        {
          "internalType": "uint256",
          "name": "quantity",
          "type": "uint256"
        },
        {
          "internalType": "string",
          "name": "status",
          "type": "string"
        }
      ],
      "name": "mintProduct",
      "outputs": [],
      "stateMutability": "nonpayable",
      "type": "function"
    },
    {
      "inputs": [],
      "name": "owner",
      "outputs": [
        {
          "internalType": "address",
          "name": "",
          "type": "address"
        }
      ],
      "stateMutability": "view",
      "type": "function"
    },
    {
      "inputs": [
        {
          "internalType": "uint256",
          "name": "",
          "type": "uint256"
        }
      ],
      "name": "productMetadata",
      "outputs": [
        {
          "internalType": "string",
          "name": "",
          "type": "string"
        }
      ],
      "stateMutability": "view",
      "type": "function"
    },
    {
      "inputs": [
        {
          "internalType": "uint256",
          "name": "",
          "type": "uint256"
        }
      ],
      "name": "productPrice",
      "outputs": [
        {
          "internalType": "string",
          "name": "",
          "type": "string"
        }
      ],
      "stateMutability": "view",
      "type": "function"
    },
    {
      "inputs": [
        {
          "internalType": "uint256",
          "name": "",
          "type": "uint256"
        }
      ],
      "name": "productQuantity",
      "outputs": [
        {
          "internalType": "uint256",
          "name": "",
          "type": "uint256"
        }
      ],
      "stateMutability": "view",
      "type": "function"
    },
    {
      "inputs": [
        {
          "internalType": "uint256",
          "name": "",
          "type": "uint256"
        }
      ],
      "name": "productStatus",
      "outputs": [
        {
          "internalType": "string",
          "name": "",
          "type": "string"
        }
      ],
      "stateMutability": "view",
      "type": "function"
    },
    {
      "inputs": [],
      "name": "renounceOwnership",
      "outputs": [],
      "stateMutability": "nonpayable",
      "type": "function"
    },
    {
      "inputs": [
        {
          "internalType": "address",
          "name": "from",
          "type": "address"
        },
        {
          "internalType": "address",
          "name": "to",
          "type": "address"
        },
        {
          "internalType": "uint256[]",
          "name": "ids",
          "type": "uint256[]"
        },
        {
          "internalType": "uint256[]",
          "name": "values",
          "type": "uint256[]"
        },
        {
          "internalType": "bytes",
          "name": "data",
          "type": "bytes"
        }
      ],
      "name": "safeBatchTransferFrom",
      "outputs": [],
      "stateMutability": "nonpayable",
      "type": "function"
    },
    {
      "inputs": [
        {
          "internalType": "address",
          "name": "from",
          "type": "address"
        },
        {
          "internalType": "address",
          "name": "to",
          "type": "address"
        },
        {
          "internalType": "uint256",
          "name": "id",
          "type": "uint256"
        },
        {
          "internalType": "uint256",
          "name": "value",
          "type": "uint256"
        },
        {
          "internalType": "bytes",
          "name": "data",
          "type": "bytes"
        }
      ],
      "name": "safeTransferFrom",
      "outputs": [],
      "stateMutability": "nonpayable",
      "type": "function"
    },
    {
      "inputs": [
        {
          "internalType": "address",
          "name": "operator",
          "type": "address"
        },
        {
          "internalType": "bool",
          "name": "approved",
          "type": "bool"
        }
      ],
      "name": "setApprovalForAll",
      "outputs": [],
      "stateMutability": "nonpayable",
      "type": "function"
    },
    {
      "inputs": [
        {
          "internalType": "bytes4",
          "name": "interfaceId",
          "type": "bytes4"
        }
      ],
      "name": "supportsInterface",
      "outputs": [
        {
          "internalType": "bool",
          "name": "",
          "type": "bool"
        }
      ],
      "stateMutability": "view",
      "type": "function"
    },
    {
      "inputs": [
        {
          "internalType": "uint256",
          "name": "tokenId",
          "type": "uint256"
        },
        {
          "internalType": "address",
          "name": "newOwner",
          "type": "address"
        }
      ],
      "name": "transferOwnership",
      "outputs": [],
      "stateMutability": "nonpayable",
      "type": "function"
    },
    {
      "inputs": [
        {
          "internalType": "address",
          "name": "newOwner",
          "type": "address"
        }
      ],
      "name": "transferOwnership",
      "outputs": [],
      "stateMutability": "nonpayable",
      "type": "function"
    },
    {
      "inputs": [
        {
          "internalType": "uint256",
          "name": "tokenId",
          "type": "uint256"
        },
        {
          "internalType": "string",
          "name": "newMetadataCID",
          "type": "string"
        }
      ],
      "name": "updateMetadata",
      "outputs": [],
      "stateMutability": "nonpayable",
      "type": "function"
    },
    {
      "inputs": [
        {
          "internalType": "uint256",
          "name": "tokenId",
          "type": "uint256"
        },
        {
          "internalType": "string",
          "name": "newPrice",
          "type": "string"
        }
      ],
      "name": "updatePrice",
      "outputs": [],
      "stateMutability": "nonpayable",
      "type": "function"
    },
    {
      "inputs": [
        {
          "internalType": "uint256",
          "name": "tokenId",
          "type": "uint256"
        },
        {
          "internalType": "uint256",
          "name": "newQuantity",
          "type": "uint256"
        }
      ],
      "name": "updateQuantity",
      "outputs": [],
      "stateMutability": "nonpayable",
      "type": "function"
    },
    {
      "inputs": [
        {
          "internalType": "uint256",
          "name": "tokenId",
          "type": "uint256"
        },
        {
          "internalType": "string",
          "name": "newStatus",
          "type": "string"
        }
      ],
      "name": "updateStatus",
      "outputs": [],
      "stateMutability": "nonpayable",
      "type": "function"
    },
    {
      "inputs": [
        {
          "internalType": "uint256",
          "name": "",
          "type": "uint256"
        }
      ],
      "name": "uri",
      "outputs": [
        {
          "internalType": "string",
          "name": "",
          "type": "string"
        }
      ],
      "stateMutability": "view",
      "type": "function"
    }
  ],
  "bytecode": "0x608060405234801561001057600080fd5b50336040518060400160405280601081526020017f697066733a2f2f7b69647d2e6a736f6e00000000000000000000000000000000815250610057816100df60201b60201c565b50600073ffffffffffffffffffffffffffffffffffffffff168173ffffffffffffffffffffffffffffffffffffffff16036100ca5760006040517f1e4fbdf70000000000000000000000000000000000000000000000000000000081526004016100c191906101f9565b60405180910390fd5b6100d9816100f260201b60201c565b50610536565b80600290816100ee9190610464565b5050565b6000600360009054906101000a900473ffffffffffffffffffffffffffffffffffffffff16905081600360006101000a81548173ffffffffffffffffffffffffffffffffffffffff021916908373ffffffffffffffffffffffffffffffffffffffff1602179055508173ffffffffffffffffffffffffffffffffffffffff168173ffffffffffffffffffffffffffffffffffffffff167f8be0079c531659141344cd1fd0a4f28419497f9722a3daafe3b4186f6b6457e060405160405180910390a35050565b600073ffffffffffffffffffffffffffffffffffffffff82169050919050565b60006101e3826101b8565b9050919050565b6101f3816101d8565b82525050565b600060208201905061020e60008301846101ea565b92915050565b600081519050919050565b7f4e487b7100000000000000000000000000000000000000000000000000000000600052604160045260246000fd5b7f4e487b7100000000000000000000000000000000000000000000000000000000600052602260045260246000fd5b6000600282049050600182168061029557607f821691505b6020821081036102a8576102a761024e565b5b50919050565b60008190508160005260206000209050919050565b60006020601f8301049050919050565b600082821b905092915050565b6000600883026103107fffffffffffffffffffffffffffffffffffffffffffffffffffffffffffffffff826102d3565b61031a86836102d3565b95508019841693508086168417925050509392505050565b6000819050919050565b6000819050919050565b600061036161035c61035784610332565b61033c565b610332565b9050919050565b6000819050919050565b61037b83610346565b61038f61038782610368565b8484546102e0565b825550505050565b600090565b6103a4610397565b6103af818484610372565b505050565b5b818110156103d3576103c860008261039c565b6001810190506103b5565b5050565b601f821115610418576103e9816102ae565b6103f2846102c3565b81016020851015610401578190505b61041561040d856102c3565b8301826103b4565b50505b505050565b600082821c905092915050565b600061043b6000198460080261041d565b1980831691505092915050565b6000610454838361042a565b9150826002028217905092915050565b61046d82610214565b67ffffffffffffffff8111156104865761048561021f565b5b610490825461027d565b61049b8282856103d7565b600060209050601f8311600181146104ce57600084156104bc578287015190505b6104c68582610448565b86555061052e565b601f1984166104dc866102ae565b60005b82811015610504578489015182556001820191506020850194506020810190506104df565b86831015610521578489015161051d601f89168261042a565b8355505b6001600288020188555050505b505050505050565b613655806105456000396000f3fe608060405234801561001057600080fd5b506004361061018d5760003560e01c8063715018a6116100de578063bdbed72211610097578063e985e9c511610071578063e985e9c5146104b8578063f242432a146104e8578063f2fde38b14610504578063fd68b3ff146105205761018d565b8063bdbed7221461044e578063d1b34dd81461046c578063e5451103146104885761018d565b8063715018a61461038a57806379a85e6c1461039457806379cd4921146103c85780638da5cb5b146103e4578063a22cb46514610402578063a57e95371461041e5761018d565b80632eb2c2d61161014b5780634e1273f4116101255780634e1273f4146102f2578063538455091461032257806353c8388e146103525780637103b15b1461036e5761018d565b80632eb2c2d61461029e57806334286758146102ba57806340284213146102d65761018d565b8062fdd58e1461019257806301ffc9a7146101c25780630e89341c146101f25780630ea3d3ee146102225780632020dc891461025257806329507f7314610282575b600080fd5b6101ac60048036038101906101a791906123e5565b610550565b6040516101b99190612434565b60405180910390f35b6101dc60048036038101906101d791906124a7565b6105aa565b6040516101e991906124ef565b60405180910390f35b61020c6004803603810190610207919061250a565b61068c565b60405161021991906125c7565b60405180910390f35b61023c6004803603810190610237919061250a565b610720565b60405161024991906125c7565b60405180910390f35b61026c6004803603810190610267919061250a565b6107c0565b6040516102799190612434565b60405180910390f35b61029c600480360381019061029791906125e9565b6107d8565b005b6102b860048036038101906102b39190612826565b6108cf565b005b6102d460048036038101906102cf91906128f5565b610977565b005b6102f060048036038101906102eb91906129d6565b610ac3565b005b61030c60048036038101906103079190612b7a565b610c36565b6040516103199190612cb0565b60405180910390f35b61033c6004803603810190610337919061250a565b610d3f565b60405161034991906125c7565b60405180910390f35b61036c60048036038101906103679190612cd2565b610ddf565b005b61038860048036038101906103839190612cd2565b610e0c565b005b610392610e39565b005b6103ae60048036038101906103a9919061250a565b610e4d565b6040516103bf959493929190612d3d565b60405180910390f35b6103e260048036038101906103dd91906128f5565b61108e565b005b6103ec6110b2565b6040516103f99190612da5565b60405180910390f35b61041c60048036038101906104179190612dec565b6110dc565b005b6104386004803603810190610433919061250a565b6110f2565b60405161044591906125c7565b60405180910390f35b610456611197565b6040516104639190612cb0565b60405180910390f35b61048660048036038101906104819190612cd2565b6111ef565b005b6104a2600480360381019061049d919061250a565b61121c565b6040516104af9190612da5565b60405180910390f35b6104d260048036038101906104cd9190612e2c565b61124f565b6040516104df91906124ef565b60405180910390f35b61050260048036038101906104fd9190612e6c565b6112e3565b005b61051e60048036038101906105199190612f03565b61138b565b005b61053a6004803603810190610535919061250a565b611411565b60405161054791906125c7565b60405180910390f35b600080600083815260200190815260200160002060008473ffffffffffffffffffffffffffffffffffffffff1673ffffffffffffffffffffffffffffffffffffffff16815260200190815260200160002054905092915050565b60007fd9b67a26000000000000000000000000000000000000000000000000000000007bffffffffffffffffffffffffffffffffffffffffffffffffffffffff1916827bffffffffffffffffffffffffffffffffffffffffffffffffffffffff1916148061067557507f0e89341c000000000000000000000000000000000000000000000000000000007bffffffffffffffffffffffffffffffffffffffffffffffffffffffff1916827bffffffffffffffffffffffffffffffffffffffffffffffffffffffff1916145b806106855750610684826114b1565b5b9050919050565b60606002805461069b90612f5f565b80601f01602080910402602001604051908101604052809291908181526020018280546106c790612f5f565b80156107145780601f106106e957610100808354040283529160200191610714565b820191906000526020600020905b8154815290600101906020018083116106f757829003601f168201915b50505050509050919050565b6007602052806000526040600020600091509050805461073f90612f5f565b80601f016020809104026020016040519081016040528092919081815260200182805461076b90612f5f565b80156107b85780601f1061078d576101008083540402835291602001916107b8565b820191906000526020600020905b81548152906001019060200180831161079b57829003601f168201915b505050505081565b60066020528060005260406000206000915090505481565b6008600083815260200190815260200160002060009054906101000a900473ffffffffffffffffffffffffffffffffffffffff1673ffffffffffffffffffffffffffffffffffffffff163373ffffffffffffffffffffffffffffffffffffffff1614610879576040517f08c379a000000000000000000000000000000000000000000000000000000000815260040161087090613002565b60405180910390fd5b806008600084815260200190815260200160002060006101000a81548173ffffffffffffffffffffffffffffffffffffffff021916908373ffffffffffffffffffffffffffffffffffffffff1602179055505050565b60006108d961151b565b90508073ffffffffffffffffffffffffffffffffffffffff168673ffffffffffffffffffffffffffffffffffffffff161415801561091e575061091c868261124f565b155b156109625780866040517fe237d922000000000000000000000000000000000000000000000000000000008152600401610959929190613022565b60405180910390fd5b61096f8686868686611523565b505050505050565b6008600083815260200190815260200160002060009054906101000a900473ffffffffffffffffffffffffffffffffffffffff1673ffffffffffffffffffffffffffffffffffffffff163373ffffffffffffffffffffffffffffffffffffffff1614610a18576040517f08c379a0000000000000000000000000000000000000000000000000000000008152600401610a0f906130bd565b60405180910390fd5b610a2333838361161b565b80600660008481526020019081526020016000206000828254610a46919061310c565b925050819055506000600660008481526020019081526020016000205403610abf576040518060400160405280600d81526020017f6e6f7420617661696c61626c6500000000000000000000000000000000000000815250600760008481526020019081526020016000209081610abd91906132ec565b505b5050565b610acb6116c2565b610ae633878760405180602001604052806000815250611749565b83600460008881526020019081526020016000209081610b0691906132ec565b5082600560008881526020019081526020016000209081610b2791906132ec565b5081600660008881526020019081526020016000208190555080600760008881526020019081526020016000209081610b6091906132ec565b50336008600088815260200190815260200160002060006101000a81548173ffffffffffffffffffffffffffffffffffffffff021916908373ffffffffffffffffffffffffffffffffffffffff160217905550600a600087815260200190815260200160002060009054906101000a900460ff16610c2e5760098690806001815401808255809150506001900390600052602060002001600090919091909150556001600a600088815260200190815260200160002060006101000a81548160ff0219169083151502179055505b505050505050565b60608151835114610c8257815183516040517f5b059991000000000000000000000000000000000000000000000000000000008152600401610c799291906133be565b60405180910390fd5b6000835167ffffffffffffffff811115610c9f57610c9e61262e565b5b604051908082528060200260200182016040528015610ccd5781602001602082028036833780820191505090505b50905060005b8451811015610d3457610d0a610cf282876117e290919063ffffffff16565b610d0583876117f690919063ffffffff16565b610550565b828281518110610d1d57610d1c6133e7565b5b602002602001018181525050806001019050610cd3565b508091505092915050565b60046020528060005260406000206000915090508054610d5e90612f5f565b80601f0160208091040260200160405190810160405280929190818152602001828054610d8a90612f5f565b8015610dd75780601f10610dac57610100808354040283529160200191610dd7565b820191906000526020600020905b815481529060010190602001808311610dba57829003601f168201915b505050505081565b610de76116c2565b80600460008481526020019081526020016000209081610e0791906132ec565b505050565b610e146116c2565b80600560008481526020019081526020016000209081610e3491906132ec565b505050565b610e416116c2565b610e4b600061180a565b565b60608060006060600060046000878152602001908152602001600020600560008881526020019081526020016000206006600089815260200190815260200160002054600760008a8152602001908152602001600020600860008b815260200190815260200160002060009054906101000a900473ffffffffffffffffffffffffffffffffffffffff16848054610ee390612f5f565b80601f0160208091040260200160405190810160405280929190818152602001828054610f0f90612f5f565b8015610f5c5780601f10610f3157610100808354040283529160200191610f5c565b820191906000526020600020905b815481529060010190602001808311610f3f57829003601f168201915b50505050509450838054610f6f90612f5f565b80601f0160208091040260200160405190810160405280929190818152602001828054610f9b90612f5f565b8015610fe85780601f10610fbd57610100808354040283529160200191610fe8565b820191906000526020600020905b815481529060010190602001808311610fcb57829003601f168201915b50505050509350818054610ffb90612f5f565b80601f016020809104026020016040519081016040528092919081815260200182805461102790612f5f565b80156110745780601f1061104957610100808354040283529160200191611074565b820191906000526020600020905b81548152906001019060200180831161105757829003601f168201915b505050505091509450945094509450945091939590929450565b6110966116c2565b8060066000848152602001908152602001600020819055505050565b6000600360009054906101000a900473ffffffffffffffffffffffffffffffffffffffff16905090565b6110ee6110e761151b565b83836118d0565b5050565b606060046000838152602001908152602001600020805461111290612f5f565b80601f016020809104026020016040519081016040528092919081815260200182805461113e90612f5f565b801561118b5780601f106111605761010080835404028352916020019161118b565b820191906000526020600020905b81548152906001019060200180831161116e57829003601f168201915b50505050509050919050565b606060098054806020026020016040519081016040528092919081815260200182805480156111e557602002820191906000526020600020905b8154815260200190600101908083116111d1575b5050505050905090565b6111f76116c2565b8060076000848152602001908152602001600020908161121791906132ec565b505050565b60086020528060005260406000206000915054906101000a900473ffffffffffffffffffffffffffffffffffffffff1681565b6000600160008473ffffffffffffffffffffffffffffffffffffffff1673ffffffffffffffffffffffffffffffffffffffff16815260200190815260200160002060008373ffffffffffffffffffffffffffffffffffffffff1673ffffffffffffffffffffffffffffffffffffffff16815260200190815260200160002060009054906101000a900460ff16905092915050565b60006112ed61151b565b90508073ffffffffffffffffffffffffffffffffffffffff168673ffffffffffffffffffffffffffffffffffffffff16141580156113325750611330868261124f565b155b156113765780866040517fe237d92200000000000000000000000000000000000000000000000000000000815260040161136d929190613022565b60405180910390fd5b6113838686868686611a40565b505050505050565b6113936116c2565b600073ffffffffffffffffffffffffffffffffffffffff168173ffffffffffffffffffffffffffffffffffffffff16036114055760006040517f1e4fbdf70000000000000000000000000000000000000000000000000000000081526004016113fc9190612da5565b60405180910390fd5b61140e8161180a565b50565b6005602052806000526040600020600091509050805461143090612f5f565b80601f016020809104026020016040519081016040528092919081815260200182805461145c90612f5f565b80156114a95780601f1061147e576101008083540402835291602001916114a9565b820191906000526020600020905b81548152906001019060200180831161148c57829003601f168201915b505050505081565b60007f01ffc9a7000000000000000000000000000000000000000000000000000000007bffffffffffffffffffffffffffffffffffffffffffffffffffffffff1916827bffffffffffffffffffffffffffffffffffffffffffffffffffffffff1916149050919050565b600033905090565b600073ffffffffffffffffffffffffffffffffffffffff168473ffffffffffffffffffffffffffffffffffffffff16036115955760006040517f57f447ce00000000000000000000000000000000000000000000000000000000815260040161158c9190612da5565b60405180910390fd5b600073ffffffffffffffffffffffffffffffffffffffff168573ffffffffffffffffffffffffffffffffffffffff16036116075760006040517f01a835140000000000000000000000000000000000000000000000000000000081526004016115fe9190612da5565b60405180910390fd5b6116148585858585611b4b565b5050505050565b600073ffffffffffffffffffffffffffffffffffffffff168373ffffffffffffffffffffffffffffffffffffffff160361168d5760006040517f01a835140000000000000000000000000000000000000000000000000000000081526004016116849190612da5565b60405180910390fd5b60008061169a8484611bfd565b915091506116bb856000848460405180602001604052806000815250611b4b565b5050505050565b6116ca61151b565b73ffffffffffffffffffffffffffffffffffffffff166116e86110b2565b73ffffffffffffffffffffffffffffffffffffffff16146117475761170b61151b565b6040517f118cdaa700000000000000000000000000000000000000000000000000000000815260040161173e9190612da5565b60405180910390fd5b565b600073ffffffffffffffffffffffffffffffffffffffff168473ffffffffffffffffffffffffffffffffffffffff16036117bb5760006040517f57f447ce0000000000000000000000000000000000000000000000000000000081526004016117b29190612da5565b60405180910390fd5b6000806117c88585611bfd565b915091506117da600087848487611b4b565b505050505050565b600060208202602084010151905092915050565b600060208202602084010151905092915050565b6000600360009054906101000a900473ffffffffffffffffffffffffffffffffffffffff16905081600360006101000a81548173ffffffffffffffffffffffffffffffffffffffff021916908373ffffffffffffffffffffffffffffffffffffffff1602179055508173ffffffffffffffffffffffffffffffffffffffff168173ffffffffffffffffffffffffffffffffffffffff167f8be0079c531659141344cd1fd0a4f28419497f9722a3daafe3b4186f6b6457e060405160405180910390a35050565b600073ffffffffffffffffffffffffffffffffffffffff168273ffffffffffffffffffffffffffffffffffffffff16036119425760006040517fced3e1000000000000000000000000000000000000000000000000000000000081526004016119399190612da5565b60405180910390fd5b80600160008573ffffffffffffffffffffffffffffffffffffffff1673ffffffffffffffffffffffffffffffffffffffff16815260200190815260200160002060008473ffffffffffffffffffffffffffffffffffffffff1673ffffffffffffffffffffffffffffffffffffffff16815260200190815260200160002060006101000a81548160ff0219169083151502179055508173ffffffffffffffffffffffffffffffffffffffff168373ffffffffffffffffffffffffffffffffffffffff167f17307eab39ab6107e8899845ad3d59bd9653f200f220920489ca2b5937696c3183604051611a3391906124ef565b60405180910390a3505050565b600073ffffffffffffffffffffffffffffffffffffffff168473ffffffffffffffffffffffffffffffffffffffff1603611ab25760006040517f57f447ce000000000000000000000000000000000000000000000000000000008152600401611aa99190612da5565b60405180910390fd5b600073ffffffffffffffffffffffffffffffffffffffff168573ffffffffffffffffffffffffffffffffffffffff1603611b245760006040517f01a83514000000000000000000000000000000000000000000000000000000008152600401611b1b9190612da5565b60405180910390fd5b600080611b318585611bfd565b91509150611b428787848487611b4b565b50505050505050565b611b5785858585611c2d565b600073ffffffffffffffffffffffffffffffffffffffff168473ffffffffffffffffffffffffffffffffffffffff1614611bf6576000611b9561151b565b90506001845103611be5576000611bb66000866117f690919063ffffffff16565b90506000611bce6000866117f690919063ffffffff16565b9050611bde838989858589611fd5565b5050611bf4565b611bf3818787878787612189565b5b505b5050505050565b60608060405191506001825283602083015260408201905060018152826020820152604081016040529250929050565b8051825114611c7757815181516040517f5b059991000000000000000000000000000000000000000000000000000000008152600401611c6e9291906133be565b60405180910390fd5b6000611c8161151b565b905060005b8351811015611e90576000611ca482866117f690919063ffffffff16565b90506000611cbb83866117f690919063ffffffff16565b9050600073ffffffffffffffffffffffffffffffffffffffff168873ffffffffffffffffffffffffffffffffffffffff1614611de857600080600084815260200190815260200160002060008a73ffffffffffffffffffffffffffffffffffffffff1673ffffffffffffffffffffffffffffffffffffffff16815260200190815260200160002054905081811015611d9057888183856040517f03dee4c5000000000000000000000000000000000000000000000000000000008152600401611d879493929190613416565b60405180910390fd5b81810360008085815260200190815260200160002060008b73ffffffffffffffffffffffffffffffffffffffff1673ffffffffffffffffffffffffffffffffffffffff16815260200190815260200160002081905550505b600073ffffffffffffffffffffffffffffffffffffffff168773ffffffffffffffffffffffffffffffffffffffff1614611e83578060008084815260200190815260200160002060008973ffffffffffffffffffffffffffffffffffffffff1673ffffffffffffffffffffffffffffffffffffffff1681526020019081526020016000206000828254611e7b919061345b565b925050819055505b5050806001019050611c86565b506001835103611f4f576000611eb06000856117f690919063ffffffff16565b90506000611ec86000856117f690919063ffffffff16565b90508573ffffffffffffffffffffffffffffffffffffffff168773ffffffffffffffffffffffffffffffffffffffff168473ffffffffffffffffffffffffffffffffffffffff167fc3d58168c5ae7397731d063d5bbf3d657854427343f4c083240f7aacaa2d0f628585604051611f409291906133be565b60405180910390a45050611fce565b8373ffffffffffffffffffffffffffffffffffffffff168573ffffffffffffffffffffffffffffffffffffffff168273ffffffffffffffffffffffffffffffffffffffff167f4a39dc06d4c0dbc64b70af90fd698a233a518aa5d07e595d983b8c0526c8f7fb8686604051611fc592919061348f565b60405180910390a45b5050505050565b60008473ffffffffffffffffffffffffffffffffffffffff163b1115612181578373ffffffffffffffffffffffffffffffffffffffff1663f23a6e6187878686866040518663ffffffff1660e01b815260040161203695949392919061351b565b6020604051808303816000875af192505050801561207257506040513d601f19601f8201168201806040525081019061206f919061358a565b60015b6120f6573d80600081146120a2576040519150601f19603f3d011682016040523d82523d6000602084013e6120a7565b606091505b5060008151036120ee57846040517f57f447ce0000000000000000000000000000000000000000000000000000000081526004016120e59190612da5565b60405180910390fd5b805181602001fd5b63f23a6e6160e01b7bffffffffffffffffffffffffffffffffffffffffffffffffffffffff1916817bffffffffffffffffffffffffffffffffffffffffffffffffffffffff19161461217f57846040517f57f447ce0000000000000000000000000000000000000000000000000000000081526004016121769190612da5565b60405180910390fd5b505b505050505050565b60008473ffffffffffffffffffffffffffffffffffffffff163b1115612335578373ffffffffffffffffffffffffffffffffffffffff1663bc197c8187878686866040518663ffffffff1660e01b81526004016121ea9594939291906135b7565b6020604051808303816000875af192505050801561222657506040513d601f19601f82011682018060405250810190612223919061358a565b60015b6122aa573d8060008114612256576040519150601f19603f3d011682016040523d82523d6000602084013e61225b565b606091505b5060008151036122a257846040517f57f447ce0000000000000000000000000000000000000000000000000000000081526004016122999190612da5565b60405180910390fd5b805181602001fd5b63bc197c8160e01b7bffffffffffffffffffffffffffffffffffffffffffffffffffffffff1916817bffffffffffffffffffffffffffffffffffffffffffffffffffffffff19161461233357846040517f57f447ce00000000000000000000000000000000000000000000000000000000815260040161232a9190612da5565b60405180910390fd5b505b505050505050565b6000604051905090565b600080fd5b600080fd5b600073ffffffffffffffffffffffffffffffffffffffff82169050919050565b600061237c82612351565b9050919050565b61238c81612371565b811461239757600080fd5b50565b6000813590506123a981612383565b92915050565b6000819050919050565b6123c2816123af565b81146123cd57600080fd5b50565b6000813590506123df816123b9565b92915050565b600080604083850312156123fc576123fb612347565b5b600061240a8582860161239a565b925050602061241b858286016123d0565b9150509250929050565b61242e816123af565b82525050565b60006020820190506124496000830184612425565b92915050565b60007fffffffff0000000000000000000000000000000000000000000000000000000082169050919050565b6124848161244f565b811461248f57600080fd5b50565b6000813590506124a18161247b565b92915050565b6000602082840312156124bd576124bc612347565b5b60006124cb84828501612492565b91505092915050565b60008115159050919050565b6124e9816124d4565b82525050565b600060208201905061250460008301846124e0565b92915050565b6000602082840312156125205761251f612347565b5b600061252e848285016123d0565b91505092915050565b600081519050919050565b600082825260208201905092915050565b60005b83811015612571578082015181840152602081019050612556565b60008484015250505050565b6000601f19601f8301169050919050565b600061259982612537565b6125a38185612542565b93506125b3818560208601612553565b6125bc8161257d565b840191505092915050565b600060208201905081810360008301526125e1818461258e565b905092915050565b60008060408385031215612600576125ff612347565b5b600061260e858286016123d0565b925050602061261f8582860161239a565b9150509250929050565b600080fd5b7f4e487b7100000000000000000000000000000000000000000000000000000000600052604160045260246000fd5b6126668261257d565b810181811067ffffffffffffffff821117156126855761268461262e565b5b80604052505050565b600061269861233d565b90506126a4828261265d565b919050565b600067ffffffffffffffff8211156126c4576126c361262e565b5b602082029050602081019050919050565b600080fd5b60006126ed6126e8846126a9565b61268e565b905080838252602082019050602084028301858111156127105761270f6126d5565b5b835b81811015612739578061272588826123d0565b845260208401935050602081019050612712565b5050509392505050565b600082601f83011261275857612757612629565b5b81356127688482602086016126da565b91505092915050565b600080fd5b600067ffffffffffffffff8211156127915761279061262e565b5b61279a8261257d565b9050602081019050919050565b82818337600083830152505050565b60006127c96127c484612776565b61268e565b9050828152602081018484840111156127e5576127e4612771565b5b6127f08482856127a7565b509392505050565b600082601f83011261280d5761280c612629565b5b813561281d8482602086016127b6565b91505092915050565b600080600080600060a0868803121561284257612841612347565b5b60006128508882890161239a565b95505060206128618882890161239a565b945050604086013567ffffffffffffffff8111156128825761288161234c565b5b61288e88828901612743565b935050606086013567ffffffffffffffff8111156128af576128ae61234c565b5b6128bb88828901612743565b925050608086013567ffffffffffffffff8111156128dc576128db61234c565b5b6128e8888289016127f8565b9150509295509295909350565b6000806040838503121561290c5761290b612347565b5b600061291a858286016123d0565b925050602061292b858286016123d0565b9150509250929050565b600067ffffffffffffffff8211156129505761294f61262e565b5b6129598261257d565b9050602081019050919050565b600061297961297484612935565b61268e565b90508281526020810184848401111561299557612994612771565b5b6129a08482856127a7565b509392505050565b600082601f8301126129bd576129bc612629565b5b81356129cd848260208601612966565b91505092915050565b60008060008060008060c087890312156129f3576129f2612347565b5b6000612a0189828a016123d0565b9650506020612a1289828a016123d0565b955050604087013567ffffffffffffffff811115612a3357612a3261234c565b5b612a3f89828a016129a8565b945050606087013567ffffffffffffffff811115612a6057612a5f61234c565b5b612a6c89828a016129a8565b9350506080612a7d89828a016123d0565b92505060a087013567ffffffffffffffff811115612a9e57612a9d61234c565b5b612aaa89828a016129a8565b9150509295509295509295565b600067ffffffffffffffff821115612ad257612ad161262e565b5b602082029050602081019050919050565b6000612af6612af184612ab7565b61268e565b90508083825260208201905060208402830185811115612b1957612b186126d5565b5b835b81811015612b425780612b2e888261239a565b845260208401935050602081019050612b1b565b5050509392505050565b600082601f830112612b6157612b60612629565b5b8135612b71848260208601612ae3565b91505092915050565b60008060408385031215612b9157612b90612347565b5b600083013567ffffffffffffffff811115612baf57612bae61234c565b5b612bbb85828601612b4c565b925050602083013567ffffffffffffffff811115612bdc57612bdb61234c565b5b612be885828601612743565b9150509250929050565b600081519050919050565b600082825260208201905092915050565b6000819050602082019050919050565b612c27816123af565b82525050565b6000612c398383612c1e565b60208301905092915050565b6000602082019050919050565b6000612c5d82612bf2565b612c678185612bfd565b9350612c7283612c0e565b8060005b83811015612ca3578151612c8a8882612c2d565b9750612c9583612c45565b925050600181019050612c76565b5085935050505092915050565b60006020820190508181036000830152612cca8184612c52565b905092915050565b60008060408385031215612ce957612ce8612347565b5b6000612cf7858286016123d0565b925050602083013567ffffffffffffffff811115612d1857612d1761234c565b5b612d24858286016129a8565b9150509250929050565b612d3781612371565b82525050565b600060a0820190508181036000830152612d57818861258e565b90508181036020830152612d6b818761258e565b9050612d7a6040830186612425565b8181036060830152612d8c818561258e565b9050612d9b6080830184612d2e565b9695505050505050565b6000602082019050612dba6000830184612d2e565b92915050565b612dc9816124d4565b8114612dd457600080fd5b50565b600081359050612de681612dc0565b92915050565b60008060408385031215612e0357612e02612347565b5b6000612e118582860161239a565b9250506020612e2285828601612dd7565b9150509250929050565b60008060408385031215612e4357612e42612347565b5b6000612e518582860161239a565b9250506020612e628582860161239a565b9150509250929050565b600080600080600060a08688031215612e8857612e87612347565b5b6000612e968882890161239a565b9550506020612ea78882890161239a565b9450506040612eb8888289016123d0565b9350506060612ec9888289016123d0565b925050608086013567ffffffffffffffff811115612eea57612ee961234c565b5b612ef6888289016127f8565b9150509295509295909350565b600060208284031215612f1957612f18612347565b5b6000612f278482850161239a565b91505092915050565b7f4e487b7100000000000000000000000000000000000000000000000000000000600052602260045260246000fd5b60006002820490506001821680612f7757607f821691505b602082108103612f8a57612f89612f30565b5b50919050565b7f4f6e6c792063757272656e74206f776e65722063616e207472616e736665722060008201527f6f776e6572736869700000000000000000000000000000000000000000000000602082015250565b6000612fec602983612542565b9150612ff782612f90565b604082019050919050565b6000602082019050818103600083015261301b81612fdf565b9050919050565b60006040820190506130376000830185612d2e565b6130446020830184612d2e565b9392505050565b7f4f6e6c79207468652063757272656e74206f776e65722063616e206275726e2060008201527f7468697320746f6b656e00000000000000000000000000000000000000000000602082015250565b60006130a7602a83612542565b91506130b28261304b565b604082019050919050565b600060208201905081810360008301526130d68161309a565b9050919050565b7f4e487b7100000000000000000000000000000000000000000000000000000000600052601160045260246000fd5b6000613117826123af565b9150613122836123af565b925082820390508181111561313a576131396130dd565b5b92915050565b60008190508160005260206000209050919050565b60006020601f8301049050919050565b600082821b905092915050565b6000600883026131a27fffffffffffffffffffffffffffffffffffffffffffffffffffffffffffffffff82613165565b6131ac8683613165565b95508019841693508086168417925050509392505050565b6000819050919050565b60006131e96131e46131df846123af565b6131c4565b6123af565b9050919050565b6000819050919050565b613203836131ce565b61321761320f826131f0565b848454613172565b825550505050565b600090565b61322c61321f565b6132378184846131fa565b505050565b5b8181101561325b57613250600082613224565b60018101905061323d565b5050565b601f8211156132a05761327181613140565b61327a84613155565b81016020851015613289578190505b61329d61329585613155565b83018261323c565b50505b505050565b600082821c905092915050565b60006132c3600019846008026132a5565b1980831691505092915050565b60006132dc83836132b2565b9150826002028217905092915050565b6132f582612537565b67ffffffffffffffff81111561330e5761330d61262e565b5b6133188254612f5f565b61332382828561325f565b600060209050601f8311600181146133565760008415613344578287015190505b61334e85826132d0565b8655506133b6565b601f19841661336486613140565b60005b8281101561338c57848901518255600182019150602085019450602081019050613367565b868310156133a957848901516133a5601f8916826132b2565b8355505b6001600288020188555050505b505050505050565b60006040820190506133d36000830185612425565b6133e06020830184612425565b9392505050565b7f4e487b7100000000000000000000000000000000000000000000000000000000600052603260045260246000fd5b600060808201905061342b6000830187612d2e565b6134386020830186612425565b6134456040830185612425565b6134526060830184612425565b95945050505050565b6000613466826123af565b9150613471836123af565b9250828201905080821115613489576134886130dd565b5b92915050565b600060408201905081810360008301526134a98185612c52565b905081810360208301526134bd8184612c52565b90509392505050565b600081519050919050565b600082825260208201905092915050565b60006134ed826134c6565b6134f781856134d1565b9350613507818560208601612553565b6135108161257d565b840191505092915050565b600060a0820190506135306000830188612d2e565b61353d6020830187612d2e565b61354a6040830186612425565b6135576060830185612425565b818103608083015261356981846134e2565b90509695505050505050565b6000815190506135848161247b565b92915050565b6000602082840312156135a05761359f612347565b5b60006135ae84828501613575565b91505092915050565b600060a0820190506135cc6000830188612d2e565b6135d96020830187612d2e565b81810360408301526135eb8186612c52565b905081810360608301526135ff8185612c52565b9050818103608083015261361381846134e2565b9050969550505050505056fea2646970667358221220616d4ab82b68e3119eb2be5c6657962f1a1bdbb28f5811e014a47ee651b0f69464736f6c634300081b0033",
  "linkReferences": {},
  "deployedLinkReferences": {}
}