{
  "_format": "hh-sol-artifact-1",
  "contractName": "ProductRegistry",
  "sourceName": "contracts/Product.sol",
  "abi": [
    {
      "anonymous": false,
      "inputs": [
        {
          "indexed": true,
          "internalType": "string",
          "name": "id",
          "type": "string"
        },
        {
          "indexed": false,
          "internalType": "string",
          "name": "name",
          "type": "string"
        },
        {
          "indexed": false,
          "internalType": "uint256",
          "name": "price",
          "type": "uint256"
        },
        {
          "indexed": false,
          "internalType": "bytes32",
          "name": "blockHash",
          "type": "bytes32"
        }
      ],
      "name": "ProductAdded",
      "type": "event"
    },
    {
      "anonymous": false,
      "inputs": [
        {
          "indexed": true,
          "internalType": "string",
          "name": "id",
          "type": "string"
        },
        {
          "indexed": false,
          "internalType": "string",
          "name": "name",
          "type": "string"
        },
        {
          "indexed": false,
          "internalType": "uint256",
          "name": "price",
          "type": "uint256"
        }
      ],
      "name": "ProductUpdated",
      "type": "event"
    },
    {
      "inputs": [
        {
          "internalType": "string",
          "name": "_id",
          "type": "string"
        },
        {
          "internalType": "string",
          "name": "_name",
          "type": "string"
        },
        {
          "internalType": "string",
          "name": "_description",
          "type": "string"
        },
        {
          "internalType": "uint256",
          "name": "_price",
          "type": "uint256"
        },
        {
          "internalType": "uint256",
          "name": "_quantity",
          "type": "uint256"
        },
        {
          "internalType": "string",
          "name": "_status",
          "type": "string"
        },
        {
          "internalType": "string",
          "name": "_ipfsUrl",
          "type": "string"
        }
      ],
      "name": "addProduct",
      "outputs": [],
      "stateMutability": "nonpayable",
      "type": "function"
    },
    {
      "inputs": [
        {
          "internalType": "string",
          "name": "_id",
          "type": "string"
        }
      ],
      "name": "getProduct",
      "outputs": [
        {
          "internalType": "string",
          "name": "name",
          "type": "string"
        },
        {
          "internalType": "string",
          "name": "description",
          "type": "string"
        },
        {
          "internalType": "uint256",
          "name": "price",
          "type": "uint256"
        },
        {
          "internalType": "uint256",
          "name": "quantity",
          "type": "uint256"
        },
        {
          "internalType": "string",
          "name": "status",
          "type": "string"
        },
        {
          "internalType": "string",
          "name": "ipfsUrl",
          "type": "string"
        }
      ],
      "stateMutability": "view",
      "type": "function"
    },
    {
      "inputs": [
        {
          "internalType": "string",
          "name": "_id",
          "type": "string"
        },
        {
          "internalType": "string",
          "name": "_name",
          "type": "string"
        },
        {
          "internalType": "string",
          "name": "_description",
          "type": "string"
        },
        {
          "internalType": "uint256",
          "name": "_price",
          "type": "uint256"
        },
        {
          "internalType": "uint256",
          "name": "_quantity",
          "type": "uint256"
        },
        {
          "internalType": "string",
          "name": "_status",
          "type": "string"
        },
        {
          "internalType": "string",
          "name": "_ipfsUrl",
          "type": "string"
        }
      ],
      "name": "updateProduct",
      "outputs": [],
      "stateMutability": "nonpayable",
      "type": "function"
    }
  ],
  "bytecode": "0x6080604052348015600f57600080fd5b506110898061001f6000396000f3fe608060405234801561001057600080fd5b50600436106100415760003560e01c80630a2021d6146100465780632dd264b31461006257806368111cce1461007e575b600080fd5b610060600480360381019061005b9190610941565b6100b3565b005b61007c60048036038101906100779190610941565b6102b7565b005b61009860048036038101906100939190610a6f565b6104b8565b6040516100aa96959493929190610b46565b60405180910390f35b600080886040516100c49190610bff565b908152602001604051809103902060000180546100e090610c45565b905014610122576040517f08c379a000000000000000000000000000000000000000000000000000000000815260040161011990610cc2565b60405180910390fd5b6040518061010001604052808881526020018781526020018681526020018581526020018481526020018381526020018281526020013373ffffffffffffffffffffffffffffffffffffffff168152506000886040516101829190610bff565b908152602001604051809103902060008201518160000190816101a59190610e8e565b5060208201518160010190816101bb9190610e8e565b5060408201518160020190816101d19190610e8e565b50606082015181600301556080820151816004015560a08201518160050190816101fb9190610e8e565b5060c08201518160060190816102119190610e8e565b5060e08201518160070160006101000a81548173ffffffffffffffffffffffffffffffffffffffff021916908373ffffffffffffffffffffffffffffffffffffffff1602179055509050508660405161026a9190610bff565b60405180910390207f39d1a827bff748296ea80126b80ba1681054102346da3618aed9e39e956e6757878643406040516102a693929190610f79565b60405180910390a250505050505050565b600080886040516102c89190610bff565b908152602001604051809103902060000180546102e490610c45565b905003610326576040517f08c379a000000000000000000000000000000000000000000000000000000000815260040161031d90611003565b60405180910390fd5b6040518061010001604052808881526020018781526020018681526020018581526020018481526020018381526020018281526020013373ffffffffffffffffffffffffffffffffffffffff168152506000886040516103869190610bff565b908152602001604051809103902060008201518160000190816103a99190610e8e565b5060208201518160010190816103bf9190610e8e565b5060408201518160020190816103d59190610e8e565b50606082015181600301556080820151816004015560a08201518160050190816103ff9190610e8e565b5060c08201518160060190816104159190610e8e565b5060e08201518160070160006101000a81548173ffffffffffffffffffffffffffffffffffffffff021916908373ffffffffffffffffffffffffffffffffffffffff1602179055509050508660405161046e9190610bff565b60405180910390207f28d04b3a3fb9170b3ad1f62a6d7aa849ab48dfa59927a94c270dd47597eaa82d87866040516104a7929190611023565b60405180910390a250505050505050565b606080600080606080600080886040516104d29190610bff565b908152602001604051809103902060000180546104ee90610c45565b905003610530576040517f08c379a000000000000000000000000000000000000000000000000000000000815260040161052790611003565b60405180910390fd5b600080886040516105419190610bff565b90815260200160405180910390209050806001018160020182600301548360040154846005018560060185805461057790610c45565b80601f01602080910402602001604051908101604052809291908181526020018280546105a390610c45565b80156105f05780601f106105c5576101008083540402835291602001916105f0565b820191906000526020600020905b8154815290600101906020018083116105d357829003601f168201915b5050505050955084805461060390610c45565b80601f016020809104026020016040519081016040528092919081815260200182805461062f90610c45565b801561067c5780601f106106515761010080835404028352916020019161067c565b820191906000526020600020905b81548152906001019060200180831161065f57829003601f168201915b5050505050945081805461068f90610c45565b80601f01602080910402602001604051908101604052809291908181526020018280546106bb90610c45565b80156107085780601f106106dd57610100808354040283529160200191610708565b820191906000526020600020905b8154815290600101906020018083116106eb57829003601f168201915b5050505050915080805461071b90610c45565b80601f016020809104026020016040519081016040528092919081815260200182805461074790610c45565b80156107945780601f1061076957610100808354040283529160200191610794565b820191906000526020600020905b81548152906001019060200180831161077757829003601f168201915b505050505090509650965096509650965096505091939550919395565b6000604051905090565b600080fd5b600080fd5b600080fd5b600080fd5b6000601f19601f8301169050919050565b7f4e487b7100000000000000000000000000000000000000000000000000000000600052604160045260246000fd5b610818826107cf565b810181811067ffffffffffffffff82111715610837576108366107e0565b5b80604052505050565b600061084a6107b1565b9050610856828261080f565b919050565b600067ffffffffffffffff821115610876576108756107e0565b5b61087f826107cf565b9050602081019050919050565b82818337600083830152505050565b60006108ae6108a98461085b565b610840565b9050828152602081018484840111156108ca576108c96107ca565b5b6108d584828561088c565b509392505050565b600082601f8301126108f2576108f16107c5565b5b813561090284826020860161089b565b91505092915050565b6000819050919050565b61091e8161090b565b811461092957600080fd5b50565b60008135905061093b81610915565b92915050565b600080600080600080600060e0888a0312156109605761095f6107bb565b5b600088013567ffffffffffffffff81111561097e5761097d6107c0565b5b61098a8a828b016108dd565b975050602088013567ffffffffffffffff8111156109ab576109aa6107c0565b5b6109b78a828b016108dd565b965050604088013567ffffffffffffffff8111156109d8576109d76107c0565b5b6109e48a828b016108dd565b95505060606109f58a828b0161092c565b9450506080610a068a828b0161092c565b93505060a088013567ffffffffffffffff811115610a2757610a266107c0565b5b610a338a828b016108dd565b92505060c088013567ffffffffffffffff811115610a5457610a536107c0565b5b610a608a828b016108dd565b91505092959891949750929550565b600060208284031215610a8557610a846107bb565b5b600082013567ffffffffffffffff811115610aa357610aa26107c0565b5b610aaf848285016108dd565b91505092915050565b600081519050919050565b600082825260208201905092915050565b60005b83811015610af2578082015181840152602081019050610ad7565b60008484015250505050565b6000610b0982610ab8565b610b138185610ac3565b9350610b23818560208601610ad4565b610b2c816107cf565b840191505092915050565b610b408161090b565b82525050565b600060c0820190508181036000830152610b608189610afe565b90508181036020830152610b748188610afe565b9050610b836040830187610b37565b610b906060830186610b37565b8181036080830152610ba28185610afe565b905081810360a0830152610bb68184610afe565b9050979650505050505050565b600081905092915050565b6000610bd982610ab8565b610be38185610bc3565b9350610bf3818560208601610ad4565b80840191505092915050565b6000610c0b8284610bce565b915081905092915050565b7f4e487b7100000000000000000000000000000000000000000000000000000000600052602260045260246000fd5b60006002820490506001821680610c5d57607f821691505b602082108103610c7057610c6f610c16565b5b50919050565b7f50726f6475637420494420616c72656164792065786973747300000000000000600082015250565b6000610cac601983610ac3565b9150610cb782610c76565b602082019050919050565b60006020820190508181036000830152610cdb81610c9f565b9050919050565b60008190508160005260206000209050919050565b60006020601f8301049050919050565b600082821b905092915050565b600060088302610d447fffffffffffffffffffffffffffffffffffffffffffffffffffffffffffffffff82610d07565b610d4e8683610d07565b95508019841693508086168417925050509392505050565b6000819050919050565b6000610d8b610d86610d818461090b565b610d66565b61090b565b9050919050565b6000819050919050565b610da583610d70565b610db9610db182610d92565b848454610d14565b825550505050565b600090565b610dce610dc1565b610dd9818484610d9c565b505050565b5b81811015610dfd57610df2600082610dc6565b600181019050610ddf565b5050565b601f821115610e4257610e1381610ce2565b610e1c84610cf7565b81016020851015610e2b578190505b610e3f610e3785610cf7565b830182610dde565b50505b505050565b600082821c905092915050565b6000610e6560001984600802610e47565b1980831691505092915050565b6000610e7e8383610e54565b9150826002028217905092915050565b610e9782610ab8565b67ffffffffffffffff811115610eb057610eaf6107e0565b5b610eba8254610c45565b610ec5828285610e01565b600060209050601f831160018114610ef85760008415610ee6578287015190505b610ef08582610e72565b865550610f58565b601f198416610f0686610ce2565b60005b82811015610f2e57848901518255600182019150602085019450602081019050610f09565b86831015610f4b5784890151610f47601f891682610e54565b8355505b6001600288020188555050505b505050505050565b6000819050919050565b610f7381610f60565b82525050565b60006060820190508181036000830152610f938186610afe565b9050610fa26020830185610b37565b610faf6040830184610f6a565b949350505050565b7f50726f64756374206e6f7420666f756e64000000000000000000000000000000600082015250565b6000610fed601183610ac3565b9150610ff882610fb7565b602082019050919050565b6000602082019050818103600083015261101c81610fe0565b9050919050565b6000604082019050818103600083015261103d8185610afe565b905061104c6020830184610b37565b939250505056fea26469706673582212206b8c0e75dd25fb2abcc4f79bd010bd0b0de91871422014e8ef07720b51d5e87d64736f6c634300081b0033",
  "linkReferences": {},
  "deployedLinkReferences": {}
}