{
  "_format": "hh-sol-artifact-1",
  "contractName": "ProductManager",
  "sourceName": "contracts/Product.sol",
  "abi": [
    {
      "inputs": [],
      "stateMutability": "nonpayable",
      "type": "constructor"
    },
    {
      "inputs": [
        {
          "internalType": "address",
          "name": "sender",
          "type": "address"
        },
        {
          "internalType": "uint256",
          "name": "balance",
          "type": "uint256"
        },
        {
          "internalType": "uint256",
          "name": "needed",
          "type": "uint256"
        },
        {
          "internalType": "uint256",
          "name": "tokenId",
          "type": "uint256"
        }
      ],
      "name": "ERC1155InsufficientBalance",
      "type": "error"
    },
    {
      "inputs": [
        {
          "internalType": "address",
          "name": "approver",
          "type": "address"
        }
      ],
      "name": "ERC1155InvalidApprover",
      "type": "error"
    },
    {
      "inputs": [
        {
          "internalType": "uint256",
          "name": "idsLength",
          "type": "uint256"
        },
        {
          "internalType": "uint256",
          "name": "valuesLength",
          "type": "uint256"
        }
      ],
      "name": "ERC1155InvalidArrayLength",
      "type": "error"
    },
    {
      "inputs": [
        {
          "internalType": "address",
          "name": "operator",
          "type": "address"
        }
      ],
      "name": "ERC1155InvalidOperator",
      "type": "error"
    },
    {
      "inputs": [
        {
          "internalType": "address",
          "name": "receiver",
          "type": "address"
        }
      ],
      "name": "ERC1155InvalidReceiver",
      "type": "error"
    },
    {
      "inputs": [
        {
          "internalType": "address",
          "name": "sender",
          "type": "address"
        }
      ],
      "name": "ERC1155InvalidSender",
      "type": "error"
    },
    {
      "inputs": [
        {
          "internalType": "address",
          "name": "operator",
          "type": "address"
        },
        {
          "internalType": "address",
          "name": "owner",
          "type": "address"
        }
      ],
      "name": "ERC1155MissingApprovalForAll",
      "type": "error"
    },
    {
      "inputs": [
        {
          "internalType": "address",
          "name": "owner",
          "type": "address"
        }
      ],
      "name": "OwnableInvalidOwner",
      "type": "error"
    },
    {
      "inputs": [
        {
          "internalType": "address",
          "name": "account",
          "type": "address"
        }
      ],
      "name": "OwnableUnauthorizedAccount",
      "type": "error"
    },
    {
      "anonymous": false,
      "inputs": [
        {
          "indexed": true,
          "internalType": "address",
          "name": "account",
          "type": "address"
        },
        {
          "indexed": true,
          "internalType": "address",
          "name": "operator",
          "type": "address"
        },
        {
          "indexed": false,
          "internalType": "bool",
          "name": "approved",
          "type": "bool"
        }
      ],
      "name": "ApprovalForAll",
      "type": "event"
    },
    {
      "anonymous": false,
      "inputs": [
        {
          "indexed": true,
          "internalType": "address",
          "name": "previousOwner",
          "type": "address"
        },
        {
          "indexed": true,
          "internalType": "address",
          "name": "newOwner",
          "type": "address"
        }
      ],
      "name": "OwnershipTransferred",
      "type": "event"
    },
    {
      "anonymous": false,
      "inputs": [
        {
          "indexed": true,
          "internalType": "uint256",
          "name": "tokenId",
          "type": "uint256"
        },
        {
          "indexed": false,
          "internalType": "string",
          "name": "action",
          "type": "string"
        },
        {
          "indexed": true,
          "internalType": "address",
          "name": "creator",
          "type": "address"
        },
        {
          "indexed": false,
          "internalType": "uint256",
          "name": "timestamp",
          "type": "uint256"
        },
        {
          "indexed": false,
          "internalType": "string",
          "name": "additionalInfo",
          "type": "string"
        }
      ],
      "name": "TokenStateChanged",
      "type": "event"
    },
    {
      "anonymous": false,
      "inputs": [
        {
          "indexed": true,
          "internalType": "address",
          "name": "operator",
          "type": "address"
        },
        {
          "indexed": true,
          "internalType": "address",
          "name": "from",
          "type": "address"
        },
        {
          "indexed": true,
          "internalType": "address",
          "name": "to",
          "type": "address"
        },
        {
          "indexed": false,
          "internalType": "uint256[]",
          "name": "ids",
          "type": "uint256[]"
        },
        {
          "indexed": false,
          "internalType": "uint256[]",
          "name": "values",
          "type": "uint256[]"
        }
      ],
      "name": "TransferBatch",
      "type": "event"
    },
    {
      "anonymous": false,
      "inputs": [
        {
          "indexed": true,
          "internalType": "address",
          "name": "operator",
          "type": "address"
        },
        {
          "indexed": true,
          "internalType": "address",
          "name": "from",
          "type": "address"
        },
        {
          "indexed": true,
          "internalType": "address",
          "name": "to",
          "type": "address"
        },
        {
          "indexed": false,
          "internalType": "uint256",
          "name": "id",
          "type": "uint256"
        },
        {
          "indexed": false,
          "internalType": "uint256",
          "name": "value",
          "type": "uint256"
        }
      ],
      "name": "TransferSingle",
      "type": "event"
    },
    {
      "anonymous": false,
      "inputs": [
        {
          "indexed": false,
          "internalType": "string",
          "name": "value",
          "type": "string"
        },
        {
          "indexed": true,
          "internalType": "uint256",
          "name": "id",
          "type": "uint256"
        }
      ],
      "name": "URI",
      "type": "event"
    },
    {
      "inputs": [
        {
          "internalType": "address",
          "name": "account",
          "type": "address"
        },
        {
          "internalType": "uint256",
          "name": "id",
          "type": "uint256"
        }
      ],
      "name": "balanceOf",
      "outputs": [
        {
          "internalType": "uint256",
          "name": "",
          "type": "uint256"
        }
      ],
      "stateMutability": "view",
      "type": "function"
    },
    {
      "inputs": [
        {
          "internalType": "address[]",
          "name": "accounts",
          "type": "address[]"
        },
        {
          "internalType": "uint256[]",
          "name": "ids",
          "type": "uint256[]"
        }
      ],
      "name": "balanceOfBatch",
      "outputs": [
        {
          "internalType": "uint256[]",
          "name": "",
          "type": "uint256[]"
        }
      ],
      "stateMutability": "view",
      "type": "function"
    },
    {
      "inputs": [
        {
          "internalType": "uint256",
          "name": "tokenId",
          "type": "uint256"
        },
        {
          "internalType": "uint256",
          "name": "amount",
          "type": "uint256"
        }
      ],
      "name": "burnProduct",
      "outputs": [],
      "stateMutability": "nonpayable",
      "type": "function"
    },
    {
      "inputs": [
        {
          "internalType": "uint256",
          "name": "",
          "type": "uint256"
        }
      ],
      "name": "currentOwner",
      "outputs": [
        {
          "internalType": "address",
          "name": "",
          "type": "address"
        }
      ],
      "stateMutability": "view",
      "type": "function"
    },
    {
      "inputs": [],
      "name": "getAllTokenIds",
      "outputs": [
        {
          "components": [
            {
              "internalType": "uint256",
              "name": "count",
              "type": "uint256"
            },
            {
              "internalType": "uint256[]",
              "name": "product_ids",
              "type": "uint256[]"
            }
          ],
          "internalType": "struct ProductManager.TokenIdsResponse",
          "name": "",
          "type": "tuple"
        }
      ],
      "stateMutability": "view",
      "type": "function"
    },
    {
      "inputs": [
        {
          "internalType": "uint256",
          "name": "tokenId",
          "type": "uint256"
        }
      ],
      "name": "getMetadataCID",
      "outputs": [
        {
          "internalType": "string",
          "name": "",
          "type": "string"
        }
      ],
      "stateMutability": "view",
      "type": "function"
    },
    {
      "inputs": [
        {
          "internalType": "uint256",
          "name": "tokenId",
          "type": "uint256"
        }
      ],
      "name": "getProductInfo",
      "outputs": [
        {
          "internalType": "string",
          "name": "",
          "type": "string"
        },
        {
          "internalType": "string",
          "name": "",
          "type": "string"
        },
        {
          "internalType": "uint256",
          "name": "",
          "type": "uint256"
        },
        {
          "internalType": "string",
          "name": "",
          "type": "string"
        },
        {
          "internalType": "address",
          "name": "",
          "type": "address"
        }
      ],
      "stateMutability": "view",
      "type": "function"
    },
    {
      "inputs": [
        {
          "internalType": "uint256",
          "name": "tokenId",
          "type": "uint256"
        }
      ],
      "name": "getTokenOwners",
      "outputs": [
        {
          "internalType": "address[]",
          "name": "",
          "type": "address[]"
        }
      ],
      "stateMutability": "view",
      "type": "function"
    },
    {
      "inputs": [
        {
          "internalType": "uint256",
          "name": "tokenId",
          "type": "uint256"
        }
      ],
      "name": "getTransactionCIDs",
      "outputs": [
        {
          "internalType": "string[]",
          "name": "",
          "type": "string[]"
        }
      ],
      "stateMutability": "view",
      "type": "function"
    },
    {
      "inputs": [
        {
          "internalType": "address",
          "name": "account",
          "type": "address"
        },
        {
          "internalType": "address",
          "name": "operator",
          "type": "address"
        }
      ],
      "name": "isApprovedForAll",
      "outputs": [
        {
          "internalType": "bool",
          "name": "",
          "type": "bool"
        }
      ],
      "stateMutability": "view",
      "type": "function"
    },
    {
      "inputs": [
        {
          "internalType": "uint256",
          "name": "tokenId",
          "type": "uint256"
        },
        {
          "internalType": "uint256",
          "name": "amount",
          "type": "uint256"
        },
        {
          "internalType": "string",
          "name": "metadataCID",
          "type": "string"
        },
        {
          "internalType": "string",
          "name": "price",
          "type": "string"
        },
        {
          "internalType": "uint256",
          "name": "quantity",
          "type": "uint256"
        },
        {
          "internalType": "string",
          "name": "status",
          "type": "string"
        }
      ],
      "name": "mintProduct",
      "outputs": [],
      "stateMutability": "nonpayable",
      "type": "function"
    },
    {
      "inputs": [],
      "name": "owner",
      "outputs": [
        {
          "internalType": "address",
          "name": "",
          "type": "address"
        }
      ],
      "stateMutability": "view",
      "type": "function"
    },
    {
      "inputs": [
        {
          "internalType": "uint256",
          "name": "",
          "type": "uint256"
        }
      ],
      "name": "productMetadata",
      "outputs": [
        {
          "internalType": "string",
          "name": "",
          "type": "string"
        }
      ],
      "stateMutability": "view",
      "type": "function"
    },
    {
      "inputs": [
        {
          "internalType": "uint256",
          "name": "",
          "type": "uint256"
        }
      ],
      "name": "productPrice",
      "outputs": [
        {
          "internalType": "string",
          "name": "",
          "type": "string"
        }
      ],
      "stateMutability": "view",
      "type": "function"
    },
    {
      "inputs": [
        {
          "internalType": "uint256",
          "name": "",
          "type": "uint256"
        }
      ],
      "name": "productQuantity",
      "outputs": [
        {
          "internalType": "uint256",
          "name": "",
          "type": "uint256"
        }
      ],
      "stateMutability": "view",
      "type": "function"
    },
    {
      "inputs": [
        {
          "internalType": "uint256",
          "name": "",
          "type": "uint256"
        }
      ],
      "name": "productStatus",
      "outputs": [
        {
          "internalType": "string",
          "name": "",
          "type": "string"
        }
      ],
      "stateMutability": "view",
      "type": "function"
    },
    {
      "inputs": [],
      "name": "renounceOwnership",
      "outputs": [],
      "stateMutability": "nonpayable",
      "type": "function"
    },
    {
      "inputs": [
        {
          "internalType": "address",
          "name": "from",
          "type": "address"
        },
        {
          "internalType": "address",
          "name": "to",
          "type": "address"
        },
        {
          "internalType": "uint256[]",
          "name": "ids",
          "type": "uint256[]"
        },
        {
          "internalType": "uint256[]",
          "name": "values",
          "type": "uint256[]"
        },
        {
          "internalType": "bytes",
          "name": "data",
          "type": "bytes"
        }
      ],
      "name": "safeBatchTransferFrom",
      "outputs": [],
      "stateMutability": "nonpayable",
      "type": "function"
    },
    {
      "inputs": [
        {
          "internalType": "address",
          "name": "from",
          "type": "address"
        },
        {
          "internalType": "address",
          "name": "to",
          "type": "address"
        },
        {
          "internalType": "uint256",
          "name": "id",
          "type": "uint256"
        },
        {
          "internalType": "uint256",
          "name": "value",
          "type": "uint256"
        },
        {
          "internalType": "bytes",
          "name": "data",
          "type": "bytes"
        }
      ],
      "name": "safeTransferFrom",
      "outputs": [],
      "stateMutability": "nonpayable",
      "type": "function"
    },
    {
      "inputs": [
        {
          "internalType": "address",
          "name": "operator",
          "type": "address"
        },
        {
          "internalType": "bool",
          "name": "approved",
          "type": "bool"
        }
      ],
      "name": "setApprovalForAll",
      "outputs": [],
      "stateMutability": "nonpayable",
      "type": "function"
    },
    {
      "inputs": [
        {
          "internalType": "uint256",
          "name": "tokenId",
          "type": "uint256"
        },
        {
          "internalType": "string",
          "name": "cid",
          "type": "string"
        }
      ],
      "name": "storeEventCID",
      "outputs": [],
      "stateMutability": "nonpayable",
      "type": "function"
    },
    {
      "inputs": [
        {
          "internalType": "bytes4",
          "name": "interfaceId",
          "type": "bytes4"
        }
      ],
      "name": "supportsInterface",
      "outputs": [
        {
          "internalType": "bool",
          "name": "",
          "type": "bool"
        }
      ],
      "stateMutability": "view",
      "type": "function"
    },
    {
      "inputs": [
        {
          "internalType": "uint256",
          "name": "",
          "type": "uint256"
        },
        {
          "internalType": "uint256",
          "name": "",
          "type": "uint256"
        }
      ],
      "name": "transactionCIDs",
      "outputs": [
        {
          "internalType": "string",
          "name": "",
          "type": "string"
        }
      ],
      "stateMutability": "view",
      "type": "function"
    },
    {
      "inputs": [
        {
          "internalType": "address",
          "name": "newOwner",
          "type": "address"
        }
      ],
      "name": "transferOwnership",
      "outputs": [],
      "stateMutability": "nonpayable",
      "type": "function"
    },
    {
      "inputs": [
        {
          "internalType": "uint256",
          "name": "tokenId",
          "type": "uint256"
        },
        {
          "internalType": "string",
          "name": "newMetadataCID",
          "type": "string"
        }
      ],
      "name": "updateMetadata",
      "outputs": [],
      "stateMutability": "nonpayable",
      "type": "function"
    },
    {
      "inputs": [
        {
          "internalType": "uint256",
          "name": "tokenId",
          "type": "uint256"
        },
        {
          "internalType": "string",
          "name": "newPrice",
          "type": "string"
        }
      ],
      "name": "updatePrice",
      "outputs": [],
      "stateMutability": "nonpayable",
      "type": "function"
    },
    {
      "inputs": [
        {
          "internalType": "uint256",
          "name": "tokenId",
          "type": "uint256"
        },
        {
          "internalType": "uint256",
          "name": "newQuantity",
          "type": "uint256"
        }
      ],
      "name": "updateQuantity",
      "outputs": [],
      "stateMutability": "nonpayable",
      "type": "function"
    },
    {
      "inputs": [
        {
          "internalType": "uint256",
          "name": "tokenId",
          "type": "uint256"
        },
        {
          "internalType": "string",
          "name": "newStatus",
          "type": "string"
        }
      ],
      "name": "updateStatus",
      "outputs": [],
      "stateMutability": "nonpayable",
      "type": "function"
    },
    {
      "inputs": [
        {
          "internalType": "uint256",
          "name": "",
          "type": "uint256"
        }
      ],
      "name": "uri",
      "outputs": [
        {
          "internalType": "string",
          "name": "",
          "type": "string"
        }
      ],
      "stateMutability": "view",
      "type": "function"
    }
  ],
  "bytecode": "0x608060405234801561001057600080fd5b50336040518060400160405280601081526020017f697066733a2f2f7b69647d2e6a736f6e00000000000000000000000000000000815250610057816100df60201b60201c565b50600073ffffffffffffffffffffffffffffffffffffffff168173ffffffffffffffffffffffffffffffffffffffff16036100ca5760006040517f1e4fbdf70000000000000000000000000000000000000000000000000000000081526004016100c191906101f9565b60405180910390fd5b6100d9816100f260201b60201c565b50610536565b80600290816100ee9190610464565b5050565b6000600360009054906101000a900473ffffffffffffffffffffffffffffffffffffffff16905081600360006101000a81548173ffffffffffffffffffffffffffffffffffffffff021916908373ffffffffffffffffffffffffffffffffffffffff1602179055508173ffffffffffffffffffffffffffffffffffffffff168173ffffffffffffffffffffffffffffffffffffffff167f8be0079c531659141344cd1fd0a4f28419497f9722a3daafe3b4186f6b6457e060405160405180910390a35050565b600073ffffffffffffffffffffffffffffffffffffffff82169050919050565b60006101e3826101b8565b9050919050565b6101f3816101d8565b82525050565b600060208201905061020e60008301846101ea565b92915050565b600081519050919050565b7f4e487b7100000000000000000000000000000000000000000000000000000000600052604160045260246000fd5b7f4e487b7100000000000000000000000000000000000000000000000000000000600052602260045260246000fd5b6000600282049050600182168061029557607f821691505b6020821081036102a8576102a761024e565b5b50919050565b60008190508160005260206000209050919050565b60006020601f8301049050919050565b600082821b905092915050565b6000600883026103107fffffffffffffffffffffffffffffffffffffffffffffffffffffffffffffffff826102d3565b61031a86836102d3565b95508019841693508086168417925050509392505050565b6000819050919050565b6000819050919050565b600061036161035c61035784610332565b61033c565b610332565b9050919050565b6000819050919050565b61037b83610346565b61038f61038782610368565b8484546102e0565b825550505050565b600090565b6103a4610397565b6103af818484610372565b505050565b5b818110156103d3576103c860008261039c565b6001810190506103b5565b5050565b601f821115610418576103e9816102ae565b6103f2846102c3565b81016020851015610401578190505b61041561040d856102c3565b8301826103b4565b50505b505050565b600082821c905092915050565b600061043b6000198460080261041d565b1980831691505092915050565b6000610454838361042a565b9150826002028217905092915050565b61046d82610214565b67ffffffffffffffff8111156104865761048561021f565b5b610490825461027d565b61049b8282856103d7565b600060209050601f8311600181146104ce57600084156104bc578287015190505b6104c68582610448565b86555061052e565b601f1984166104dc866102ae565b60005b82811015610504578489015182556001820191506020850194506020810190506104df565b86831015610521578489015161051d601f89168261042a565b8355505b6001600288020188555050505b505050505050565b6142fe806105456000396000f3fe608060405234801561001057600080fd5b50600436106101ce5760003560e01c8063715018a611610104578063a57e9537116100a2578063e985e9c511610071578063e985e9c514610589578063f242432a146105b9578063f2fde38b146105d5578063fd68b3ff146105f1576101ce565b8063a57e9537146104ef578063bdbed7221461051f578063d1b34dd81461053d578063e545110314610559576101ce565b806379cd4921116100de57806379cd4921146104695780638da5cb5b146104855780639c13bea9146104a3578063a22cb465146104d3576101ce565b8063715018a61461040f578063738c4b2c1461041957806379a85e6c14610435576101ce565b8063402842131161017157806353c8388e1161014b57806353c8388e1461037757806355cdc63114610393578063681ece9d146103c35780637103b15b146103f3576101ce565b806340284213146102fb5780634e1273f4146103175780635384550914610347576101ce565b80630ea3d3ee116101ad5780630ea3d3ee146102635780632020dc89146102935780632eb2c2d6146102c357806334286758146102df576101ce565b8062fdd58e146101d357806301ffc9a7146102035780630e89341c14610233575b600080fd5b6101ed60048036038101906101e891906129fb565b610621565b6040516101fa9190612a4a565b60405180910390f35b61021d60048036038101906102189190612abd565b61067b565b60405161022a9190612b05565b60405180910390f35b61024d60048036038101906102489190612b20565b61075d565b60405161025a9190612bdd565b60405180910390f35b61027d60048036038101906102789190612b20565b6107f1565b60405161028a9190612bdd565b60405180910390f35b6102ad60048036038101906102a89190612b20565b610891565b6040516102ba9190612a4a565b60405180910390f35b6102dd60048036038101906102d89190612dfc565b6108a9565b005b6102f960048036038101906102f49190612ecb565b610951565b005b61031560048036038101906103109190612fac565b610af5565b005b610331600480360381019061032c9190613150565b610cb9565b60405161033e9190613286565b60405180910390f35b610361600480360381019061035c9190612b20565b610dc2565b60405161036e9190612bdd565b60405180910390f35b610391600480360381019061038c91906132a8565b610e62565b005b6103ad60048036038101906103a89190612ecb565b610ee0565b6040516103ba9190612bdd565b60405180910390f35b6103dd60048036038101906103d89190612b20565b610f99565b6040516103ea91906133c2565b60405180910390f35b61040d600480360381019061040891906132a8565b61103a565b005b6104176110b8565b005b610433600480360381019061042e91906132a8565b6110cc565b005b61044f600480360381019061044a9190612b20565b611116565b6040516104609594939291906133f3565b60405180910390f35b610483600480360381019061047e9190612ecb565b611357565b005b61048d611486565b60405161049a919061345b565b60405180910390f35b6104bd60048036038101906104b89190612b20565b6114b0565b6040516104ca9190613582565b60405180910390f35b6104ed60048036038101906104e891906135d0565b61159c565b005b61050960048036038101906105049190612b20565b6115b2565b6040516105169190612bdd565b60405180910390f35b610527611657565b60405161053491906136bc565b60405180910390f35b610557600480360381019061055291906132a8565b6116d4565b005b610573600480360381019061056e9190612b20565b611752565b604051610580919061345b565b60405180910390f35b6105a3600480360381019061059e91906136de565b611785565b6040516105b09190612b05565b60405180910390f35b6105d360048036038101906105ce919061371e565b611819565b005b6105ef60048036038101906105ea91906137b5565b6118c1565b005b61060b60048036038101906106069190612b20565b611947565b6040516106189190612bdd565b60405180910390f35b600080600083815260200190815260200160002060008473ffffffffffffffffffffffffffffffffffffffff1673ffffffffffffffffffffffffffffffffffffffff16815260200190815260200160002054905092915050565b60007fd9b67a26000000000000000000000000000000000000000000000000000000007bffffffffffffffffffffffffffffffffffffffffffffffffffffffff1916827bffffffffffffffffffffffffffffffffffffffffffffffffffffffff1916148061074657507f0e89341c000000000000000000000000000000000000000000000000000000007bffffffffffffffffffffffffffffffffffffffffffffffffffffffff1916827bffffffffffffffffffffffffffffffffffffffffffffffffffffffff1916145b806107565750610755826119e7565b5b9050919050565b60606002805461076c90613811565b80601f016020809104026020016040519081016040528092919081815260200182805461079890613811565b80156107e55780601f106107ba576101008083540402835291602001916107e5565b820191906000526020600020905b8154815290600101906020018083116107c857829003601f168201915b50505050509050919050565b6007602052806000526040600020600091509050805461081090613811565b80601f016020809104026020016040519081016040528092919081815260200182805461083c90613811565b80156108895780601f1061085e57610100808354040283529160200191610889565b820191906000526020600020905b81548152906001019060200180831161086c57829003601f168201915b505050505081565b60066020528060005260406000206000915090505481565b60006108b3611a51565b90508073ffffffffffffffffffffffffffffffffffffffff168673ffffffffffffffffffffffffffffffffffffffff16141580156108f857506108f68682611785565b155b1561093c5780866040517fe237d922000000000000000000000000000000000000000000000000000000008152600401610933929190613842565b60405180910390fd5b6109498686868686611a59565b505050505050565b6008600083815260200190815260200160002060009054906101000a900473ffffffffffffffffffffffffffffffffffffffff1673ffffffffffffffffffffffffffffffffffffffff163373ffffffffffffffffffffffffffffffffffffffff16146109f2576040517f08c379a00000000000000000000000000000000000000000000000000000000081526004016109e9906138dd565b60405180910390fd5b6109fd338383611b51565b80600660008481526020019081526020016000206000828254610a20919061392c565b925050819055506000600660008481526020019081526020016000205403610aa2576040518060400160405280600d81526020017f6e6f7420617661696c61626c6500000000000000000000000000000000000000815250600760008481526020019081526020016000209081610a979190613b0c565b50610aa182611bf8565b5b3373ffffffffffffffffffffffffffffffffffffffff16827ff6098485fa1342b7ffa7d3f00cebbf7451bff0809d4dc6104af12fe4a31b7aac42604051610ae99190613c76565b60405180910390a35050565b610afd611cbe565b610b1833878760405180602001604052806000815250611d45565b83600460008881526020019081526020016000209081610b389190613b0c565b5082600560008881526020019081526020016000209081610b599190613b0c565b5081600660008881526020019081526020016000208190555080600760008881526020019081526020016000209081610b929190613b0c565b50336008600088815260200190815260200160002060006101000a81548173ffffffffffffffffffffffffffffffffffffffff021916908373ffffffffffffffffffffffffffffffffffffffff160217905550600c600087815260200190815260200160002060009054906101000a900460ff16610c6057600b8690806001815401808255809150506001900390600052602060002001600090919091909150556001600c600088815260200190815260200160002060006101000a81548160ff0219169083151502179055505b3373ffffffffffffffffffffffffffffffffffffffff16867ff6098485fa1342b7ffa7d3f00cebbf7451bff0809d4dc6104af12fe4a31b7aac4287604051610ca9929190613d03565b60405180910390a3505050505050565b60608151835114610d0557815183516040517f5b059991000000000000000000000000000000000000000000000000000000008152600401610cfc929190613d46565b60405180910390fd5b6000835167ffffffffffffffff811115610d2257610d21612c04565b5b604051908082528060200260200182016040528015610d505781602001602082028036833780820191505090505b50905060005b8451811015610db757610d8d610d758287611dde90919063ffffffff16565b610d888387611df290919063ffffffff16565b610621565b828281518110610da057610d9f613d6f565b5b602002602001018181525050806001019050610d56565b508091505092915050565b60046020528060005260406000206000915090508054610de190613811565b80601f0160208091040260200160405190810160405280929190818152602001828054610e0d90613811565b8015610e5a5780601f10610e2f57610100808354040283529160200191610e5a565b820191906000526020600020905b815481529060010190602001808311610e3d57829003601f168201915b505050505081565b610e6a611cbe565b80600460008481526020019081526020016000209081610e8a9190613b0c565b503373ffffffffffffffffffffffffffffffffffffffff16827ff6098485fa1342b7ffa7d3f00cebbf7451bff0809d4dc6104af12fe4a31b7aac4284604051610ed4929190613dea565b60405180910390a35050565b600d6020528160005260406000208181548110610efc57600080fd5b90600052602060002001600091509150508054610f1890613811565b80601f0160208091040260200160405190810160405280929190818152602001828054610f4490613811565b8015610f915780601f10610f6657610100808354040283529160200191610f91565b820191906000526020600020905b815481529060010190602001808311610f7457829003601f168201915b505050505081565b60606009600083815260200190815260200160002080548060200260200160405190810160405280929190818152602001828054801561102e57602002820191906000526020600020905b8160009054906101000a900473ffffffffffffffffffffffffffffffffffffffff1673ffffffffffffffffffffffffffffffffffffffff1681526020019060010190808311610fe4575b50505050509050919050565b611042611cbe565b806005600084815260200190815260200160002090816110629190613b0c565b503373ffffffffffffffffffffffffffffffffffffffff16827ff6098485fa1342b7ffa7d3f00cebbf7451bff0809d4dc6104af12fe4a31b7aac42846040516110ac929190613e79565b60405180910390a35050565b6110c0611cbe565b6110ca6000611e06565b565b600d6000838152602001908152602001600020819080600181540180825580915050600190039060005260206000200160009091909190915090816111119190613b0c565b505050565b60608060006060600060046000878152602001908152602001600020600560008881526020019081526020016000206006600089815260200190815260200160002054600760008a8152602001908152602001600020600860008b815260200190815260200160002060009054906101000a900473ffffffffffffffffffffffffffffffffffffffff168480546111ac90613811565b80601f01602080910402602001604051908101604052809291908181526020018280546111d890613811565b80156112255780601f106111fa57610100808354040283529160200191611225565b820191906000526020600020905b81548152906001019060200180831161120857829003601f168201915b5050505050945083805461123890613811565b80601f016020809104026020016040519081016040528092919081815260200182805461126490613811565b80156112b15780601f10611286576101008083540402835291602001916112b1565b820191906000526020600020905b81548152906001019060200180831161129457829003601f168201915b505050505093508180546112c490613811565b80601f01602080910402602001604051908101604052809291908181526020018280546112f090613811565b801561133d5780601f106113125761010080835404028352916020019161133d565b820191906000526020600020905b81548152906001019060200180831161132057829003601f168201915b505050505091509450945094509450945091939590929450565b61135f611cbe565b60006006600084815260200190815260200160002054905060008210156113bb576040517f08c379a00000000000000000000000000000000000000000000000000000000081526004016113b290613f08565b60405180910390fd5b808210156113e457600082826113d1919061392c565b90506113de338583611b51565b5061141a565b8082111561141957600081836113fa919061392c565b905061141733858360405180602001604052806000815250611d45565b505b5b8160066000858152602001908152602001600020819055503373ffffffffffffffffffffffffffffffffffffffff16837ff6098485fa1342b7ffa7d3f00cebbf7451bff0809d4dc6104af12fe4a31b7aac426040516114799190613fc0565b60405180910390a3505050565b6000600360009054906101000a900473ffffffffffffffffffffffffffffffffffffffff16905090565b6060600d6000838152602001908152602001600020805480602002602001604051908101604052809291908181526020016000905b8282101561159157838290600052602060002001805461150490613811565b80601f016020809104026020016040519081016040528092919081815260200182805461153090613811565b801561157d5780601f106115525761010080835404028352916020019161157d565b820191906000526020600020905b81548152906001019060200180831161156057829003601f168201915b5050505050815260200190600101906114e5565b505050509050919050565b6115ae6115a7611a51565b8383611ecc565b5050565b60606004600083815260200190815260200160002080546115d290613811565b80601f01602080910402602001604051908101604052809291908181526020018280546115fe90613811565b801561164b5780601f106116205761010080835404028352916020019161164b565b820191906000526020600020905b81548152906001019060200180831161162e57829003601f168201915b50505050509050919050565b61165f612939565b60006040518060400160405280600b805490508152602001600b8054806020026020016040519081016040528092919081815260200182805480156116c357602002820191906000526020600020905b8154815260200190600101908083116116af575b505050505081525090508091505090565b6116dc611cbe565b806007600084815260200190815260200160002090816116fc9190613b0c565b503373ffffffffffffffffffffffffffffffffffffffff16827ff6098485fa1342b7ffa7d3f00cebbf7451bff0809d4dc6104af12fe4a31b7aac428460405161174692919061404d565b60405180910390a35050565b60086020528060005260406000206000915054906101000a900473ffffffffffffffffffffffffffffffffffffffff1681565b6000600160008473ffffffffffffffffffffffffffffffffffffffff1673ffffffffffffffffffffffffffffffffffffffff16815260200190815260200160002060008373ffffffffffffffffffffffffffffffffffffffff1673ffffffffffffffffffffffffffffffffffffffff16815260200190815260200160002060009054906101000a900460ff16905092915050565b6000611823611a51565b90508073ffffffffffffffffffffffffffffffffffffffff168673ffffffffffffffffffffffffffffffffffffffff161415801561186857506118668682611785565b155b156118ac5780866040517fe237d9220000000000000000000000000000000000000000000000000000000081526004016118a3929190613842565b60405180910390fd5b6118b9868686868661203c565b505050505050565b6118c9611cbe565b600073ffffffffffffffffffffffffffffffffffffffff168173ffffffffffffffffffffffffffffffffffffffff160361193b5760006040517f1e4fbdf7000000000000000000000000000000000000000000000000000000008152600401611932919061345b565b60405180910390fd5b61194481611e06565b50565b6005602052806000526040600020600091509050805461196690613811565b80601f016020809104026020016040519081016040528092919081815260200182805461199290613811565b80156119df5780601f106119b4576101008083540402835291602001916119df565b820191906000526020600020905b8154815290600101906020018083116119c257829003601f168201915b505050505081565b60007f01ffc9a7000000000000000000000000000000000000000000000000000000007bffffffffffffffffffffffffffffffffffffffffffffffffffffffff1916827bffffffffffffffffffffffffffffffffffffffffffffffffffffffff1916149050919050565b600033905090565b600073ffffffffffffffffffffffffffffffffffffffff168473ffffffffffffffffffffffffffffffffffffffff1603611acb5760006040517f57f447ce000000000000000000000000000000000000000000000000000000008152600401611ac2919061345b565b60405180910390fd5b600073ffffffffffffffffffffffffffffffffffffffff168573ffffffffffffffffffffffffffffffffffffffff1603611b3d5760006040517f01a83514000000000000000000000000000000000000000000000000000000008152600401611b34919061345b565b60405180910390fd5b611b4a8585858585612147565b5050505050565b600073ffffffffffffffffffffffffffffffffffffffff168373ffffffffffffffffffffffffffffffffffffffff1603611bc35760006040517f01a83514000000000000000000000000000000000000000000000000000000008152600401611bba919061345b565b60405180910390fd5b600080611bd084846121f9565b91509150611bf1856000848460405180602001604052806000815250612147565b5050505050565b6000600b80549050905060005b81811015611cb95782600b8281548110611c2257611c21613d6f565b5b906000526020600020015403611cac57600b600183611c41919061392c565b81548110611c5257611c51613d6f565b5b9060005260206000200154600b8281548110611c7157611c70613d6f565b5b9060005260206000200181905550600b805480611c9157611c90614090565b5b60019003818190600052602060002001600090559055611cb9565b8080600101915050611c05565b505050565b611cc6611a51565b73ffffffffffffffffffffffffffffffffffffffff16611ce4611486565b73ffffffffffffffffffffffffffffffffffffffff1614611d4357611d07611a51565b6040517f118cdaa7000000000000000000000000000000000000000000000000000000008152600401611d3a919061345b565b60405180910390fd5b565b600073ffffffffffffffffffffffffffffffffffffffff168473ffffffffffffffffffffffffffffffffffffffff1603611db75760006040517f57f447ce000000000000000000000000000000000000000000000000000000008152600401611dae919061345b565b60405180910390fd5b600080611dc485856121f9565b91509150611dd6600087848487612147565b505050505050565b600060208202602084010151905092915050565b600060208202602084010151905092915050565b6000600360009054906101000a900473ffffffffffffffffffffffffffffffffffffffff16905081600360006101000a81548173ffffffffffffffffffffffffffffffffffffffff021916908373ffffffffffffffffffffffffffffffffffffffff1602179055508173ffffffffffffffffffffffffffffffffffffffff168173ffffffffffffffffffffffffffffffffffffffff167f8be0079c531659141344cd1fd0a4f28419497f9722a3daafe3b4186f6b6457e060405160405180910390a35050565b600073ffffffffffffffffffffffffffffffffffffffff168273ffffffffffffffffffffffffffffffffffffffff1603611f3e5760006040517fced3e100000000000000000000000000000000000000000000000000000000008152600401611f35919061345b565b60405180910390fd5b80600160008573ffffffffffffffffffffffffffffffffffffffff1673ffffffffffffffffffffffffffffffffffffffff16815260200190815260200160002060008473ffffffffffffffffffffffffffffffffffffffff1673ffffffffffffffffffffffffffffffffffffffff16815260200190815260200160002060006101000a81548160ff0219169083151502179055508173ffffffffffffffffffffffffffffffffffffffff168373ffffffffffffffffffffffffffffffffffffffff167f17307eab39ab6107e8899845ad3d59bd9653f200f220920489ca2b5937696c318360405161202f9190612b05565b60405180910390a3505050565b600073ffffffffffffffffffffffffffffffffffffffff168473ffffffffffffffffffffffffffffffffffffffff16036120ae5760006040517f57f447ce0000000000000000000000000000000000000000000000000000000081526004016120a5919061345b565b60405180910390fd5b600073ffffffffffffffffffffffffffffffffffffffff168573ffffffffffffffffffffffffffffffffffffffff16036121205760006040517f01a83514000000000000000000000000000000000000000000000000000000008152600401612117919061345b565b60405180910390fd5b60008061212d85856121f9565b9150915061213e8787848487612147565b50505050505050565b61215385858585612229565b600073ffffffffffffffffffffffffffffffffffffffff168473ffffffffffffffffffffffffffffffffffffffff16146121f2576000612191611a51565b905060018451036121e15760006121b2600086611df290919063ffffffff16565b905060006121ca600086611df290919063ffffffff16565b90506121da8389898585896125d1565b50506121f0565b6121ef818787878787612785565b5b505b5050505050565b60608060405191506001825283602083015260408201905060018152826020820152604081016040529250929050565b805182511461227357815181516040517f5b05999100000000000000000000000000000000000000000000000000000000815260040161226a929190613d46565b60405180910390fd5b600061227d611a51565b905060005b835181101561248c5760006122a08286611df290919063ffffffff16565b905060006122b78386611df290919063ffffffff16565b9050600073ffffffffffffffffffffffffffffffffffffffff168873ffffffffffffffffffffffffffffffffffffffff16146123e457600080600084815260200190815260200160002060008a73ffffffffffffffffffffffffffffffffffffffff1673ffffffffffffffffffffffffffffffffffffffff1681526020019081526020016000205490508181101561238c57888183856040517f03dee4c500000000000000000000000000000000000000000000000000000000815260040161238394939291906140bf565b60405180910390fd5b81810360008085815260200190815260200160002060008b73ffffffffffffffffffffffffffffffffffffffff1673ffffffffffffffffffffffffffffffffffffffff16815260200190815260200160002081905550505b600073ffffffffffffffffffffffffffffffffffffffff168773ffffffffffffffffffffffffffffffffffffffff161461247f578060008084815260200190815260200160002060008973ffffffffffffffffffffffffffffffffffffffff1673ffffffffffffffffffffffffffffffffffffffff16815260200190815260200160002060008282546124779190614104565b925050819055505b5050806001019050612282565b50600183510361254b5760006124ac600085611df290919063ffffffff16565b905060006124c4600085611df290919063ffffffff16565b90508573ffffffffffffffffffffffffffffffffffffffff168773ffffffffffffffffffffffffffffffffffffffff168473ffffffffffffffffffffffffffffffffffffffff167fc3d58168c5ae7397731d063d5bbf3d657854427343f4c083240f7aacaa2d0f62858560405161253c929190613d46565b60405180910390a450506125ca565b8373ffffffffffffffffffffffffffffffffffffffff168573ffffffffffffffffffffffffffffffffffffffff168273ffffffffffffffffffffffffffffffffffffffff167f4a39dc06d4c0dbc64b70af90fd698a233a518aa5d07e595d983b8c0526c8f7fb86866040516125c1929190614138565b60405180910390a45b5050505050565b60008473ffffffffffffffffffffffffffffffffffffffff163b111561277d578373ffffffffffffffffffffffffffffffffffffffff1663f23a6e6187878686866040518663ffffffff1660e01b81526004016126329594939291906141c4565b6020604051808303816000875af192505050801561266e57506040513d601f19601f8201168201806040525081019061266b9190614233565b60015b6126f2573d806000811461269e576040519150601f19603f3d011682016040523d82523d6000602084013e6126a3565b606091505b5060008151036126ea57846040517f57f447ce0000000000000000000000000000000000000000000000000000000081526004016126e1919061345b565b60405180910390fd5b805181602001fd5b63f23a6e6160e01b7bffffffffffffffffffffffffffffffffffffffffffffffffffffffff1916817bffffffffffffffffffffffffffffffffffffffffffffffffffffffff19161461277b57846040517f57f447ce000000000000000000000000000000000000000000000000000000008152600401612772919061345b565b60405180910390fd5b505b505050505050565b60008473ffffffffffffffffffffffffffffffffffffffff163b1115612931578373ffffffffffffffffffffffffffffffffffffffff1663bc197c8187878686866040518663ffffffff1660e01b81526004016127e6959493929190614260565b6020604051808303816000875af192505050801561282257506040513d601f19601f8201168201806040525081019061281f9190614233565b60015b6128a6573d8060008114612852576040519150601f19603f3d011682016040523d82523d6000602084013e612857565b606091505b50600081510361289e57846040517f57f447ce000000000000000000000000000000000000000000000000000000008152600401612895919061345b565b60405180910390fd5b805181602001fd5b63bc197c8160e01b7bffffffffffffffffffffffffffffffffffffffffffffffffffffffff1916817bffffffffffffffffffffffffffffffffffffffffffffffffffffffff19161461292f57846040517f57f447ce000000000000000000000000000000000000000000000000000000008152600401612926919061345b565b60405180910390fd5b505b505050505050565b604051806040016040528060008152602001606081525090565b6000604051905090565b600080fd5b600080fd5b600073ffffffffffffffffffffffffffffffffffffffff82169050919050565b600061299282612967565b9050919050565b6129a281612987565b81146129ad57600080fd5b50565b6000813590506129bf81612999565b92915050565b6000819050919050565b6129d8816129c5565b81146129e357600080fd5b50565b6000813590506129f5816129cf565b92915050565b60008060408385031215612a1257612a1161295d565b5b6000612a20858286016129b0565b9250506020612a31858286016129e6565b9150509250929050565b612a44816129c5565b82525050565b6000602082019050612a5f6000830184612a3b565b92915050565b60007fffffffff0000000000000000000000000000000000000000000000000000000082169050919050565b612a9a81612a65565b8114612aa557600080fd5b50565b600081359050612ab781612a91565b92915050565b600060208284031215612ad357612ad261295d565b5b6000612ae184828501612aa8565b91505092915050565b60008115159050919050565b612aff81612aea565b82525050565b6000602082019050612b1a6000830184612af6565b92915050565b600060208284031215612b3657612b3561295d565b5b6000612b44848285016129e6565b91505092915050565b600081519050919050565b600082825260208201905092915050565b60005b83811015612b87578082015181840152602081019050612b6c565b60008484015250505050565b6000601f19601f8301169050919050565b6000612baf82612b4d565b612bb98185612b58565b9350612bc9818560208601612b69565b612bd281612b93565b840191505092915050565b60006020820190508181036000830152612bf78184612ba4565b905092915050565b600080fd5b7f4e487b7100000000000000000000000000000000000000000000000000000000600052604160045260246000fd5b612c3c82612b93565b810181811067ffffffffffffffff82111715612c5b57612c5a612c04565b5b80604052505050565b6000612c6e612953565b9050612c7a8282612c33565b919050565b600067ffffffffffffffff821115612c9a57612c99612c04565b5b602082029050602081019050919050565b600080fd5b6000612cc3612cbe84612c7f565b612c64565b90508083825260208201905060208402830185811115612ce657612ce5612cab565b5b835b81811015612d0f5780612cfb88826129e6565b845260208401935050602081019050612ce8565b5050509392505050565b600082601f830112612d2e57612d2d612bff565b5b8135612d3e848260208601612cb0565b91505092915050565b600080fd5b600067ffffffffffffffff821115612d6757612d66612c04565b5b612d7082612b93565b9050602081019050919050565b82818337600083830152505050565b6000612d9f612d9a84612d4c565b612c64565b905082815260208101848484011115612dbb57612dba612d47565b5b612dc6848285612d7d565b509392505050565b600082601f830112612de357612de2612bff565b5b8135612df3848260208601612d8c565b91505092915050565b600080600080600060a08688031215612e1857612e1761295d565b5b6000612e26888289016129b0565b9550506020612e37888289016129b0565b945050604086013567ffffffffffffffff811115612e5857612e57612962565b5b612e6488828901612d19565b935050606086013567ffffffffffffffff811115612e8557612e84612962565b5b612e9188828901612d19565b925050608086013567ffffffffffffffff811115612eb257612eb1612962565b5b612ebe88828901612dce565b9150509295509295909350565b60008060408385031215612ee257612ee161295d565b5b6000612ef0858286016129e6565b9250506020612f01858286016129e6565b9150509250929050565b600067ffffffffffffffff821115612f2657612f25612c04565b5b612f2f82612b93565b9050602081019050919050565b6000612f4f612f4a84612f0b565b612c64565b905082815260208101848484011115612f6b57612f6a612d47565b5b612f76848285612d7d565b509392505050565b600082601f830112612f9357612f92612bff565b5b8135612fa3848260208601612f3c565b91505092915050565b60008060008060008060c08789031215612fc957612fc861295d565b5b6000612fd789828a016129e6565b9650506020612fe889828a016129e6565b955050604087013567ffffffffffffffff81111561300957613008612962565b5b61301589828a01612f7e565b945050606087013567ffffffffffffffff81111561303657613035612962565b5b61304289828a01612f7e565b935050608061305389828a016129e6565b92505060a087013567ffffffffffffffff81111561307457613073612962565b5b61308089828a01612f7e565b9150509295509295509295565b600067ffffffffffffffff8211156130a8576130a7612c04565b5b602082029050602081019050919050565b60006130cc6130c78461308d565b612c64565b905080838252602082019050602084028301858111156130ef576130ee612cab565b5b835b81811015613118578061310488826129b0565b8452602084019350506020810190506130f1565b5050509392505050565b600082601f83011261313757613136612bff565b5b81356131478482602086016130b9565b91505092915050565b600080604083850312156131675761316661295d565b5b600083013567ffffffffffffffff81111561318557613184612962565b5b61319185828601613122565b925050602083013567ffffffffffffffff8111156131b2576131b1612962565b5b6131be85828601612d19565b9150509250929050565b600081519050919050565b600082825260208201905092915050565b6000819050602082019050919050565b6131fd816129c5565b82525050565b600061320f83836131f4565b60208301905092915050565b6000602082019050919050565b6000613233826131c8565b61323d81856131d3565b9350613248836131e4565b8060005b838110156132795781516132608882613203565b975061326b8361321b565b92505060018101905061324c565b5085935050505092915050565b600060208201905081810360008301526132a08184613228565b905092915050565b600080604083850312156132bf576132be61295d565b5b60006132cd858286016129e6565b925050602083013567ffffffffffffffff8111156132ee576132ed612962565b5b6132fa85828601612f7e565b9150509250929050565b600081519050919050565b600082825260208201905092915050565b6000819050602082019050919050565b61333981612987565b82525050565b600061334b8383613330565b60208301905092915050565b6000602082019050919050565b600061336f82613304565b613379818561330f565b935061338483613320565b8060005b838110156133b557815161339c888261333f565b97506133a783613357565b925050600181019050613388565b5085935050505092915050565b600060208201905081810360008301526133dc8184613364565b905092915050565b6133ed81612987565b82525050565b600060a082019050818103600083015261340d8188612ba4565b905081810360208301526134218187612ba4565b90506134306040830186612a3b565b81810360608301526134428185612ba4565b905061345160808301846133e4565b9695505050505050565b600060208201905061347060008301846133e4565b92915050565b600081519050919050565b600082825260208201905092915050565b6000819050602082019050919050565b600082825260208201905092915050565b60006134be82612b4d565b6134c881856134a2565b93506134d8818560208601612b69565b6134e181612b93565b840191505092915050565b60006134f883836134b3565b905092915050565b6000602082019050919050565b600061351882613476565b6135228185613481565b93508360208202850161353485613492565b8060005b85811015613570578484038952815161355185826134ec565b945061355c83613500565b925060208a01995050600181019050613538565b50829750879550505050505092915050565b6000602082019050818103600083015261359c818461350d565b905092915050565b6135ad81612aea565b81146135b857600080fd5b50565b6000813590506135ca816135a4565b92915050565b600080604083850312156135e7576135e661295d565b5b60006135f5858286016129b0565b9250506020613606858286016135bb565b9150509250929050565b600082825260208201905092915050565b600061362c826131c8565b6136368185613610565b9350613641836131e4565b8060005b838110156136725781516136598882613203565b97506136648361321b565b925050600181019050613645565b5085935050505092915050565b600060408301600083015161369760008601826131f4565b50602083015184820360208601526136af8282613621565b9150508091505092915050565b600060208201905081810360008301526136d6818461367f565b905092915050565b600080604083850312156136f5576136f461295d565b5b6000613703858286016129b0565b9250506020613714858286016129b0565b9150509250929050565b600080600080600060a0868803121561373a5761373961295d565b5b6000613748888289016129b0565b9550506020613759888289016129b0565b945050604061376a888289016129e6565b935050606061377b888289016129e6565b925050608086013567ffffffffffffffff81111561379c5761379b612962565b5b6137a888828901612dce565b9150509295509295909350565b6000602082840312156137cb576137ca61295d565b5b60006137d9848285016129b0565b91505092915050565b7f4e487b7100000000000000000000000000000000000000000000000000000000600052602260045260246000fd5b6000600282049050600182168061382957607f821691505b60208210810361383c5761383b6137e2565b5b50919050565b600060408201905061385760008301856133e4565b61386460208301846133e4565b9392505050565b7f4f6e6c79207468652063757272656e74206f776e65722063616e206275726e2060008201527f7468697320746f6b656e00000000000000000000000000000000000000000000602082015250565b60006138c7602a83612b58565b91506138d28261386b565b604082019050919050565b600060208201905081810360008301526138f6816138ba565b9050919050565b7f4e487b7100000000000000000000000000000000000000000000000000000000600052601160045260246000fd5b6000613937826129c5565b9150613942836129c5565b925082820390508181111561395a576139596138fd565b5b92915050565b60008190508160005260206000209050919050565b60006020601f8301049050919050565b600082821b905092915050565b6000600883026139c27fffffffffffffffffffffffffffffffffffffffffffffffffffffffffffffffff82613985565b6139cc8683613985565b95508019841693508086168417925050509392505050565b6000819050919050565b6000613a09613a046139ff846129c5565b6139e4565b6129c5565b9050919050565b6000819050919050565b613a23836139ee565b613a37613a2f82613a10565b848454613992565b825550505050565b600090565b613a4c613a3f565b613a57818484613a1a565b505050565b5b81811015613a7b57613a70600082613a44565b600181019050613a5d565b5050565b601f821115613ac057613a9181613960565b613a9a84613975565b81016020851015613aa9578190505b613abd613ab585613975565b830182613a5c565b50505b505050565b600082821c905092915050565b6000613ae360001984600802613ac5565b1980831691505092915050565b6000613afc8383613ad2565b9150826002028217905092915050565b613b1582612b4d565b67ffffffffffffffff811115613b2e57613b2d612c04565b5b613b388254613811565b613b43828285613a7f565b600060209050601f831160018114613b765760008415613b64578287015190505b613b6e8582613af0565b865550613bd6565b601f198416613b8486613960565b60005b82811015613bac57848901518255600182019150602085019450602081019050613b87565b86831015613bc95784890151613bc5601f891682613ad2565b8355505b6001600288020188555050505b505050505050565b7f4255524e00000000000000000000000000000000000000000000000000000000600082015250565b6000613c14600483612b58565b9150613c1f82613bde565b602082019050919050565b7f546f6b656e206275726e65640000000000000000000000000000000000000000600082015250565b6000613c60600c83612b58565b9150613c6b82613c2a565b602082019050919050565b60006060820190508181036000830152613c8f81613c07565b9050613c9e6020830184612a3b565b8181036040830152613caf81613c53565b905092915050565b7f4d494e5400000000000000000000000000000000000000000000000000000000600082015250565b6000613ced600483612b58565b9150613cf882613cb7565b602082019050919050565b60006060820190508181036000830152613d1c81613ce0565b9050613d2b6020830185612a3b565b8181036040830152613d3d8184612ba4565b90509392505050565b6000604082019050613d5b6000830185612a3b565b613d686020830184612a3b565b9392505050565b7f4e487b7100000000000000000000000000000000000000000000000000000000600052603260045260246000fd5b7f5550444154455f4d455441444154410000000000000000000000000000000000600082015250565b6000613dd4600f83612b58565b9150613ddf82613d9e565b602082019050919050565b60006060820190508181036000830152613e0381613dc7565b9050613e126020830185612a3b565b8181036040830152613e248184612ba4565b90509392505050565b7f5550444154455f50524943450000000000000000000000000000000000000000600082015250565b6000613e63600c83612b58565b9150613e6e82613e2d565b602082019050919050565b60006060820190508181036000830152613e9281613e56565b9050613ea16020830185612a3b565b8181036040830152613eb38184612ba4565b90509392505050565b7f5175616e74697479206d757374206265206e6f6e2d6e65676174697665000000600082015250565b6000613ef2601d83612b58565b9150613efd82613ebc565b602082019050919050565b60006020820190508181036000830152613f2181613ee5565b9050919050565b7f5550444154455f5155414e544954590000000000000000000000000000000000600082015250565b6000613f5e600f83612b58565b9150613f6982613f28565b602082019050919050565b7f5175616e74697479207570646174656400000000000000000000000000000000600082015250565b6000613faa601083612b58565b9150613fb582613f74565b602082019050919050565b60006060820190508181036000830152613fd981613f51565b9050613fe86020830184612a3b565b8181036040830152613ff981613f9d565b905092915050565b7f5550444154455f53544154555300000000000000000000000000000000000000600082015250565b6000614037600d83612b58565b915061404282614001565b602082019050919050565b600060608201905081810360008301526140668161402a565b90506140756020830185612a3b565b81810360408301526140878184612ba4565b90509392505050565b7f4e487b7100000000000000000000000000000000000000000000000000000000600052603160045260246000fd5b60006080820190506140d460008301876133e4565b6140e16020830186612a3b565b6140ee6040830185612a3b565b6140fb6060830184612a3b565b95945050505050565b600061410f826129c5565b915061411a836129c5565b9250828201905080821115614132576141316138fd565b5b92915050565b600060408201905081810360008301526141528185613228565b905081810360208301526141668184613228565b90509392505050565b600081519050919050565b600082825260208201905092915050565b60006141968261416f565b6141a0818561417a565b93506141b0818560208601612b69565b6141b981612b93565b840191505092915050565b600060a0820190506141d960008301886133e4565b6141e660208301876133e4565b6141f36040830186612a3b565b6142006060830185612a3b565b8181036080830152614212818461418b565b90509695505050505050565b60008151905061422d81612a91565b92915050565b6000602082840312156142495761424861295d565b5b60006142578482850161421e565b91505092915050565b600060a08201905061427560008301886133e4565b61428260208301876133e4565b81810360408301526142948186613228565b905081810360608301526142a88185613228565b905081810360808301526142bc818461418b565b9050969550505050505056fea264697066735822122091a566349da08f51d70385e6a4bc97ee105412162443b7585a71e729b8f5a2d864736f6c634300081b0033",
  "linkReferences": {},
  "deployedLinkReferences": {}
}