{
  "_format": "hh-sol-artifact-1",
  "contractName": "ProductRegistry",
  "sourceName": "contracts/Product.sol",
  "abi": [
    {
      "anonymous": false,
      "inputs": [
        {
          "indexed": true,
          "internalType": "string",
          "name": "id",
          "type": "string"
        },
        {
          "indexed": false,
          "internalType": "bytes32",
          "name": "blockHash",
          "type": "bytes32"
        }
      ],
      "name": "ProductAdded",
      "type": "event"
    },
    {
      "anonymous": false,
      "inputs": [
        {
          "indexed": true,
          "internalType": "string",
          "name": "id",
          "type": "string"
        },
        {
          "indexed": false,
          "internalType": "bytes32",
          "name": "blockHash",
          "type": "bytes32"
        }
      ],
      "name": "ProductUpdated",
      "type": "event"
    },
    {
      "inputs": [
        {
          "internalType": "string",
          "name": "_id",
          "type": "string"
        },
        {
          "internalType": "string",
          "name": "_name",
          "type": "string"
        },
        {
          "internalType": "string",
          "name": "_description",
          "type": "string"
        },
        {
          "internalType": "string",
          "name": "_price",
          "type": "string"
        },
        {
          "internalType": "uint256",
          "name": "_quantity",
          "type": "uint256"
        },
        {
          "internalType": "string",
          "name": "_brand",
          "type": "string"
        },
        {
          "internalType": "string",
          "name": "_category",
          "type": "string"
        },
        {
          "internalType": "string",
          "name": "_size",
          "type": "string"
        },
        {
          "internalType": "string",
          "name": "_status",
          "type": "string"
        },
        {
          "internalType": "string[]",
          "name": "_imagecids",
          "type": "string[]"
        },
        {
          "internalType": "string[]",
          "name": "_filecids",
          "type": "string[]"
        }
      ],
      "name": "addProduct",
      "outputs": [],
      "stateMutability": "nonpayable",
      "type": "function"
    },
    {
      "inputs": [],
      "name": "getAllProducts",
      "outputs": [
        {
          "internalType": "uint256",
          "name": "count",
          "type": "uint256"
        },
        {
          "internalType": "string[]",
          "name": "ids",
          "type": "string[]"
        }
      ],
      "stateMutability": "view",
      "type": "function"
    },
    {
      "inputs": [
        {
          "internalType": "string",
          "name": "_id",
          "type": "string"
        }
      ],
      "name": "getProduct",
      "outputs": [
        {
          "internalType": "string",
          "name": "name",
          "type": "string"
        },
        {
          "internalType": "string",
          "name": "description",
          "type": "string"
        },
        {
          "internalType": "string",
          "name": "price",
          "type": "string"
        },
        {
          "internalType": "uint256",
          "name": "quantity",
          "type": "uint256"
        },
        {
          "internalType": "string",
          "name": "brand",
          "type": "string"
        },
        {
          "internalType": "string",
          "name": "category",
          "type": "string"
        },
        {
          "internalType": "string",
          "name": "size",
          "type": "string"
        },
        {
          "internalType": "string",
          "name": "status",
          "type": "string"
        },
        {
          "internalType": "string[]",
          "name": "imagecids",
          "type": "string[]"
        },
        {
          "internalType": "string[]",
          "name": "filecids",
          "type": "string[]"
        },
        {
          "internalType": "address",
          "name": "creator",
          "type": "address"
        }
      ],
      "stateMutability": "view",
      "type": "function"
    },
    {
      "inputs": [
        {
          "internalType": "string",
          "name": "_id",
          "type": "string"
        },
        {
          "internalType": "string",
          "name": "_name",
          "type": "string"
        },
        {
          "internalType": "string",
          "name": "_description",
          "type": "string"
        },
        {
          "internalType": "string",
          "name": "_price",
          "type": "string"
        },
        {
          "internalType": "uint256",
          "name": "_quantity",
          "type": "uint256"
        },
        {
          "internalType": "string",
          "name": "_brand",
          "type": "string"
        },
        {
          "internalType": "string",
          "name": "_category",
          "type": "string"
        },
        {
          "internalType": "string",
          "name": "_size",
          "type": "string"
        },
        {
          "internalType": "string",
          "name": "_status",
          "type": "string"
        },
        {
          "internalType": "string[]",
          "name": "_imagecids",
          "type": "string[]"
        },
        {
          "internalType": "string[]",
          "name": "_filecids",
          "type": "string[]"
        }
      ],
      "name": "updateProduct",
      "outputs": [],
      "stateMutability": "nonpayable",
      "type": "function"
    }
  ],
  "bytecode": "0x6080604052348015600f57600080fd5b50611b458061001f6000396000f3fe608060405234801561001057600080fd5b506004361061004c5760003560e01c806302ee3a521461005157806368111cce146100705780636b578ce3146100aa578063a5f61bd7146100c6575b600080fd5b6100596100e2565b60405161006792919061104e565b60405180910390f35b61008a600480360381019061008591906111c7565b610220565b6040516100a19b9a9998979695949392919061129b565b60405180910390f35b6100c460048036038101906100bf9190611497565b6108b0565b005b6100e060048036038101906100db9190611497565b610b77565b005b6000606060018054905091508167ffffffffffffffff8111156101085761010761109c565b5b60405190808252806020026020018201604052801561013b57816020015b60608152602001906001900390816101265790505b50905060005b8281101561021b576001818154811061015d5761015c6116a3565b5b90600052602060002001805461017290611701565b80601f016020809104026020016040519081016040528092919081815260200182805461019e90611701565b80156101eb5780601f106101c0576101008083540402835291602001916101eb565b820191906000526020600020905b8154815290600101906020018083116101ce57829003601f168201915b5050505050828281518110610203576102026116a3565b5b60200260200101819052508080600101915050610141565b509091565b6060806060600060608060608060608060008060008d604051610243919061176e565b9081526020016040518091039020600001805461025f90611701565b9050036102a1576040517f08c379a0000000000000000000000000000000000000000000000000000000008152600401610298906117d1565b60405180910390fd5b6000808d6040516102b2919061176e565b908152602001604051809103902090508060010181600201826003018360040154846005018560060186600701876008018860090189600a018a600b0160009054906101000a900473ffffffffffffffffffffffffffffffffffffffff168a805461031c90611701565b80601f016020809104026020016040519081016040528092919081815260200182805461034890611701565b80156103955780601f1061036a57610100808354040283529160200191610395565b820191906000526020600020905b81548152906001019060200180831161037857829003601f168201915b50505050509a508980546103a890611701565b80601f01602080910402602001604051908101604052809291908181526020018280546103d490611701565b80156104215780601f106103f657610100808354040283529160200191610421565b820191906000526020600020905b81548152906001019060200180831161040457829003601f168201915b5050505050995088805461043490611701565b80601f016020809104026020016040519081016040528092919081815260200182805461046090611701565b80156104ad5780601f10610482576101008083540402835291602001916104ad565b820191906000526020600020905b81548152906001019060200180831161049057829003601f168201915b505050505098508680546104c090611701565b80601f01602080910402602001604051908101604052809291908181526020018280546104ec90611701565b80156105395780601f1061050e57610100808354040283529160200191610539565b820191906000526020600020905b81548152906001019060200180831161051c57829003601f168201915b5050505050965085805461054c90611701565b80601f016020809104026020016040519081016040528092919081815260200182805461057890611701565b80156105c55780601f1061059a576101008083540402835291602001916105c5565b820191906000526020600020905b8154815290600101906020018083116105a857829003601f168201915b505050505095508480546105d890611701565b80601f016020809104026020016040519081016040528092919081815260200182805461060490611701565b80156106515780601f1061062657610100808354040283529160200191610651565b820191906000526020600020905b81548152906001019060200180831161063457829003601f168201915b5050505050945083805461066490611701565b80601f016020809104026020016040519081016040528092919081815260200182805461069090611701565b80156106dd5780601f106106b2576101008083540402835291602001916106dd565b820191906000526020600020905b8154815290600101906020018083116106c057829003601f168201915b5050505050935082805480602002602001604051908101604052809291908181526020016000905b828210156107b157838290600052602060002001805461072490611701565b80601f016020809104026020016040519081016040528092919081815260200182805461075090611701565b801561079d5780601f106107725761010080835404028352916020019161079d565b820191906000526020600020905b81548152906001019060200180831161078057829003601f168201915b505050505081526020019060010190610705565b50505050925081805480602002602001604051908101604052809291908181526020016000905b828210156108845783829060005260206000200180546107f790611701565b80601f016020809104026020016040519081016040528092919081815260200182805461082390611701565b80156108705780601f1061084557610100808354040283529160200191610870565b820191906000526020600020905b81548152906001019060200180831161085357829003601f168201915b5050505050815260200190600101906107d8565b5050505091509b509b509b509b509b509b509b509b509b509b509b505091939597999b90929496989a50565b6000808c6040516108c1919061176e565b908152602001604051809103902060000180546108dd90611701565b90501461091f576040517f08c379a00000000000000000000000000000000000000000000000000000000081526004016109169061183d565b60405180910390fd5b6040518061018001604052808c81526020018b81526020018a81526020018981526020018881526020018781526020018681526020018581526020018481526020018381526020018281526020013373ffffffffffffffffffffffffffffffffffffffff1681525060008c604051610997919061176e565b908152602001604051809103902060008201518160000190816109ba9190611a09565b5060208201518160010190816109d09190611a09565b5060408201518160020190816109e69190611a09565b5060608201518160030190816109fc9190611a09565b506080820151816004015560a0820151816005019081610a1c9190611a09565b5060c0820151816006019081610a329190611a09565b5060e0820151816007019081610a489190611a09565b50610100820151816008019081610a5f9190611a09565b50610120820151816009019080519060200190610a7d929190610e09565b5061014082015181600a019080519060200190610a9b929190610e09565b5061016082015181600b0160006101000a81548173ffffffffffffffffffffffffffffffffffffffff021916908373ffffffffffffffffffffffffffffffffffffffff16021790555090505060018b908060018154018082558091505060019003906000526020600020016000909190919091509081610b1b9190611a09565b508a604051610b2a919061176e565b60405180910390207ff1d2c1620e4d9ad07e35ccf8e5325a5e1f0091c9ba9c70839add30054886953d4340604051610b629190611af4565b60405180910390a25050505050505050505050565b6000808c604051610b88919061176e565b90815260200160405180910390206000018054610ba490611701565b905003610be6576040517f08c379a0000000000000000000000000000000000000000000000000000000008152600401610bdd906117d1565b60405180910390fd5b6040518061018001604052808c81526020018b81526020018a81526020018981526020018881526020018781526020018681526020018581526020018481526020018381526020018281526020013373ffffffffffffffffffffffffffffffffffffffff1681525060008c604051610c5e919061176e565b90815260200160405180910390206000820151816000019081610c819190611a09565b506020820151816001019081610c979190611a09565b506040820151816002019081610cad9190611a09565b506060820151816003019081610cc39190611a09565b506080820151816004015560a0820151816005019081610ce39190611a09565b5060c0820151816006019081610cf99190611a09565b5060e0820151816007019081610d0f9190611a09565b50610100820151816008019081610d269190611a09565b50610120820151816009019080519060200190610d44929190610e09565b5061014082015181600a019080519060200190610d62929190610e09565b5061016082015181600b0160006101000a81548173ffffffffffffffffffffffffffffffffffffffff021916908373ffffffffffffffffffffffffffffffffffffffff1602179055509050508a604051610dbc919061176e565b60405180910390207fb1db2b49f357f0b7ea991ec7fdabd66a74c350b91bcebcf633acabe29cf97f904340604051610df49190611af4565b60405180910390a25050505050505050505050565b828054828255906000526020600020908101928215610e51579160200282015b82811115610e50578251829081610e409190611a09565b5091602001919060010190610e29565b5b509050610e5e9190610e62565b5090565b5b80821115610e825760008181610e799190610e86565b50600101610e63565b5090565b508054610e9290611701565b6000825580601f10610ea45750610ec3565b601f016020900490600052602060002090810190610ec29190610ec6565b5b50565b5b80821115610edf576000816000905550600101610ec7565b5090565b6000819050919050565b610ef681610ee3565b82525050565b600081519050919050565b600082825260208201905092915050565b6000819050602082019050919050565b600081519050919050565b600082825260208201905092915050565b60005b83811015610f62578082015181840152602081019050610f47565b60008484015250505050565b6000601f19601f8301169050919050565b6000610f8a82610f28565b610f948185610f33565b9350610fa4818560208601610f44565b610fad81610f6e565b840191505092915050565b6000610fc48383610f7f565b905092915050565b6000602082019050919050565b6000610fe482610efc565b610fee8185610f07565b93508360208202850161100085610f18565b8060005b8581101561103c578484038952815161101d8582610fb8565b945061102883610fcc565b925060208a01995050600181019050611004565b50829750879550505050505092915050565b60006040820190506110636000830185610eed565b81810360208301526110758184610fd9565b90509392505050565b6000604051905090565b600080fd5b600080fd5b600080fd5b600080fd5b7f4e487b7100000000000000000000000000000000000000000000000000000000600052604160045260246000fd5b6110d482610f6e565b810181811067ffffffffffffffff821117156110f3576110f261109c565b5b80604052505050565b600061110661107e565b905061111282826110cb565b919050565b600067ffffffffffffffff8211156111325761113161109c565b5b61113b82610f6e565b9050602081019050919050565b82818337600083830152505050565b600061116a61116584611117565b6110fc565b90508281526020810184848401111561118657611185611097565b5b611191848285611148565b509392505050565b600082601f8301126111ae576111ad611092565b5b81356111be848260208601611157565b91505092915050565b6000602082840312156111dd576111dc611088565b5b600082013567ffffffffffffffff8111156111fb576111fa61108d565b5b61120784828501611199565b91505092915050565b600082825260208201905092915050565b600061122c82610f28565b6112368185611210565b9350611246818560208601610f44565b61124f81610f6e565b840191505092915050565b600073ffffffffffffffffffffffffffffffffffffffff82169050919050565b60006112858261125a565b9050919050565b6112958161127a565b82525050565b60006101608201905081810360008301526112b6818e611221565b905081810360208301526112ca818d611221565b905081810360408301526112de818c611221565b90506112ed606083018b610eed565b81810360808301526112ff818a611221565b905081810360a08301526113138189611221565b905081810360c08301526113278188611221565b905081810360e083015261133b8187611221565b90508181036101008301526113508186610fd9565b90508181036101208301526113658185610fd9565b905061137561014083018461128c565b9c9b505050505050505050505050565b61138e81610ee3565b811461139957600080fd5b50565b6000813590506113ab81611385565b92915050565b600067ffffffffffffffff8211156113cc576113cb61109c565b5b602082029050602081019050919050565b600080fd5b60006113f56113f0846113b1565b6110fc565b90508083825260208201905060208402830185811115611418576114176113dd565b5b835b8181101561145f57803567ffffffffffffffff81111561143d5761143c611092565b5b80860161144a8982611199565b8552602085019450505060208101905061141a565b5050509392505050565b600082601f83011261147e5761147d611092565b5b813561148e8482602086016113e2565b91505092915050565b60008060008060008060008060008060006101608c8e0312156114bd576114bc611088565b5b60008c013567ffffffffffffffff8111156114db576114da61108d565b5b6114e78e828f01611199565b9b505060208c013567ffffffffffffffff8111156115085761150761108d565b5b6115148e828f01611199565b9a505060408c013567ffffffffffffffff8111156115355761153461108d565b5b6115418e828f01611199565b99505060608c013567ffffffffffffffff8111156115625761156161108d565b5b61156e8e828f01611199565b985050608061157f8e828f0161139c565b97505060a08c013567ffffffffffffffff8111156115a05761159f61108d565b5b6115ac8e828f01611199565b96505060c08c013567ffffffffffffffff8111156115cd576115cc61108d565b5b6115d98e828f01611199565b95505060e08c013567ffffffffffffffff8111156115fa576115f961108d565b5b6116068e828f01611199565b9450506101008c013567ffffffffffffffff8111156116285761162761108d565b5b6116348e828f01611199565b9350506101208c013567ffffffffffffffff8111156116565761165561108d565b5b6116628e828f01611469565b9250506101408c013567ffffffffffffffff8111156116845761168361108d565b5b6116908e828f01611469565b9150509295989b509295989b9093969950565b7f4e487b7100000000000000000000000000000000000000000000000000000000600052603260045260246000fd5b7f4e487b7100000000000000000000000000000000000000000000000000000000600052602260045260246000fd5b6000600282049050600182168061171957607f821691505b60208210810361172c5761172b6116d2565b5b50919050565b600081905092915050565b600061174882610f28565b6117528185611732565b9350611762818560208601610f44565b80840191505092915050565b600061177a828461173d565b915081905092915050565b7f50726f64756374206e6f7420666f756e64000000000000000000000000000000600082015250565b60006117bb601183611210565b91506117c682611785565b602082019050919050565b600060208201905081810360008301526117ea816117ae565b9050919050565b7f50726f6475637420494420616c72656164792065786973747300000000000000600082015250565b6000611827601983611210565b9150611832826117f1565b602082019050919050565b600060208201905081810360008301526118568161181a565b9050919050565b60008190508160005260206000209050919050565b60006020601f8301049050919050565b600082821b905092915050565b6000600883026118bf7fffffffffffffffffffffffffffffffffffffffffffffffffffffffffffffffff82611882565b6118c98683611882565b95508019841693508086168417925050509392505050565b6000819050919050565b60006119066119016118fc84610ee3565b6118e1565b610ee3565b9050919050565b6000819050919050565b611920836118eb565b61193461192c8261190d565b84845461188f565b825550505050565b600090565b61194961193c565b611954818484611917565b505050565b5b818110156119785761196d600082611941565b60018101905061195a565b5050565b601f8211156119bd5761198e8161185d565b61199784611872565b810160208510156119a6578190505b6119ba6119b285611872565b830182611959565b50505b505050565b600082821c905092915050565b60006119e0600019846008026119c2565b1980831691505092915050565b60006119f983836119cf565b9150826002028217905092915050565b611a1282610f28565b67ffffffffffffffff811115611a2b57611a2a61109c565b5b611a358254611701565b611a4082828561197c565b600060209050601f831160018114611a735760008415611a61578287015190505b611a6b85826119ed565b865550611ad3565b601f198416611a818661185d565b60005b82811015611aa957848901518255600182019150602085019450602081019050611a84565b86831015611ac65784890151611ac2601f8916826119cf565b8355505b6001600288020188555050505b505050505050565b6000819050919050565b611aee81611adb565b82525050565b6000602082019050611b096000830184611ae5565b9291505056fea2646970667358221220f7f0877f8c33bbc345690f6cf62158abc5e91e5b2be1bd69a4c41e5dacbdda8164736f6c634300081b0033",
  "linkReferences": {},
  "deployedLinkReferences": {}
}