{
  "_format": "hh-sol-artifact-1",
  "contractName": "ProductManager",
  "sourceName": "contracts/Product.sol",
  "abi": [
    {
      "inputs": [],
      "stateMutability": "nonpayable",
      "type": "constructor"
    },
    {
      "inputs": [
        {
          "internalType": "address",
          "name": "sender",
          "type": "address"
        },
        {
          "internalType": "uint256",
          "name": "balance",
          "type": "uint256"
        },
        {
          "internalType": "uint256",
          "name": "needed",
          "type": "uint256"
        },
        {
          "internalType": "uint256",
          "name": "tokenId",
          "type": "uint256"
        }
      ],
      "name": "ERC1155InsufficientBalance",
      "type": "error"
    },
    {
      "inputs": [
        {
          "internalType": "address",
          "name": "approver",
          "type": "address"
        }
      ],
      "name": "ERC1155InvalidApprover",
      "type": "error"
    },
    {
      "inputs": [
        {
          "internalType": "uint256",
          "name": "idsLength",
          "type": "uint256"
        },
        {
          "internalType": "uint256",
          "name": "valuesLength",
          "type": "uint256"
        }
      ],
      "name": "ERC1155InvalidArrayLength",
      "type": "error"
    },
    {
      "inputs": [
        {
          "internalType": "address",
          "name": "operator",
          "type": "address"
        }
      ],
      "name": "ERC1155InvalidOperator",
      "type": "error"
    },
    {
      "inputs": [
        {
          "internalType": "address",
          "name": "receiver",
          "type": "address"
        }
      ],
      "name": "ERC1155InvalidReceiver",
      "type": "error"
    },
    {
      "inputs": [
        {
          "internalType": "address",
          "name": "sender",
          "type": "address"
        }
      ],
      "name": "ERC1155InvalidSender",
      "type": "error"
    },
    {
      "inputs": [
        {
          "internalType": "address",
          "name": "operator",
          "type": "address"
        },
        {
          "internalType": "address",
          "name": "owner",
          "type": "address"
        }
      ],
      "name": "ERC1155MissingApprovalForAll",
      "type": "error"
    },
    {
      "inputs": [],
      "name": "FailedCall",
      "type": "error"
    },
    {
      "inputs": [
        {
          "internalType": "uint256",
          "name": "balance",
          "type": "uint256"
        },
        {
          "internalType": "uint256",
          "name": "needed",
          "type": "uint256"
        }
      ],
      "name": "InsufficientBalance",
      "type": "error"
    },
    {
      "inputs": [
        {
          "internalType": "address",
          "name": "owner",
          "type": "address"
        }
      ],
      "name": "OwnableInvalidOwner",
      "type": "error"
    },
    {
      "inputs": [
        {
          "internalType": "address",
          "name": "account",
          "type": "address"
        }
      ],
      "name": "OwnableUnauthorizedAccount",
      "type": "error"
    },
    {
      "anonymous": false,
      "inputs": [
        {
          "indexed": true,
          "internalType": "address",
          "name": "account",
          "type": "address"
        },
        {
          "indexed": true,
          "internalType": "address",
          "name": "operator",
          "type": "address"
        },
        {
          "indexed": false,
          "internalType": "bool",
          "name": "approved",
          "type": "bool"
        }
      ],
      "name": "ApprovalForAll",
      "type": "event"
    },
    {
      "anonymous": false,
      "inputs": [
        {
          "indexed": true,
          "internalType": "address",
          "name": "previousOwner",
          "type": "address"
        },
        {
          "indexed": true,
          "internalType": "address",
          "name": "newOwner",
          "type": "address"
        }
      ],
      "name": "OwnershipTransferred",
      "type": "event"
    },
    {
      "anonymous": false,
      "inputs": [
        {
          "indexed": true,
          "internalType": "uint256",
          "name": "tokenId",
          "type": "uint256"
        },
        {
          "indexed": false,
          "internalType": "string",
          "name": "action",
          "type": "string"
        },
        {
          "indexed": true,
          "internalType": "address",
          "name": "creator",
          "type": "address"
        },
        {
          "indexed": false,
          "internalType": "uint256",
          "name": "timestamp",
          "type": "uint256"
        },
        {
          "indexed": false,
          "internalType": "string",
          "name": "additionalInfo",
          "type": "string"
        }
      ],
      "name": "TokenStateChanged",
      "type": "event"
    },
    {
      "anonymous": false,
      "inputs": [
        {
          "indexed": true,
          "internalType": "address",
          "name": "operator",
          "type": "address"
        },
        {
          "indexed": true,
          "internalType": "address",
          "name": "from",
          "type": "address"
        },
        {
          "indexed": true,
          "internalType": "address",
          "name": "to",
          "type": "address"
        },
        {
          "indexed": false,
          "internalType": "uint256[]",
          "name": "ids",
          "type": "uint256[]"
        },
        {
          "indexed": false,
          "internalType": "uint256[]",
          "name": "values",
          "type": "uint256[]"
        }
      ],
      "name": "TransferBatch",
      "type": "event"
    },
    {
      "anonymous": false,
      "inputs": [
        {
          "indexed": true,
          "internalType": "address",
          "name": "operator",
          "type": "address"
        },
        {
          "indexed": true,
          "internalType": "address",
          "name": "from",
          "type": "address"
        },
        {
          "indexed": true,
          "internalType": "address",
          "name": "to",
          "type": "address"
        },
        {
          "indexed": false,
          "internalType": "uint256",
          "name": "id",
          "type": "uint256"
        },
        {
          "indexed": false,
          "internalType": "uint256",
          "name": "value",
          "type": "uint256"
        }
      ],
      "name": "TransferSingle",
      "type": "event"
    },
    {
      "anonymous": false,
      "inputs": [
        {
          "indexed": false,
          "internalType": "string",
          "name": "value",
          "type": "string"
        },
        {
          "indexed": true,
          "internalType": "uint256",
          "name": "id",
          "type": "uint256"
        }
      ],
      "name": "URI",
      "type": "event"
    },
    {
      "inputs": [
        {
          "internalType": "address",
          "name": "account",
          "type": "address"
        },
        {
          "internalType": "uint256",
          "name": "id",
          "type": "uint256"
        }
      ],
      "name": "balanceOf",
      "outputs": [
        {
          "internalType": "uint256",
          "name": "",
          "type": "uint256"
        }
      ],
      "stateMutability": "view",
      "type": "function"
    },
    {
      "inputs": [
        {
          "internalType": "address[]",
          "name": "accounts",
          "type": "address[]"
        },
        {
          "internalType": "uint256[]",
          "name": "ids",
          "type": "uint256[]"
        }
      ],
      "name": "balanceOfBatch",
      "outputs": [
        {
          "internalType": "uint256[]",
          "name": "",
          "type": "uint256[]"
        }
      ],
      "stateMutability": "view",
      "type": "function"
    },
    {
      "inputs": [
        {
          "internalType": "uint256",
          "name": "tokenId",
          "type": "uint256"
        },
        {
          "internalType": "uint256",
          "name": "amount",
          "type": "uint256"
        }
      ],
      "name": "burnProduct",
      "outputs": [],
      "stateMutability": "nonpayable",
      "type": "function"
    },
    {
      "inputs": [
        {
          "internalType": "uint256[]",
          "name": "tokenIdsToBuy",
          "type": "uint256[]"
        },
        {
          "internalType": "uint256[]",
          "name": "amountsToBuy",
          "type": "uint256[]"
        },
        {
          "internalType": "uint256",
          "name": "totalPrice",
          "type": "uint256"
        }
      ],
      "name": "buyTokens",
      "outputs": [],
      "stateMutability": "payable",
      "type": "function"
    },
    {
      "inputs": [
        {
          "internalType": "uint256",
          "name": "",
          "type": "uint256"
        }
      ],
      "name": "currentOwner",
      "outputs": [
        {
          "internalType": "address",
          "name": "",
          "type": "address"
        }
      ],
      "stateMutability": "view",
      "type": "function"
    },
    {
      "inputs": [],
      "name": "getAllTokenIds",
      "outputs": [
        {
          "components": [
            {
              "internalType": "uint256",
              "name": "count",
              "type": "uint256"
            },
            {
              "internalType": "uint256[]",
              "name": "product_ids",
              "type": "uint256[]"
            }
          ],
          "internalType": "struct ProductManager.TokenIdsResponse",
          "name": "",
          "type": "tuple"
        }
      ],
      "stateMutability": "view",
      "type": "function"
    },
    {
      "inputs": [
        {
          "internalType": "uint256",
          "name": "tokenId",
          "type": "uint256"
        }
      ],
      "name": "getMetadataCID",
      "outputs": [
        {
          "internalType": "string",
          "name": "",
          "type": "string"
        }
      ],
      "stateMutability": "view",
      "type": "function"
    },
    {
      "inputs": [
        {
          "internalType": "uint256",
          "name": "tokenId",
          "type": "uint256"
        }
      ],
      "name": "getProductInfo",
      "outputs": [
        {
          "internalType": "string",
          "name": "",
          "type": "string"
        },
        {
          "internalType": "string",
          "name": "",
          "type": "string"
        },
        {
          "internalType": "uint256",
          "name": "",
          "type": "uint256"
        },
        {
          "internalType": "string",
          "name": "",
          "type": "string"
        },
        {
          "internalType": "address",
          "name": "",
          "type": "address"
        }
      ],
      "stateMutability": "view",
      "type": "function"
    },
    {
      "inputs": [
        {
          "internalType": "uint256",
          "name": "tokenId",
          "type": "uint256"
        }
      ],
      "name": "getTokenOwners",
      "outputs": [
        {
          "internalType": "address[]",
          "name": "",
          "type": "address[]"
        }
      ],
      "stateMutability": "view",
      "type": "function"
    },
    {
      "inputs": [
        {
          "internalType": "uint256",
          "name": "tokenId",
          "type": "uint256"
        }
      ],
      "name": "getTransactionCIDs",
      "outputs": [
        {
          "internalType": "string[]",
          "name": "",
          "type": "string[]"
        }
      ],
      "stateMutability": "view",
      "type": "function"
    },
    {
      "inputs": [
        {
          "internalType": "address",
          "name": "account",
          "type": "address"
        },
        {
          "internalType": "address",
          "name": "operator",
          "type": "address"
        }
      ],
      "name": "isApprovedForAll",
      "outputs": [
        {
          "internalType": "bool",
          "name": "",
          "type": "bool"
        }
      ],
      "stateMutability": "view",
      "type": "function"
    },
    {
      "inputs": [
        {
          "internalType": "uint256",
          "name": "tokenId",
          "type": "uint256"
        },
        {
          "internalType": "uint256",
          "name": "amount",
          "type": "uint256"
        },
        {
          "internalType": "string",
          "name": "metadataCID",
          "type": "string"
        },
        {
          "internalType": "string",
          "name": "price",
          "type": "string"
        },
        {
          "internalType": "uint256",
          "name": "quantity",
          "type": "uint256"
        },
        {
          "internalType": "string",
          "name": "status",
          "type": "string"
        }
      ],
      "name": "mintProduct",
      "outputs": [],
      "stateMutability": "nonpayable",
      "type": "function"
    },
    {
      "inputs": [],
      "name": "owner",
      "outputs": [
        {
          "internalType": "address",
          "name": "",
          "type": "address"
        }
      ],
      "stateMutability": "view",
      "type": "function"
    },
    {
      "inputs": [
        {
          "internalType": "uint256",
          "name": "",
          "type": "uint256"
        }
      ],
      "name": "productMetadata",
      "outputs": [
        {
          "internalType": "string",
          "name": "",
          "type": "string"
        }
      ],
      "stateMutability": "view",
      "type": "function"
    },
    {
      "inputs": [
        {
          "internalType": "uint256",
          "name": "",
          "type": "uint256"
        }
      ],
      "name": "productPrice",
      "outputs": [
        {
          "internalType": "string",
          "name": "",
          "type": "string"
        }
      ],
      "stateMutability": "view",
      "type": "function"
    },
    {
      "inputs": [
        {
          "internalType": "uint256",
          "name": "",
          "type": "uint256"
        }
      ],
      "name": "productQuantity",
      "outputs": [
        {
          "internalType": "uint256",
          "name": "",
          "type": "uint256"
        }
      ],
      "stateMutability": "view",
      "type": "function"
    },
    {
      "inputs": [
        {
          "internalType": "uint256",
          "name": "",
          "type": "uint256"
        }
      ],
      "name": "productStatus",
      "outputs": [
        {
          "internalType": "string",
          "name": "",
          "type": "string"
        }
      ],
      "stateMutability": "view",
      "type": "function"
    },
    {
      "inputs": [],
      "name": "renounceOwnership",
      "outputs": [],
      "stateMutability": "nonpayable",
      "type": "function"
    },
    {
      "inputs": [
        {
          "internalType": "address",
          "name": "from",
          "type": "address"
        },
        {
          "internalType": "address",
          "name": "to",
          "type": "address"
        },
        {
          "internalType": "uint256[]",
          "name": "ids",
          "type": "uint256[]"
        },
        {
          "internalType": "uint256[]",
          "name": "values",
          "type": "uint256[]"
        },
        {
          "internalType": "bytes",
          "name": "data",
          "type": "bytes"
        }
      ],
      "name": "safeBatchTransferFrom",
      "outputs": [],
      "stateMutability": "nonpayable",
      "type": "function"
    },
    {
      "inputs": [
        {
          "internalType": "address",
          "name": "from",
          "type": "address"
        },
        {
          "internalType": "address",
          "name": "to",
          "type": "address"
        },
        {
          "internalType": "uint256",
          "name": "id",
          "type": "uint256"
        },
        {
          "internalType": "uint256",
          "name": "value",
          "type": "uint256"
        },
        {
          "internalType": "bytes",
          "name": "data",
          "type": "bytes"
        }
      ],
      "name": "safeTransferFrom",
      "outputs": [],
      "stateMutability": "nonpayable",
      "type": "function"
    },
    {
      "inputs": [
        {
          "internalType": "address",
          "name": "operator",
          "type": "address"
        },
        {
          "internalType": "bool",
          "name": "approved",
          "type": "bool"
        }
      ],
      "name": "setApprovalForAll",
      "outputs": [],
      "stateMutability": "nonpayable",
      "type": "function"
    },
    {
      "inputs": [
        {
          "internalType": "uint256",
          "name": "tokenId",
          "type": "uint256"
        },
        {
          "internalType": "string",
          "name": "cid",
          "type": "string"
        }
      ],
      "name": "storeEventCID",
      "outputs": [],
      "stateMutability": "nonpayable",
      "type": "function"
    },
    {
      "inputs": [
        {
          "internalType": "bytes4",
          "name": "interfaceId",
          "type": "bytes4"
        }
      ],
      "name": "supportsInterface",
      "outputs": [
        {
          "internalType": "bool",
          "name": "",
          "type": "bool"
        }
      ],
      "stateMutability": "view",
      "type": "function"
    },
    {
      "inputs": [
        {
          "internalType": "uint256",
          "name": "",
          "type": "uint256"
        },
        {
          "internalType": "uint256",
          "name": "",
          "type": "uint256"
        }
      ],
      "name": "transactionCIDs",
      "outputs": [
        {
          "internalType": "string",
          "name": "",
          "type": "string"
        }
      ],
      "stateMutability": "view",
      "type": "function"
    },
    {
      "inputs": [
        {
          "internalType": "address",
          "name": "newOwner",
          "type": "address"
        }
      ],
      "name": "transferOwnership",
      "outputs": [],
      "stateMutability": "nonpayable",
      "type": "function"
    },
    {
      "inputs": [
        {
          "internalType": "uint256",
          "name": "tokenId",
          "type": "uint256"
        },
        {
          "internalType": "string",
          "name": "newMetadataCID",
          "type": "string"
        }
      ],
      "name": "updateMetadata",
      "outputs": [],
      "stateMutability": "nonpayable",
      "type": "function"
    },
    {
      "inputs": [
        {
          "internalType": "uint256",
          "name": "tokenId",
          "type": "uint256"
        },
        {
          "internalType": "string",
          "name": "newPrice",
          "type": "string"
        }
      ],
      "name": "updatePrice",
      "outputs": [],
      "stateMutability": "nonpayable",
      "type": "function"
    },
    {
      "inputs": [
        {
          "internalType": "uint256",
          "name": "tokenId",
          "type": "uint256"
        },
        {
          "internalType": "uint256",
          "name": "newQuantity",
          "type": "uint256"
        }
      ],
      "name": "updateQuantity",
      "outputs": [],
      "stateMutability": "nonpayable",
      "type": "function"
    },
    {
      "inputs": [
        {
          "internalType": "uint256",
          "name": "tokenId",
          "type": "uint256"
        },
        {
          "internalType": "string",
          "name": "newStatus",
          "type": "string"
        }
      ],
      "name": "updateStatus",
      "outputs": [],
      "stateMutability": "nonpayable",
      "type": "function"
    },
    {
      "inputs": [
        {
          "internalType": "uint256",
          "name": "",
          "type": "uint256"
        }
      ],
      "name": "uri",
      "outputs": [
        {
          "internalType": "string",
          "name": "",
          "type": "string"
        }
      ],
      "stateMutability": "view",
      "type": "function"
    }
  ],
  "bytecode": "0x608060405234801561001057600080fd5b50336040518060400160405280601081526020017f697066733a2f2f7b69647d2e6a736f6e00000000000000000000000000000000815250610057816100df60201b60201c565b50600073ffffffffffffffffffffffffffffffffffffffff168173ffffffffffffffffffffffffffffffffffffffff16036100ca5760006040517f1e4fbdf70000000000000000000000000000000000000000000000000000000081526004016100c191906101f9565b60405180910390fd5b6100d9816100f260201b60201c565b50610536565b80600290816100ee9190610464565b5050565b6000600360009054906101000a900473ffffffffffffffffffffffffffffffffffffffff16905081600360006101000a81548173ffffffffffffffffffffffffffffffffffffffff021916908373ffffffffffffffffffffffffffffffffffffffff1602179055508173ffffffffffffffffffffffffffffffffffffffff168173ffffffffffffffffffffffffffffffffffffffff167f8be0079c531659141344cd1fd0a4f28419497f9722a3daafe3b4186f6b6457e060405160405180910390a35050565b600073ffffffffffffffffffffffffffffffffffffffff82169050919050565b60006101e3826101b8565b9050919050565b6101f3816101d8565b82525050565b600060208201905061020e60008301846101ea565b92915050565b600081519050919050565b7f4e487b7100000000000000000000000000000000000000000000000000000000600052604160045260246000fd5b7f4e487b7100000000000000000000000000000000000000000000000000000000600052602260045260246000fd5b6000600282049050600182168061029557607f821691505b6020821081036102a8576102a761024e565b5b50919050565b60008190508160005260206000209050919050565b60006020601f8301049050919050565b600082821b905092915050565b6000600883026103107fffffffffffffffffffffffffffffffffffffffffffffffffffffffffffffffff826102d3565b61031a86836102d3565b95508019841693508086168417925050509392505050565b6000819050919050565b6000819050919050565b600061036161035c61035784610332565b61033c565b610332565b9050919050565b6000819050919050565b61037b83610346565b61038f61038782610368565b8484546102e0565b825550505050565b600090565b6103a4610397565b6103af818484610372565b505050565b5b818110156103d3576103c860008261039c565b6001810190506103b5565b5050565b601f821115610418576103e9816102ae565b6103f2846102c3565b81016020851015610401578190505b61041561040d856102c3565b8301826103b4565b50505b505050565b600082821c905092915050565b600061043b6000198460080261041d565b1980831691505092915050565b6000610454838361042a565b9150826002028217905092915050565b61046d82610214565b67ffffffffffffffff8111156104865761048561021f565b5b610490825461027d565b61049b8282856103d7565b600060209050601f8311600181146104ce57600084156104bc578287015190505b6104c68582610448565b86555061052e565b601f1984166104dc866102ae565b60005b82811015610504578489015182556001820191506020850194506020810190506104df565b86831015610521578489015161051d601f89168261042a565b8355505b6001600288020188555050505b505050505050565b614c2a806105456000396000f3fe6080604052600436106101cc5760003560e01c8063715018a6116100f7578063a57e953711610095578063e985e9c511610064578063e985e9c5146106e8578063f242432a14610725578063f2fde38b1461074e578063fd68b3ff14610777576101cc565b8063a57e95371461061a578063bdbed72214610657578063d1b34dd814610682578063e5451103146106ab576101cc565b806379cd4921116100d157806379cd4921146105605780638da5cb5b146105895780639c13bea9146105b4578063a22cb465146105f1576101cc565b8063715018a6146104df578063738c4b2c146104f657806379a85e6c1461051f576101cc565b8063342867581161016f57806353c8388e1161013e57806353c8388e1461041357806355cdc6311461043c578063681ece9d146104795780637103b15b146104b6576101cc565b8063342867581461034757806340284213146103705780634e1273f41461039957806353845509146103d6576101cc565b80630ea3d3ee116101ab5780630ea3d3ee146102885780632020dc89146102c557806328ffe6f4146103025780632eb2c2d61461031e576101cc565b8062fdd58e146101d157806301ffc9a71461020e5780630e89341c1461024b575b600080fd5b3480156101dd57600080fd5b506101f860048036038101906101f39190613013565b6107b4565b6040516102059190613062565b60405180910390f35b34801561021a57600080fd5b50610235600480360381019061023091906130d5565b61080e565b604051610242919061311d565b60405180910390f35b34801561025757600080fd5b50610272600480360381019061026d9190613138565b6108f0565b60405161027f91906131f5565b60405180910390f35b34801561029457600080fd5b506102af60048036038101906102aa9190613138565b610984565b6040516102bc91906131f5565b60405180910390f35b3480156102d157600080fd5b506102ec60048036038101906102e79190613138565b610a24565b6040516102f99190613062565b60405180910390f35b61031c6004803603810190610317919061335f565b610a3c565b005b34801561032a57600080fd5b506103456004803603810190610340919061349f565b610d5e565b005b34801561035357600080fd5b5061036e6004803603810190610369919061356e565b610e06565b005b34801561037c57600080fd5b506103976004803603810190610392919061364f565b610faa565b005b3480156103a557600080fd5b506103c060048036038101906103bb91906137f3565b6111e2565b6040516103cd9190613929565b60405180910390f35b3480156103e257600080fd5b506103fd60048036038101906103f89190613138565b6112eb565b60405161040a91906131f5565b60405180910390f35b34801561041f57600080fd5b5061043a6004803603810190610435919061394b565b61138b565b005b34801561044857600080fd5b50610463600480360381019061045e919061356e565b611409565b60405161047091906131f5565b60405180910390f35b34801561048557600080fd5b506104a0600480360381019061049b9190613138565b6114c2565b6040516104ad9190613a65565b60405180910390f35b3480156104c257600080fd5b506104dd60048036038101906104d8919061394b565b611563565b005b3480156104eb57600080fd5b506104f46115e1565b005b34801561050257600080fd5b5061051d6004803603810190610518919061394b565b6115f5565b005b34801561052b57600080fd5b5061054660048036038101906105419190613138565b61163f565b604051610557959493929190613a96565b60405180910390f35b34801561056c57600080fd5b506105876004803603810190610582919061356e565b611880565b005b34801561059557600080fd5b5061059e6119af565b6040516105ab9190613afe565b60405180910390f35b3480156105c057600080fd5b506105db60048036038101906105d69190613138565b6119d9565b6040516105e89190613c25565b60405180910390f35b3480156105fd57600080fd5b5061061860048036038101906106139190613c73565b611ac5565b005b34801561062657600080fd5b50610641600480360381019061063c9190613138565b611adb565b60405161064e91906131f5565b60405180910390f35b34801561066357600080fd5b5061066c611b80565b6040516106799190613d5f565b60405180910390f35b34801561068e57600080fd5b506106a960048036038101906106a4919061394b565b611bfd565b005b3480156106b757600080fd5b506106d260048036038101906106cd9190613138565b611c7b565b6040516106df9190613afe565b60405180910390f35b3480156106f457600080fd5b5061070f600480360381019061070a9190613d81565b611cae565b60405161071c919061311d565b60405180910390f35b34801561073157600080fd5b5061074c60048036038101906107479190613dc1565b611d42565b005b34801561075a57600080fd5b5061077560048036038101906107709190613e58565b611dea565b005b34801561078357600080fd5b5061079e60048036038101906107999190613138565b611e70565b6040516107ab91906131f5565b60405180910390f35b600080600083815260200190815260200160002060008473ffffffffffffffffffffffffffffffffffffffff1673ffffffffffffffffffffffffffffffffffffffff16815260200190815260200160002054905092915050565b60007fd9b67a26000000000000000000000000000000000000000000000000000000007bffffffffffffffffffffffffffffffffffffffffffffffffffffffff1916827bffffffffffffffffffffffffffffffffffffffffffffffffffffffff191614806108d957507f0e89341c000000000000000000000000000000000000000000000000000000007bffffffffffffffffffffffffffffffffffffffffffffffffffffffff1916827bffffffffffffffffffffffffffffffffffffffffffffffffffffffff1916145b806108e957506108e882611f10565b5b9050919050565b6060600280546108ff90613eb4565b80601f016020809104026020016040519081016040528092919081815260200182805461092b90613eb4565b80156109785780601f1061094d57610100808354040283529160200191610978565b820191906000526020600020905b81548152906001019060200180831161095b57829003601f168201915b50505050509050919050565b600760205280600052604060002060009150905080546109a390613eb4565b80601f01602080910402602001604051908101604052809291908181526020018280546109cf90613eb4565b8015610a1c5780601f106109f157610100808354040283529160200191610a1c565b820191906000526020600020905b8154815290600101906020018083116109ff57829003601f168201915b505050505081565b60066020528060005260406000206000915090505481565b8151835114610a80576040517f08c379a0000000000000000000000000000000000000000000000000000000008152600401610a7790613f31565b60405180910390fd5b803414610ac2576040517f08c379a0000000000000000000000000000000000000000000000000000000008152600401610ab990613f9d565b60405180910390fd5b610b39816008600086600081518110610ade57610add613fbd565b5b6020026020010151815260200190815260200160002060009054906101000a900473ffffffffffffffffffffffffffffffffffffffff1673ffffffffffffffffffffffffffffffffffffffff16611f7a90919063ffffffff16565b60005b8351811015610cee576000848281518110610b5a57610b59613fbd565b5b602002602001015190506000848381518110610b7957610b78613fbd565b5b602002602001015190508060066000848152602001908152602001600020541015610bd9576040517f08c379a0000000000000000000000000000000000000000000000000000000008152600401610bd09061405e565b60405180910390fd5b80600660008481526020019081526020016000206000828254610bfc91906140ad565b92505081905550610c526008600084815260200190815260200160002060009054906101000a900473ffffffffffffffffffffffffffffffffffffffff1633848460405180602001604052806000815250612069565b60005b81811015610cde5760096000848152602001908152602001600020339080600181540180825580915050600190039060005260206000200160009091909190916101000a81548173ffffffffffffffffffffffffffffffffffffffff021916908373ffffffffffffffffffffffffffffffffffffffff1602179055508080600101915050610c55565b5050508080600101915050610b3c565b503373ffffffffffffffffffffffffffffffffffffffff1683600081518110610d1a57610d19613fbd565b5b60200260200101517ff6098485fa1342b7ffa7d3f00cebbf7451bff0809d4dc6104af12fe4a31b7aac42604051610d519190614179565b60405180910390a3505050565b6000610d68612174565b90508073ffffffffffffffffffffffffffffffffffffffff168673ffffffffffffffffffffffffffffffffffffffff1614158015610dad5750610dab8682611cae565b155b15610df15780866040517fe237d922000000000000000000000000000000000000000000000000000000008152600401610de89291906141ba565b60405180910390fd5b610dfe868686868661217c565b505050505050565b6008600083815260200190815260200160002060009054906101000a900473ffffffffffffffffffffffffffffffffffffffff1673ffffffffffffffffffffffffffffffffffffffff163373ffffffffffffffffffffffffffffffffffffffff1614610ea7576040517f08c379a0000000000000000000000000000000000000000000000000000000008152600401610e9e90614255565b60405180910390fd5b610eb2338383612274565b80600660008481526020019081526020016000206000828254610ed591906140ad565b925050819055506000600660008481526020019081526020016000205403610f57576040518060400160405280600d81526020017f6e6f7420617661696c61626c6500000000000000000000000000000000000000815250600760008481526020019081526020016000209081610f4c9190614421565b50610f568261231b565b5b3373ffffffffffffffffffffffffffffffffffffffff16827ff6098485fa1342b7ffa7d3f00cebbf7451bff0809d4dc6104af12fe4a31b7aac42604051610f9e919061458b565b60405180910390a35050565b610fb26123e1565b610fcd33878760405180602001604052806000815250612468565b83600460008881526020019081526020016000209081610fed9190614421565b508260056000888152602001908152602001600020908161100e9190614421565b50816006600088815260200190815260200160002081905550806007600088815260200190815260200160002090816110479190614421565b50336008600088815260200190815260200160002060006101000a81548173ffffffffffffffffffffffffffffffffffffffff021916908373ffffffffffffffffffffffffffffffffffffffff160217905550600c600087815260200190815260200160002060009054906101000a900460ff1661111557600b8690806001815401808255809150506001900390600052602060002001600090919091909150556001600c600088815260200190815260200160002060006101000a81548160ff0219169083151502179055505b60096000878152602001908152602001600020339080600181540180825580915050600190039060005260206000200160009091909190916101000a81548173ffffffffffffffffffffffffffffffffffffffff021916908373ffffffffffffffffffffffffffffffffffffffff1602179055503373ffffffffffffffffffffffffffffffffffffffff16867ff6098485fa1342b7ffa7d3f00cebbf7451bff0809d4dc6104af12fe4a31b7aac42876040516111d2929190614618565b60405180910390a3505050505050565b6060815183511461122e57815183516040517f5b05999100000000000000000000000000000000000000000000000000000000815260040161122592919061465b565b60405180910390fd5b6000835167ffffffffffffffff81111561124b5761124a61321c565b5b6040519080825280602002602001820160405280156112795781602001602082028036833780820191505090505b50905060005b84518110156112e0576112b661129e828761250190919063ffffffff16565b6112b1838761251590919063ffffffff16565b6107b4565b8282815181106112c9576112c8613fbd565b5b60200260200101818152505080600101905061127f565b508091505092915050565b6004602052806000526040600020600091509050805461130a90613eb4565b80601f016020809104026020016040519081016040528092919081815260200182805461133690613eb4565b80156113835780601f1061135857610100808354040283529160200191611383565b820191906000526020600020905b81548152906001019060200180831161136657829003601f168201915b505050505081565b6113936123e1565b806004600084815260200190815260200160002090816113b39190614421565b503373ffffffffffffffffffffffffffffffffffffffff16827ff6098485fa1342b7ffa7d3f00cebbf7451bff0809d4dc6104af12fe4a31b7aac42846040516113fd9291906146d0565b60405180910390a35050565b600d602052816000526040600020818154811061142557600080fd5b9060005260206000200160009150915050805461144190613eb4565b80601f016020809104026020016040519081016040528092919081815260200182805461146d90613eb4565b80156114ba5780601f1061148f576101008083540402835291602001916114ba565b820191906000526020600020905b81548152906001019060200180831161149d57829003601f168201915b505050505081565b60606009600083815260200190815260200160002080548060200260200160405190810160405280929190818152602001828054801561155757602002820191906000526020600020905b8160009054906101000a900473ffffffffffffffffffffffffffffffffffffffff1673ffffffffffffffffffffffffffffffffffffffff168152602001906001019080831161150d575b50505050509050919050565b61156b6123e1565b8060056000848152602001908152602001600020908161158b9190614421565b503373ffffffffffffffffffffffffffffffffffffffff16827ff6098485fa1342b7ffa7d3f00cebbf7451bff0809d4dc6104af12fe4a31b7aac42846040516115d592919061475f565b60405180910390a35050565b6115e96123e1565b6115f36000612529565b565b600d60008381526020019081526020016000208190806001815401808255809150506001900390600052602060002001600090919091909150908161163a9190614421565b505050565b60608060006060600060046000878152602001908152602001600020600560008881526020019081526020016000206006600089815260200190815260200160002054600760008a8152602001908152602001600020600860008b815260200190815260200160002060009054906101000a900473ffffffffffffffffffffffffffffffffffffffff168480546116d590613eb4565b80601f016020809104026020016040519081016040528092919081815260200182805461170190613eb4565b801561174e5780601f106117235761010080835404028352916020019161174e565b820191906000526020600020905b81548152906001019060200180831161173157829003601f168201915b5050505050945083805461176190613eb4565b80601f016020809104026020016040519081016040528092919081815260200182805461178d90613eb4565b80156117da5780601f106117af576101008083540402835291602001916117da565b820191906000526020600020905b8154815290600101906020018083116117bd57829003601f168201915b505050505093508180546117ed90613eb4565b80601f016020809104026020016040519081016040528092919081815260200182805461181990613eb4565b80156118665780601f1061183b57610100808354040283529160200191611866565b820191906000526020600020905b81548152906001019060200180831161184957829003601f168201915b505050505091509450945094509450945091939590929450565b6118886123e1565b60006006600084815260200190815260200160002054905060008210156118e4576040517f08c379a00000000000000000000000000000000000000000000000000000000081526004016118db906147ee565b60405180910390fd5b8082101561190d57600082826118fa91906140ad565b9050611907338583612274565b50611943565b80821115611942576000818361192391906140ad565b905061194033858360405180602001604052806000815250612468565b505b5b8160066000858152602001908152602001600020819055503373ffffffffffffffffffffffffffffffffffffffff16837ff6098485fa1342b7ffa7d3f00cebbf7451bff0809d4dc6104af12fe4a31b7aac426040516119a291906148a6565b60405180910390a3505050565b6000600360009054906101000a900473ffffffffffffffffffffffffffffffffffffffff16905090565b6060600d6000838152602001908152602001600020805480602002602001604051908101604052809291908181526020016000905b82821015611aba578382906000526020600020018054611a2d90613eb4565b80601f0160208091040260200160405190810160405280929190818152602001828054611a5990613eb4565b8015611aa65780601f10611a7b57610100808354040283529160200191611aa6565b820191906000526020600020905b815481529060010190602001808311611a8957829003601f168201915b505050505081526020019060010190611a0e565b505050509050919050565b611ad7611ad0612174565b83836125ef565b5050565b6060600460008381526020019081526020016000208054611afb90613eb4565b80601f0160208091040260200160405190810160405280929190818152602001828054611b2790613eb4565b8015611b745780601f10611b4957610100808354040283529160200191611b74565b820191906000526020600020905b815481529060010190602001808311611b5757829003601f168201915b50505050509050919050565b611b88612f51565b60006040518060400160405280600b805490508152602001600b805480602002602001604051908101604052809291908181526020018280548015611bec57602002820191906000526020600020905b815481526020019060010190808311611bd8575b505050505081525090508091505090565b611c056123e1565b80600760008481526020019081526020016000209081611c259190614421565b503373ffffffffffffffffffffffffffffffffffffffff16827ff6098485fa1342b7ffa7d3f00cebbf7451bff0809d4dc6104af12fe4a31b7aac4284604051611c6f929190614933565b60405180910390a35050565b60086020528060005260406000206000915054906101000a900473ffffffffffffffffffffffffffffffffffffffff1681565b6000600160008473ffffffffffffffffffffffffffffffffffffffff1673ffffffffffffffffffffffffffffffffffffffff16815260200190815260200160002060008373ffffffffffffffffffffffffffffffffffffffff1673ffffffffffffffffffffffffffffffffffffffff16815260200190815260200160002060009054906101000a900460ff16905092915050565b6000611d4c612174565b90508073ffffffffffffffffffffffffffffffffffffffff168673ffffffffffffffffffffffffffffffffffffffff1614158015611d915750611d8f8682611cae565b155b15611dd55780866040517fe237d922000000000000000000000000000000000000000000000000000000008152600401611dcc9291906141ba565b60405180910390fd5b611de28686868686612069565b505050505050565b611df26123e1565b600073ffffffffffffffffffffffffffffffffffffffff168173ffffffffffffffffffffffffffffffffffffffff1603611e645760006040517f1e4fbdf7000000000000000000000000000000000000000000000000000000008152600401611e5b9190613afe565b60405180910390fd5b611e6d81612529565b50565b60056020528060005260406000206000915090508054611e8f90613eb4565b80601f0160208091040260200160405190810160405280929190818152602001828054611ebb90613eb4565b8015611f085780601f10611edd57610100808354040283529160200191611f08565b820191906000526020600020905b815481529060010190602001808311611eeb57829003601f168201915b505050505081565b60007f01ffc9a7000000000000000000000000000000000000000000000000000000007bffffffffffffffffffffffffffffffffffffffffffffffffffffffff1916827bffffffffffffffffffffffffffffffffffffffffffffffffffffffff1916149050919050565b80471015611fc15747816040517fcf479181000000000000000000000000000000000000000000000000000000008152600401611fb892919061465b565b60405180910390fd5b60008273ffffffffffffffffffffffffffffffffffffffff1682604051611fe7906149a7565b60006040518083038185875af1925050503d8060008114612024576040519150601f19603f3d011682016040523d82523d6000602084013e612029565b606091505b5050905080612064576040517fd6bda27500000000000000000000000000000000000000000000000000000000815260040160405180910390fd5b505050565b600073ffffffffffffffffffffffffffffffffffffffff168473ffffffffffffffffffffffffffffffffffffffff16036120db5760006040517f57f447ce0000000000000000000000000000000000000000000000000000000081526004016120d29190613afe565b60405180910390fd5b600073ffffffffffffffffffffffffffffffffffffffff168573ffffffffffffffffffffffffffffffffffffffff160361214d5760006040517f01a835140000000000000000000000000000000000000000000000000000000081526004016121449190613afe565b60405180910390fd5b60008061215a858561275f565b9150915061216b878784848761278f565b50505050505050565b600033905090565b600073ffffffffffffffffffffffffffffffffffffffff168473ffffffffffffffffffffffffffffffffffffffff16036121ee5760006040517f57f447ce0000000000000000000000000000000000000000000000000000000081526004016121e59190613afe565b60405180910390fd5b600073ffffffffffffffffffffffffffffffffffffffff168573ffffffffffffffffffffffffffffffffffffffff16036122605760006040517f01a835140000000000000000000000000000000000000000000000000000000081526004016122579190613afe565b60405180910390fd5b61226d858585858561278f565b5050505050565b600073ffffffffffffffffffffffffffffffffffffffff168373ffffffffffffffffffffffffffffffffffffffff16036122e65760006040517f01a835140000000000000000000000000000000000000000000000000000000081526004016122dd9190613afe565b60405180910390fd5b6000806122f3848461275f565b9150915061231485600084846040518060200160405280600081525061278f565b5050505050565b6000600b80549050905060005b818110156123dc5782600b828154811061234557612344613fbd565b5b9060005260206000200154036123cf57600b60018361236491906140ad565b8154811061237557612374613fbd565b5b9060005260206000200154600b828154811061239457612393613fbd565b5b9060005260206000200181905550600b8054806123b4576123b36149bc565b5b600190038181906000526020600020016000905590556123dc565b8080600101915050612328565b505050565b6123e9612174565b73ffffffffffffffffffffffffffffffffffffffff166124076119af565b73ffffffffffffffffffffffffffffffffffffffff16146124665761242a612174565b6040517f118cdaa700000000000000000000000000000000000000000000000000000000815260040161245d9190613afe565b60405180910390fd5b565b600073ffffffffffffffffffffffffffffffffffffffff168473ffffffffffffffffffffffffffffffffffffffff16036124da5760006040517f57f447ce0000000000000000000000000000000000000000000000000000000081526004016124d19190613afe565b60405180910390fd5b6000806124e7858561275f565b915091506124f960008784848761278f565b505050505050565b600060208202602084010151905092915050565b600060208202602084010151905092915050565b6000600360009054906101000a900473ffffffffffffffffffffffffffffffffffffffff16905081600360006101000a81548173ffffffffffffffffffffffffffffffffffffffff021916908373ffffffffffffffffffffffffffffffffffffffff1602179055508173ffffffffffffffffffffffffffffffffffffffff168173ffffffffffffffffffffffffffffffffffffffff167f8be0079c531659141344cd1fd0a4f28419497f9722a3daafe3b4186f6b6457e060405160405180910390a35050565b600073ffffffffffffffffffffffffffffffffffffffff168273ffffffffffffffffffffffffffffffffffffffff16036126615760006040517fced3e1000000000000000000000000000000000000000000000000000000000081526004016126589190613afe565b60405180910390fd5b80600160008573ffffffffffffffffffffffffffffffffffffffff1673ffffffffffffffffffffffffffffffffffffffff16815260200190815260200160002060008473ffffffffffffffffffffffffffffffffffffffff1673ffffffffffffffffffffffffffffffffffffffff16815260200190815260200160002060006101000a81548160ff0219169083151502179055508173ffffffffffffffffffffffffffffffffffffffff168373ffffffffffffffffffffffffffffffffffffffff167f17307eab39ab6107e8899845ad3d59bd9653f200f220920489ca2b5937696c3183604051612752919061311d565b60405180910390a3505050565b60608060405191506001825283602083015260408201905060018152826020820152604081016040529250929050565b61279b85858585612841565b600073ffffffffffffffffffffffffffffffffffffffff168473ffffffffffffffffffffffffffffffffffffffff161461283a5760006127d9612174565b905060018451036128295760006127fa60008661251590919063ffffffff16565b9050600061281260008661251590919063ffffffff16565b9050612822838989858589612be9565b5050612838565b612837818787878787612d9d565b5b505b5050505050565b805182511461288b57815181516040517f5b05999100000000000000000000000000000000000000000000000000000000815260040161288292919061465b565b60405180910390fd5b6000612895612174565b905060005b8351811015612aa45760006128b8828661251590919063ffffffff16565b905060006128cf838661251590919063ffffffff16565b9050600073ffffffffffffffffffffffffffffffffffffffff168873ffffffffffffffffffffffffffffffffffffffff16146129fc57600080600084815260200190815260200160002060008a73ffffffffffffffffffffffffffffffffffffffff1673ffffffffffffffffffffffffffffffffffffffff168152602001908152602001600020549050818110156129a457888183856040517f03dee4c500000000000000000000000000000000000000000000000000000000815260040161299b94939291906149eb565b60405180910390fd5b81810360008085815260200190815260200160002060008b73ffffffffffffffffffffffffffffffffffffffff1673ffffffffffffffffffffffffffffffffffffffff16815260200190815260200160002081905550505b600073ffffffffffffffffffffffffffffffffffffffff168773ffffffffffffffffffffffffffffffffffffffff1614612a97578060008084815260200190815260200160002060008973ffffffffffffffffffffffffffffffffffffffff1673ffffffffffffffffffffffffffffffffffffffff1681526020019081526020016000206000828254612a8f9190614a30565b925050819055505b505080600101905061289a565b506001835103612b63576000612ac460008561251590919063ffffffff16565b90506000612adc60008561251590919063ffffffff16565b90508573ffffffffffffffffffffffffffffffffffffffff168773ffffffffffffffffffffffffffffffffffffffff168473ffffffffffffffffffffffffffffffffffffffff167fc3d58168c5ae7397731d063d5bbf3d657854427343f4c083240f7aacaa2d0f628585604051612b5492919061465b565b60405180910390a45050612be2565b8373ffffffffffffffffffffffffffffffffffffffff168573ffffffffffffffffffffffffffffffffffffffff168273ffffffffffffffffffffffffffffffffffffffff167f4a39dc06d4c0dbc64b70af90fd698a233a518aa5d07e595d983b8c0526c8f7fb8686604051612bd9929190614a64565b60405180910390a45b5050505050565b60008473ffffffffffffffffffffffffffffffffffffffff163b1115612d95578373ffffffffffffffffffffffffffffffffffffffff1663f23a6e6187878686866040518663ffffffff1660e01b8152600401612c4a959493929190614af0565b6020604051808303816000875af1925050508015612c8657506040513d601f19601f82011682018060405250810190612c839190614b5f565b60015b612d0a573d8060008114612cb6576040519150601f19603f3d011682016040523d82523d6000602084013e612cbb565b606091505b506000815103612d0257846040517f57f447ce000000000000000000000000000000000000000000000000000000008152600401612cf99190613afe565b60405180910390fd5b805181602001fd5b63f23a6e6160e01b7bffffffffffffffffffffffffffffffffffffffffffffffffffffffff1916817bffffffffffffffffffffffffffffffffffffffffffffffffffffffff191614612d9357846040517f57f447ce000000000000000000000000000000000000000000000000000000008152600401612d8a9190613afe565b60405180910390fd5b505b505050505050565b60008473ffffffffffffffffffffffffffffffffffffffff163b1115612f49578373ffffffffffffffffffffffffffffffffffffffff1663bc197c8187878686866040518663ffffffff1660e01b8152600401612dfe959493929190614b8c565b6020604051808303816000875af1925050508015612e3a57506040513d601f19601f82011682018060405250810190612e379190614b5f565b60015b612ebe573d8060008114612e6a576040519150601f19603f3d011682016040523d82523d6000602084013e612e6f565b606091505b506000815103612eb657846040517f57f447ce000000000000000000000000000000000000000000000000000000008152600401612ead9190613afe565b60405180910390fd5b805181602001fd5b63bc197c8160e01b7bffffffffffffffffffffffffffffffffffffffffffffffffffffffff1916817bffffffffffffffffffffffffffffffffffffffffffffffffffffffff191614612f4757846040517f57f447ce000000000000000000000000000000000000000000000000000000008152600401612f3e9190613afe565b60405180910390fd5b505b505050505050565b604051806040016040528060008152602001606081525090565b6000604051905090565b600080fd5b600080fd5b600073ffffffffffffffffffffffffffffffffffffffff82169050919050565b6000612faa82612f7f565b9050919050565b612fba81612f9f565b8114612fc557600080fd5b50565b600081359050612fd781612fb1565b92915050565b6000819050919050565b612ff081612fdd565b8114612ffb57600080fd5b50565b60008135905061300d81612fe7565b92915050565b6000806040838503121561302a57613029612f75565b5b600061303885828601612fc8565b925050602061304985828601612ffe565b9150509250929050565b61305c81612fdd565b82525050565b60006020820190506130776000830184613053565b92915050565b60007fffffffff0000000000000000000000000000000000000000000000000000000082169050919050565b6130b28161307d565b81146130bd57600080fd5b50565b6000813590506130cf816130a9565b92915050565b6000602082840312156130eb576130ea612f75565b5b60006130f9848285016130c0565b91505092915050565b60008115159050919050565b61311781613102565b82525050565b6000602082019050613132600083018461310e565b92915050565b60006020828403121561314e5761314d612f75565b5b600061315c84828501612ffe565b91505092915050565b600081519050919050565b600082825260208201905092915050565b60005b8381101561319f578082015181840152602081019050613184565b60008484015250505050565b6000601f19601f8301169050919050565b60006131c782613165565b6131d18185613170565b93506131e1818560208601613181565b6131ea816131ab565b840191505092915050565b6000602082019050818103600083015261320f81846131bc565b905092915050565b600080fd5b7f4e487b7100000000000000000000000000000000000000000000000000000000600052604160045260246000fd5b613254826131ab565b810181811067ffffffffffffffff821117156132735761327261321c565b5b80604052505050565b6000613286612f6b565b9050613292828261324b565b919050565b600067ffffffffffffffff8211156132b2576132b161321c565b5b602082029050602081019050919050565b600080fd5b60006132db6132d684613297565b61327c565b905080838252602082019050602084028301858111156132fe576132fd6132c3565b5b835b8181101561332757806133138882612ffe565b845260208401935050602081019050613300565b5050509392505050565b600082601f83011261334657613345613217565b5b81356133568482602086016132c8565b91505092915050565b60008060006060848603121561337857613377612f75565b5b600084013567ffffffffffffffff81111561339657613395612f7a565b5b6133a286828701613331565b935050602084013567ffffffffffffffff8111156133c3576133c2612f7a565b5b6133cf86828701613331565b92505060406133e086828701612ffe565b9150509250925092565b600080fd5b600067ffffffffffffffff82111561340a5761340961321c565b5b613413826131ab565b9050602081019050919050565b82818337600083830152505050565b600061344261343d846133ef565b61327c565b90508281526020810184848401111561345e5761345d6133ea565b5b613469848285613420565b509392505050565b600082601f83011261348657613485613217565b5b813561349684826020860161342f565b91505092915050565b600080600080600060a086880312156134bb576134ba612f75565b5b60006134c988828901612fc8565b95505060206134da88828901612fc8565b945050604086013567ffffffffffffffff8111156134fb576134fa612f7a565b5b61350788828901613331565b935050606086013567ffffffffffffffff81111561352857613527612f7a565b5b61353488828901613331565b925050608086013567ffffffffffffffff81111561355557613554612f7a565b5b61356188828901613471565b9150509295509295909350565b6000806040838503121561358557613584612f75565b5b600061359385828601612ffe565b92505060206135a485828601612ffe565b9150509250929050565b600067ffffffffffffffff8211156135c9576135c861321c565b5b6135d2826131ab565b9050602081019050919050565b60006135f26135ed846135ae565b61327c565b90508281526020810184848401111561360e5761360d6133ea565b5b613619848285613420565b509392505050565b600082601f83011261363657613635613217565b5b81356136468482602086016135df565b91505092915050565b60008060008060008060c0878903121561366c5761366b612f75565b5b600061367a89828a01612ffe565b965050602061368b89828a01612ffe565b955050604087013567ffffffffffffffff8111156136ac576136ab612f7a565b5b6136b889828a01613621565b945050606087013567ffffffffffffffff8111156136d9576136d8612f7a565b5b6136e589828a01613621565b93505060806136f689828a01612ffe565b92505060a087013567ffffffffffffffff81111561371757613716612f7a565b5b61372389828a01613621565b9150509295509295509295565b600067ffffffffffffffff82111561374b5761374a61321c565b5b602082029050602081019050919050565b600061376f61376a84613730565b61327c565b90508083825260208201905060208402830185811115613792576137916132c3565b5b835b818110156137bb57806137a78882612fc8565b845260208401935050602081019050613794565b5050509392505050565b600082601f8301126137da576137d9613217565b5b81356137ea84826020860161375c565b91505092915050565b6000806040838503121561380a57613809612f75565b5b600083013567ffffffffffffffff81111561382857613827612f7a565b5b613834858286016137c5565b925050602083013567ffffffffffffffff81111561385557613854612f7a565b5b61386185828601613331565b9150509250929050565b600081519050919050565b600082825260208201905092915050565b6000819050602082019050919050565b6138a081612fdd565b82525050565b60006138b28383613897565b60208301905092915050565b6000602082019050919050565b60006138d68261386b565b6138e08185613876565b93506138eb83613887565b8060005b8381101561391c57815161390388826138a6565b975061390e836138be565b9250506001810190506138ef565b5085935050505092915050565b6000602082019050818103600083015261394381846138cb565b905092915050565b6000806040838503121561396257613961612f75565b5b600061397085828601612ffe565b925050602083013567ffffffffffffffff81111561399157613990612f7a565b5b61399d85828601613621565b9150509250929050565b600081519050919050565b600082825260208201905092915050565b6000819050602082019050919050565b6139dc81612f9f565b82525050565b60006139ee83836139d3565b60208301905092915050565b6000602082019050919050565b6000613a12826139a7565b613a1c81856139b2565b9350613a27836139c3565b8060005b83811015613a58578151613a3f88826139e2565b9750613a4a836139fa565b925050600181019050613a2b565b5085935050505092915050565b60006020820190508181036000830152613a7f8184613a07565b905092915050565b613a9081612f9f565b82525050565b600060a0820190508181036000830152613ab081886131bc565b90508181036020830152613ac481876131bc565b9050613ad36040830186613053565b8181036060830152613ae581856131bc565b9050613af46080830184613a87565b9695505050505050565b6000602082019050613b136000830184613a87565b92915050565b600081519050919050565b600082825260208201905092915050565b6000819050602082019050919050565b600082825260208201905092915050565b6000613b6182613165565b613b6b8185613b45565b9350613b7b818560208601613181565b613b84816131ab565b840191505092915050565b6000613b9b8383613b56565b905092915050565b6000602082019050919050565b6000613bbb82613b19565b613bc58185613b24565b935083602082028501613bd785613b35565b8060005b85811015613c135784840389528151613bf48582613b8f565b9450613bff83613ba3565b925060208a01995050600181019050613bdb565b50829750879550505050505092915050565b60006020820190508181036000830152613c3f8184613bb0565b905092915050565b613c5081613102565b8114613c5b57600080fd5b50565b600081359050613c6d81613c47565b92915050565b60008060408385031215613c8a57613c89612f75565b5b6000613c9885828601612fc8565b9250506020613ca985828601613c5e565b9150509250929050565b600082825260208201905092915050565b6000613ccf8261386b565b613cd98185613cb3565b9350613ce483613887565b8060005b83811015613d15578151613cfc88826138a6565b9750613d07836138be565b925050600181019050613ce8565b5085935050505092915050565b6000604083016000830151613d3a6000860182613897565b5060208301518482036020860152613d528282613cc4565b9150508091505092915050565b60006020820190508181036000830152613d798184613d22565b905092915050565b60008060408385031215613d9857613d97612f75565b5b6000613da685828601612fc8565b9250506020613db785828601612fc8565b9150509250929050565b600080600080600060a08688031215613ddd57613ddc612f75565b5b6000613deb88828901612fc8565b9550506020613dfc88828901612fc8565b9450506040613e0d88828901612ffe565b9350506060613e1e88828901612ffe565b925050608086013567ffffffffffffffff811115613e3f57613e3e612f7a565b5b613e4b88828901613471565b9150509295509295909350565b600060208284031215613e6e57613e6d612f75565b5b6000613e7c84828501612fc8565b91505092915050565b7f4e487b7100000000000000000000000000000000000000000000000000000000600052602260045260246000fd5b60006002820490506001821680613ecc57607f821691505b602082108103613edf57613ede613e85565b5b50919050565b7f546f6b656e49647320616e6420616d6f756e7473206d757374206d6174636800600082015250565b6000613f1b601f83613170565b9150613f2682613ee5565b602082019050919050565b60006020820190508181036000830152613f4a81613f0e565b9050919050565b7f496e636f72726563742045544820616d6f756e742073656e7400000000000000600082015250565b6000613f87601983613170565b9150613f9282613f51565b602082019050919050565b60006020820190508181036000830152613fb681613f7a565b9050919050565b7f4e487b7100000000000000000000000000000000000000000000000000000000600052603260045260246000fd5b7f4e6f7420656e6f75676820746f6b656e7320617661696c61626c6520666f722060008201527f73616c6500000000000000000000000000000000000000000000000000000000602082015250565b6000614048602483613170565b915061405382613fec565b604082019050919050565b600060208201905081810360008301526140778161403b565b9050919050565b7f4e487b7100000000000000000000000000000000000000000000000000000000600052601160045260246000fd5b60006140b882612fdd565b91506140c383612fdd565b92508282039050818111156140db576140da61407e565b5b92915050565b7f53414c4500000000000000000000000000000000000000000000000000000000600082015250565b6000614117600483613170565b9150614122826140e1565b602082019050919050565b7f546f6b656e7320736f6c6420616e642045544820706169640000000000000000600082015250565b6000614163601883613170565b915061416e8261412d565b602082019050919050565b600060608201905081810360008301526141928161410a565b90506141a16020830184613053565b81810360408301526141b281614156565b905092915050565b60006040820190506141cf6000830185613a87565b6141dc6020830184613a87565b9392505050565b7f4f6e6c79207468652063757272656e74206f776e65722063616e206275726e2060008201527f7468697320746f6b656e00000000000000000000000000000000000000000000602082015250565b600061423f602a83613170565b915061424a826141e3565b604082019050919050565b6000602082019050818103600083015261426e81614232565b9050919050565b60008190508160005260206000209050919050565b60006020601f8301049050919050565b600082821b905092915050565b6000600883026142d77fffffffffffffffffffffffffffffffffffffffffffffffffffffffffffffffff8261429a565b6142e1868361429a565b95508019841693508086168417925050509392505050565b6000819050919050565b600061431e61431961431484612fdd565b6142f9565b612fdd565b9050919050565b6000819050919050565b61433883614303565b61434c61434482614325565b8484546142a7565b825550505050565b600090565b614361614354565b61436c81848461432f565b505050565b5b8181101561439057614385600082614359565b600181019050614372565b5050565b601f8211156143d5576143a681614275565b6143af8461428a565b810160208510156143be578190505b6143d26143ca8561428a565b830182614371565b50505b505050565b600082821c905092915050565b60006143f8600019846008026143da565b1980831691505092915050565b600061441183836143e7565b9150826002028217905092915050565b61442a82613165565b67ffffffffffffffff8111156144435761444261321c565b5b61444d8254613eb4565b614458828285614394565b600060209050601f83116001811461448b5760008415614479578287015190505b6144838582614405565b8655506144eb565b601f19841661449986614275565b60005b828110156144c15784890151825560018201915060208501945060208101905061449c565b868310156144de57848901516144da601f8916826143e7565b8355505b6001600288020188555050505b505050505050565b7f4255524e00000000000000000000000000000000000000000000000000000000600082015250565b6000614529600483613170565b9150614534826144f3565b602082019050919050565b7f546f6b656e206275726e65640000000000000000000000000000000000000000600082015250565b6000614575600c83613170565b91506145808261453f565b602082019050919050565b600060608201905081810360008301526145a48161451c565b90506145b36020830184613053565b81810360408301526145c481614568565b905092915050565b7f4d494e5400000000000000000000000000000000000000000000000000000000600082015250565b6000614602600483613170565b915061460d826145cc565b602082019050919050565b60006060820190508181036000830152614631816145f5565b90506146406020830185613053565b818103604083015261465281846131bc565b90509392505050565b60006040820190506146706000830185613053565b61467d6020830184613053565b9392505050565b7f5550444154455f4d455441444154410000000000000000000000000000000000600082015250565b60006146ba600f83613170565b91506146c582614684565b602082019050919050565b600060608201905081810360008301526146e9816146ad565b90506146f86020830185613053565b818103604083015261470a81846131bc565b90509392505050565b7f5550444154455f50524943450000000000000000000000000000000000000000600082015250565b6000614749600c83613170565b915061475482614713565b602082019050919050565b600060608201905081810360008301526147788161473c565b90506147876020830185613053565b818103604083015261479981846131bc565b90509392505050565b7f5175616e74697479206d757374206265206e6f6e2d6e65676174697665000000600082015250565b60006147d8601d83613170565b91506147e3826147a2565b602082019050919050565b60006020820190508181036000830152614807816147cb565b9050919050565b7f5550444154455f5155414e544954590000000000000000000000000000000000600082015250565b6000614844600f83613170565b915061484f8261480e565b602082019050919050565b7f5175616e74697479207570646174656400000000000000000000000000000000600082015250565b6000614890601083613170565b915061489b8261485a565b602082019050919050565b600060608201905081810360008301526148bf81614837565b90506148ce6020830184613053565b81810360408301526148df81614883565b905092915050565b7f5550444154455f53544154555300000000000000000000000000000000000000600082015250565b600061491d600d83613170565b9150614928826148e7565b602082019050919050565b6000606082019050818103600083015261494c81614910565b905061495b6020830185613053565b818103604083015261496d81846131bc565b90509392505050565b600081905092915050565b50565b6000614991600083614976565b915061499c82614981565b600082019050919050565b60006149b282614984565b9150819050919050565b7f4e487b7100000000000000000000000000000000000000000000000000000000600052603160045260246000fd5b6000608082019050614a006000830187613a87565b614a0d6020830186613053565b614a1a6040830185613053565b614a276060830184613053565b95945050505050565b6000614a3b82612fdd565b9150614a4683612fdd565b9250828201905080821115614a5e57614a5d61407e565b5b92915050565b60006040820190508181036000830152614a7e81856138cb565b90508181036020830152614a9281846138cb565b90509392505050565b600081519050919050565b600082825260208201905092915050565b6000614ac282614a9b565b614acc8185614aa6565b9350614adc818560208601613181565b614ae5816131ab565b840191505092915050565b600060a082019050614b056000830188613a87565b614b126020830187613a87565b614b1f6040830186613053565b614b2c6060830185613053565b8181036080830152614b3e8184614ab7565b90509695505050505050565b600081519050614b59816130a9565b92915050565b600060208284031215614b7557614b74612f75565b5b6000614b8384828501614b4a565b91505092915050565b600060a082019050614ba16000830188613a87565b614bae6020830187613a87565b8181036040830152614bc081866138cb565b90508181036060830152614bd481856138cb565b90508181036080830152614be88184614ab7565b9050969550505050505056fea26469706673582212209b68b03c949ab3f2698b4c99c1046ca10df54a49bdeaa914b3671a0af1ad479d64736f6c634300081b0033",
  "linkReferences": {},
  "deployedLinkReferences": {}
}