{
  "_format": "hh-sol-artifact-1",
  "contractName": "ProductRegistry",
  "sourceName": "contracts/Product.sol",
  "abi": [
    {
      "anonymous": false,
      "inputs": [
        {
          "indexed": true,
          "internalType": "string",
          "name": "id",
          "type": "string"
        },
        {
          "indexed": false,
          "internalType": "string",
          "name": "name",
          "type": "string"
        },
        {
          "indexed": false,
          "internalType": "uint256",
          "name": "price",
          "type": "uint256"
        },
        {
          "indexed": false,
          "internalType": "bytes32",
          "name": "blockHash",
          "type": "bytes32"
        }
      ],
      "name": "ProductAdded",
      "type": "event"
    },
    {
      "anonymous": false,
      "inputs": [
        {
          "indexed": true,
          "internalType": "string",
          "name": "id",
          "type": "string"
        },
        {
          "indexed": false,
          "internalType": "string",
          "name": "name",
          "type": "string"
        },
        {
          "indexed": false,
          "internalType": "uint256",
          "name": "price",
          "type": "uint256"
        }
      ],
      "name": "ProductUpdated",
      "type": "event"
    },
    {
      "inputs": [
        {
          "internalType": "string",
          "name": "_id",
          "type": "string"
        },
        {
          "internalType": "string",
          "name": "_name",
          "type": "string"
        },
        {
          "internalType": "string",
          "name": "_description",
          "type": "string"
        },
        {
          "internalType": "uint256",
          "name": "_price",
          "type": "uint256"
        },
        {
          "internalType": "uint256",
          "name": "_quantity",
          "type": "uint256"
        },
        {
          "internalType": "string",
          "name": "_status",
          "type": "string"
        },
        {
          "internalType": "string[]",
          "name": "_cids",
          "type": "string[]"
        }
      ],
      "name": "addProduct",
      "outputs": [],
      "stateMutability": "nonpayable",
      "type": "function"
    },
    {
      "inputs": [],
      "name": "getAllProducts",
      "outputs": [
        {
          "components": [
            {
              "internalType": "string",
              "name": "id",
              "type": "string"
            },
            {
              "internalType": "string",
              "name": "name",
              "type": "string"
            },
            {
              "internalType": "string",
              "name": "description",
              "type": "string"
            },
            {
              "internalType": "uint256",
              "name": "price",
              "type": "uint256"
            },
            {
              "internalType": "uint256",
              "name": "quantity",
              "type": "uint256"
            },
            {
              "internalType": "string",
              "name": "status",
              "type": "string"
            },
            {
              "internalType": "string[]",
              "name": "cids",
              "type": "string[]"
            },
            {
              "internalType": "address",
              "name": "creator",
              "type": "address"
            }
          ],
          "internalType": "struct ProductRegistry.Product[]",
          "name": "",
          "type": "tuple[]"
        }
      ],
      "stateMutability": "view",
      "type": "function"
    },
    {
      "inputs": [
        {
          "internalType": "string",
          "name": "_id",
          "type": "string"
        }
      ],
      "name": "getProduct",
      "outputs": [
        {
          "internalType": "string",
          "name": "name",
          "type": "string"
        },
        {
          "internalType": "string",
          "name": "description",
          "type": "string"
        },
        {
          "internalType": "uint256",
          "name": "price",
          "type": "uint256"
        },
        {
          "internalType": "uint256",
          "name": "quantity",
          "type": "uint256"
        },
        {
          "internalType": "string",
          "name": "status",
          "type": "string"
        },
        {
          "internalType": "string[]",
          "name": "cids",
          "type": "string[]"
        }
      ],
      "stateMutability": "view",
      "type": "function"
    },
    {
      "inputs": [
        {
          "internalType": "string",
          "name": "_id",
          "type": "string"
        },
        {
          "internalType": "string",
          "name": "_name",
          "type": "string"
        },
        {
          "internalType": "string",
          "name": "_description",
          "type": "string"
        },
        {
          "internalType": "uint256",
          "name": "_price",
          "type": "uint256"
        },
        {
          "internalType": "uint256",
          "name": "_quantity",
          "type": "uint256"
        },
        {
          "internalType": "string",
          "name": "_status",
          "type": "string"
        },
        {
          "internalType": "string[]",
          "name": "_cids",
          "type": "string[]"
        }
      ],
      "name": "updateProduct",
      "outputs": [],
      "stateMutability": "nonpayable",
      "type": "function"
    }
  ],
  "bytecode": "0x6080604052348015600f57600080fd5b50611c268061001f6000396000f3fe608060405234801561001057600080fd5b506004361061004c5760003560e01c806302ee3a521461005157806368111cce1461006f578063a70955e5146100a4578063b24382b4146100c0575b600080fd5b6100596100dc565b6040516100669190611147565b60405180910390f35b610089600480360381019061008491906112b2565b610550565b60405161009b969594939291906113da565b60405180910390f35b6100be60048036038101906100b99190611569565b610890565b005b6100da60048036038101906100d59190611569565b610a98565b005b6060600060018054905067ffffffffffffffff8111156100ff576100fe611187565b5b60405190808252806020026020018201604052801561013857816020015b610125610cd8565b81526020019060019003908161011d5790505b50905060005b6001805490508110156105485760006001828154811061016157610160611697565b5b9060005260206000200160405161017891906117c9565b9081526020016040518091039020604051806101000160405290816000820180546101a2906116f5565b80601f01602080910402602001604051908101604052809291908181526020018280546101ce906116f5565b801561021b5780601f106101f05761010080835404028352916020019161021b565b820191906000526020600020905b8154815290600101906020018083116101fe57829003601f168201915b50505050508152602001600182018054610234906116f5565b80601f0160208091040260200160405190810160405280929190818152602001828054610260906116f5565b80156102ad5780601f10610282576101008083540402835291602001916102ad565b820191906000526020600020905b81548152906001019060200180831161029057829003601f168201915b505050505081526020016002820180546102c6906116f5565b80601f01602080910402602001604051908101604052809291908181526020018280546102f2906116f5565b801561033f5780601f106103145761010080835404028352916020019161033f565b820191906000526020600020905b81548152906001019060200180831161032257829003601f168201915b50505050508152602001600382015481526020016004820154815260200160058201805461036c906116f5565b80601f0160208091040260200160405190810160405280929190818152602001828054610398906116f5565b80156103e55780601f106103ba576101008083540402835291602001916103e5565b820191906000526020600020905b8154815290600101906020018083116103c857829003601f168201915b5050505050815260200160068201805480602002602001604051908101604052809291908181526020016000905b828210156104bf578382906000526020600020018054610432906116f5565b80601f016020809104026020016040519081016040528092919081815260200182805461045e906116f5565b80156104ab5780601f10610480576101008083540402835291602001916104ab565b820191906000526020600020905b81548152906001019060200180831161048e57829003601f168201915b505050505081526020019060010190610413565b5050505081526020016007820160009054906101000a900473ffffffffffffffffffffffffffffffffffffffff1673ffffffffffffffffffffffffffffffffffffffff1673ffffffffffffffffffffffffffffffffffffffff16815250508282815181106105305761052f611697565b5b6020026020010181905250808060010191505061013e565b508091505090565b6060806000806060806000808860405161056a9190611811565b90815260200160405180910390206000018054610586906116f5565b9050036105c8576040517f08c379a00000000000000000000000000000000000000000000000000000000081526004016105bf90611874565b60405180910390fd5b600080886040516105d99190611811565b90815260200160405180910390209050806001018160020182600301548360040154846005018560060185805461060f906116f5565b80601f016020809104026020016040519081016040528092919081815260200182805461063b906116f5565b80156106885780601f1061065d57610100808354040283529160200191610688565b820191906000526020600020905b81548152906001019060200180831161066b57829003601f168201915b5050505050955084805461069b906116f5565b80601f01602080910402602001604051908101604052809291908181526020018280546106c7906116f5565b80156107145780601f106106e957610100808354040283529160200191610714565b820191906000526020600020905b8154815290600101906020018083116106f757829003601f168201915b50505050509450818054610727906116f5565b80601f0160208091040260200160405190810160405280929190818152602001828054610753906116f5565b80156107a05780601f10610775576101008083540402835291602001916107a0565b820191906000526020600020905b81548152906001019060200180831161078357829003601f168201915b5050505050915080805480602002602001604051908101604052809291908181526020016000905b828210156108745783829060005260206000200180546107e7906116f5565b80601f0160208091040260200160405190810160405280929190818152602001828054610813906116f5565b80156108605780601f1061083557610100808354040283529160200191610860565b820191906000526020600020905b81548152906001019060200180831161084357829003601f168201915b5050505050815260200190600101906107c8565b5050505090509650965096509650965096505091939550919395565b600080886040516108a19190611811565b908152602001604051809103902060000180546108bd906116f5565b9050036108ff576040517f08c379a00000000000000000000000000000000000000000000000000000000081526004016108f690611874565b60405180910390fd5b6040518061010001604052808881526020018781526020018681526020018581526020018481526020018381526020018281526020013373ffffffffffffffffffffffffffffffffffffffff1681525060008860405161095f9190611811565b908152602001604051809103902060008201518160000190816109829190611a2b565b5060208201518160010190816109989190611a2b565b5060408201518160020190816109ae9190611a2b565b50606082015181600301556080820151816004015560a08201518160050190816109d89190611a2b565b5060c08201518160060190805190602001906109f5929190610d33565b5060e08201518160070160006101000a81548173ffffffffffffffffffffffffffffffffffffffff021916908373ffffffffffffffffffffffffffffffffffffffff16021790555090505086604051610a4e9190611811565b60405180910390207f28d04b3a3fb9170b3ad1f62a6d7aa849ab48dfa59927a94c270dd47597eaa82d8786604051610a87929190611afd565b60405180910390a250505050505050565b60008088604051610aa99190611811565b90815260200160405180910390206000018054610ac5906116f5565b905014610b07576040517f08c379a0000000000000000000000000000000000000000000000000000000008152600401610afe90611b79565b60405180910390fd5b6040518061010001604052808881526020018781526020018681526020018581526020018481526020018381526020018281526020013373ffffffffffffffffffffffffffffffffffffffff16815250600088604051610b679190611811565b90815260200160405180910390206000820151816000019081610b8a9190611a2b565b506020820151816001019081610ba09190611a2b565b506040820151816002019081610bb69190611a2b565b50606082015181600301556080820151816004015560a0820151816005019081610be09190611a2b565b5060c0820151816006019080519060200190610bfd929190610d33565b5060e08201518160070160006101000a81548173ffffffffffffffffffffffffffffffffffffffff021916908373ffffffffffffffffffffffffffffffffffffffff160217905550905050600187908060018154018082558091505060019003906000526020600020016000909190919091509081610c7c9190611a2b565b5086604051610c8b9190611811565b60405180910390207f39d1a827bff748296ea80126b80ba1681054102346da3618aed9e39e956e675787864340604051610cc793929190611bb2565b60405180910390a250505050505050565b60405180610100016040528060608152602001606081526020016060815260200160008152602001600081526020016060815260200160608152602001600073ffffffffffffffffffffffffffffffffffffffff1681525090565b828054828255906000526020600020908101928215610d7b579160200282015b82811115610d7a578251829081610d6a9190611a2b565b5091602001919060010190610d53565b5b509050610d889190610d8c565b5090565b5b80821115610dac5760008181610da39190610db0565b50600101610d8d565b5090565b508054610dbc906116f5565b6000825580601f10610dce5750610ded565b601f016020900490600052602060002090810190610dec9190610df0565b5b50565b5b80821115610e09576000816000905550600101610df1565b5090565b600081519050919050565b600082825260208201905092915050565b6000819050602082019050919050565b600081519050919050565b600082825260208201905092915050565b60005b83811015610e73578082015181840152602081019050610e58565b60008484015250505050565b6000601f19601f8301169050919050565b6000610e9b82610e39565b610ea58185610e44565b9350610eb5818560208601610e55565b610ebe81610e7f565b840191505092915050565b6000819050919050565b610edc81610ec9565b82525050565b600081519050919050565b600082825260208201905092915050565b6000819050602082019050919050565b6000610f1a8383610e90565b905092915050565b6000602082019050919050565b6000610f3a82610ee2565b610f448185610eed565b935083602082028501610f5685610efe565b8060005b85811015610f925784840389528151610f738582610f0e565b9450610f7e83610f22565b925060208a01995050600181019050610f5a565b50829750879550505050505092915050565b600073ffffffffffffffffffffffffffffffffffffffff82169050919050565b6000610fcf82610fa4565b9050919050565b610fdf81610fc4565b82525050565b60006101008301600083015184820360008601526110038282610e90565b9150506020830151848203602086015261101d8282610e90565b915050604083015184820360408601526110378282610e90565b915050606083015161104c6060860182610ed3565b50608083015161105f6080860182610ed3565b5060a083015184820360a08601526110778282610e90565b91505060c083015184820360c08601526110918282610f2f565b91505060e08301516110a660e0860182610fd6565b508091505092915050565b60006110bd8383610fe5565b905092915050565b6000602082019050919050565b60006110dd82610e0d565b6110e78185610e18565b9350836020820285016110f985610e29565b8060005b85811015611135578484038952815161111685826110b1565b9450611121836110c5565b925060208a019950506001810190506110fd565b50829750879550505050505092915050565b6000602082019050818103600083015261116181846110d2565b905092915050565b6000604051905090565b600080fd5b600080fd5b600080fd5b600080fd5b7f4e487b7100000000000000000000000000000000000000000000000000000000600052604160045260246000fd5b6111bf82610e7f565b810181811067ffffffffffffffff821117156111de576111dd611187565b5b80604052505050565b60006111f1611169565b90506111fd82826111b6565b919050565b600067ffffffffffffffff82111561121d5761121c611187565b5b61122682610e7f565b9050602081019050919050565b82818337600083830152505050565b600061125561125084611202565b6111e7565b90508281526020810184848401111561127157611270611182565b5b61127c848285611233565b509392505050565b600082601f8301126112995761129861117d565b5b81356112a9848260208601611242565b91505092915050565b6000602082840312156112c8576112c7611173565b5b600082013567ffffffffffffffff8111156112e6576112e5611178565b5b6112f284828501611284565b91505092915050565b600082825260208201905092915050565b600061131782610e39565b61132181856112fb565b9350611331818560208601610e55565b61133a81610e7f565b840191505092915050565b61134e81610ec9565b82525050565b600082825260208201905092915050565b600061137082610ee2565b61137a8185611354565b93508360208202850161138c85610efe565b8060005b858110156113c857848403895281516113a98582610f0e565b94506113b483610f22565b925060208a01995050600181019050611390565b50829750879550505050505092915050565b600060c08201905081810360008301526113f4818961130c565b90508181036020830152611408818861130c565b90506114176040830187611345565b6114246060830186611345565b8181036080830152611436818561130c565b905081810360a083015261144a8184611365565b9050979650505050505050565b61146081610ec9565b811461146b57600080fd5b50565b60008135905061147d81611457565b92915050565b600067ffffffffffffffff82111561149e5761149d611187565b5b602082029050602081019050919050565b600080fd5b60006114c76114c284611483565b6111e7565b905080838252602082019050602084028301858111156114ea576114e96114af565b5b835b8181101561153157803567ffffffffffffffff81111561150f5761150e61117d565b5b80860161151c8982611284565b855260208501945050506020810190506114ec565b5050509392505050565b600082601f8301126115505761154f61117d565b5b81356115608482602086016114b4565b91505092915050565b600080600080600080600060e0888a03121561158857611587611173565b5b600088013567ffffffffffffffff8111156115a6576115a5611178565b5b6115b28a828b01611284565b975050602088013567ffffffffffffffff8111156115d3576115d2611178565b5b6115df8a828b01611284565b965050604088013567ffffffffffffffff811115611600576115ff611178565b5b61160c8a828b01611284565b955050606061161d8a828b0161146e565b945050608061162e8a828b0161146e565b93505060a088013567ffffffffffffffff81111561164f5761164e611178565b5b61165b8a828b01611284565b92505060c088013567ffffffffffffffff81111561167c5761167b611178565b5b6116888a828b0161153b565b91505092959891949750929550565b7f4e487b7100000000000000000000000000000000000000000000000000000000600052603260045260246000fd5b7f4e487b7100000000000000000000000000000000000000000000000000000000600052602260045260246000fd5b6000600282049050600182168061170d57607f821691505b6020821081036117205761171f6116c6565b5b50919050565b600081905092915050565b60008190508160005260206000209050919050565b60008154611753816116f5565b61175d8186611726565b94506001821660008114611778576001811461178d576117c0565b60ff19831686528115158202860193506117c0565b61179685611731565b60005b838110156117b857815481890152600182019150602081019050611799565b838801955050505b50505092915050565b60006117d58284611746565b915081905092915050565b60006117eb82610e39565b6117f58185611726565b9350611805818560208601610e55565b80840191505092915050565b600061181d82846117e0565b915081905092915050565b7f50726f64756374206e6f7420666f756e64000000000000000000000000000000600082015250565b600061185e6011836112fb565b915061186982611828565b602082019050919050565b6000602082019050818103600083015261188d81611851565b9050919050565b60006020601f8301049050919050565b600082821b905092915050565b6000600883026118e17fffffffffffffffffffffffffffffffffffffffffffffffffffffffffffffffff826118a4565b6118eb86836118a4565b95508019841693508086168417925050509392505050565b6000819050919050565b600061192861192361191e84610ec9565b611903565b610ec9565b9050919050565b6000819050919050565b6119428361190d565b61195661194e8261192f565b8484546118b1565b825550505050565b600090565b61196b61195e565b611976818484611939565b505050565b5b8181101561199a5761198f600082611963565b60018101905061197c565b5050565b601f8211156119df576119b081611731565b6119b984611894565b810160208510156119c8578190505b6119dc6119d485611894565b83018261197b565b50505b505050565b600082821c905092915050565b6000611a02600019846008026119e4565b1980831691505092915050565b6000611a1b83836119f1565b9150826002028217905092915050565b611a3482610e39565b67ffffffffffffffff811115611a4d57611a4c611187565b5b611a5782546116f5565b611a6282828561199e565b600060209050601f831160018114611a955760008415611a83578287015190505b611a8d8582611a0f565b865550611af5565b601f198416611aa386611731565b60005b82811015611acb57848901518255600182019150602085019450602081019050611aa6565b86831015611ae85784890151611ae4601f8916826119f1565b8355505b6001600288020188555050505b505050505050565b60006040820190508181036000830152611b17818561130c565b9050611b266020830184611345565b9392505050565b7f50726f6475637420494420616c72656164792065786973747300000000000000600082015250565b6000611b636019836112fb565b9150611b6e82611b2d565b602082019050919050565b60006020820190508181036000830152611b9281611b56565b9050919050565b6000819050919050565b611bac81611b99565b82525050565b60006060820190508181036000830152611bcc818661130c565b9050611bdb6020830185611345565b611be86040830184611ba3565b94935050505056fea26469706673582212202d187a1d9570204e13f1b4c716e4c5cc341e785e4270e61ca4ee65d7d8a467cd64736f6c634300081b0033",
  "linkReferences": {},
  "deployedLinkReferences": {}
}