{
  "_format": "hh-sol-artifact-1",
  "contractName": "Storage",
  "sourceName": "contracts/Storage.sol",
  "abi": [
    {
      "inputs": [
        {
          "internalType": "address",
          "name": "user",
          "type": "address"
        }
      ],
      "name": "getCID",
      "outputs": [
        {
          "internalType": "string",
          "name": "",
          "type": "string"
        }
      ],
      "stateMutability": "view",
      "type": "function"
    },
    {
      "inputs": [
        {
          "internalType": "string",
          "name": "cid",
          "type": "string"
        }
      ],
      "name": "storeCID",
      "outputs": [],
      "stateMutability": "nonpayable",
      "type": "function"
    }
  ],
  "bytecode": "0x6080604052348015600f57600080fd5b506107938061001f6000396000f3fe608060405234801561001057600080fd5b50600436106100365760003560e01c8063055b33e71461003b578063ccfdd32b1461006b575b600080fd5b61005560048036038101906100509190610218565b610087565b60405161006291906102d5565b60405180910390f35b6100856004803603810190610080919061042c565b610157565b005b60606000808373ffffffffffffffffffffffffffffffffffffffff1673ffffffffffffffffffffffffffffffffffffffff16815260200190815260200160002080546100d2906104a4565b80601f01602080910402602001604051908101604052809291908181526020018280546100fe906104a4565b801561014b5780601f106101205761010080835404028352916020019161014b565b820191906000526020600020905b81548152906001019060200180831161012e57829003601f168201915b50505050509050919050565b806000803373ffffffffffffffffffffffffffffffffffffffff1673ffffffffffffffffffffffffffffffffffffffff16815260200190815260200160002090816101a2919061068b565b5050565b6000604051905090565b600080fd5b600080fd5b600073ffffffffffffffffffffffffffffffffffffffff82169050919050565b60006101e5826101ba565b9050919050565b6101f5816101da565b811461020057600080fd5b50565b600081359050610212816101ec565b92915050565b60006020828403121561022e5761022d6101b0565b5b600061023c84828501610203565b91505092915050565b600081519050919050565b600082825260208201905092915050565b60005b8381101561027f578082015181840152602081019050610264565b60008484015250505050565b6000601f19601f8301169050919050565b60006102a782610245565b6102b18185610250565b93506102c1818560208601610261565b6102ca8161028b565b840191505092915050565b600060208201905081810360008301526102ef818461029c565b905092915050565b600080fd5b600080fd5b7f4e487b7100000000000000000000000000000000000000000000000000000000600052604160045260246000fd5b6103398261028b565b810181811067ffffffffffffffff8211171561035857610357610301565b5b80604052505050565b600061036b6101a6565b90506103778282610330565b919050565b600067ffffffffffffffff82111561039757610396610301565b5b6103a08261028b565b9050602081019050919050565b82818337600083830152505050565b60006103cf6103ca8461037c565b610361565b9050828152602081018484840111156103eb576103ea6102fc565b5b6103f68482856103ad565b509392505050565b600082601f830112610413576104126102f7565b5b81356104238482602086016103bc565b91505092915050565b600060208284031215610442576104416101b0565b5b600082013567ffffffffffffffff8111156104605761045f6101b5565b5b61046c848285016103fe565b91505092915050565b7f4e487b7100000000000000000000000000000000000000000000000000000000600052602260045260246000fd5b600060028204905060018216806104bc57607f821691505b6020821081036104cf576104ce610475565b5b50919050565b60008190508160005260206000209050919050565b60006020601f8301049050919050565b600082821b905092915050565b6000600883026105377fffffffffffffffffffffffffffffffffffffffffffffffffffffffffffffffff826104fa565b61054186836104fa565b95508019841693508086168417925050509392505050565b6000819050919050565b6000819050919050565b600061058861058361057e84610559565b610563565b610559565b9050919050565b6000819050919050565b6105a28361056d565b6105b66105ae8261058f565b848454610507565b825550505050565b600090565b6105cb6105be565b6105d6818484610599565b505050565b5b818110156105fa576105ef6000826105c3565b6001810190506105dc565b5050565b601f82111561063f57610610816104d5565b610619846104ea565b81016020851015610628578190505b61063c610634856104ea565b8301826105db565b50505b505050565b600082821c905092915050565b600061066260001984600802610644565b1980831691505092915050565b600061067b8383610651565b9150826002028217905092915050565b61069482610245565b67ffffffffffffffff8111156106ad576106ac610301565b5b6106b782546104a4565b6106c28282856105fe565b600060209050601f8311600181146106f557600084156106e3578287015190505b6106ed858261066f565b865550610755565b601f198416610703866104d5565b60005b8281101561072b57848901518255600182019150602085019450602081019050610706565b868310156107485784890151610744601f891682610651565b8355505b6001600288020188555050505b50505050505056fea264697066735822122082977e64ee2fae776ee44bdd9f35bce0faab34ba35edfacf13368ec8e1443fa864736f6c634300081b0033",
  "linkReferences": {},
  "deployedLinkReferences": {}
}